:020000040800F2
:1000000000000220712E0008092C0008112C0008A5
:10001000192C0008212C0008292C000800000000E1
:10002000000000000000000000000000312C00086B
:100030003F2C0008000000004D2C00085B2C00083D
:10004000C12E0008C12E0008C12E0008C12E0008D4
:10005000C12E0008C12E0008C12E0008C12E0008C4
:10006000C12E0008C12E0008C12E0008C12E0008B4
:10007000C12E0008C12E0008C12E0008C12E0008A4
:10008000C12E0008C12E0008C12E0008C12E000894
:10009000C12E0008C12E0008C12E0008C12E000884
:1000A000C12E0008C12E0008C12E0008C12E000874
:1000B000692C0008C12E00087D2C0008C12E000804
:1000C000C12E0008C12E0008C12E0008C12E000854
:1000D000C12E0008C12E0008C12E0008C12E000844
:1000E000C12E0008C12E0008C12E0008C12E000834
:1000F000C12E0008C12E0008C12E0008C12E000824
:10010000C12E0008C12E0008C12E0008C12E000813
:10011000C12E0008C12E0008C12E0008C12E000803
:10012000C12E0008C12E0008C12E0008C12E0008F3
:10013000C12E0008C12E0008C12E0008C12E0008E3
:10014000C12E0008C12E0008C12E0008C12E0008D3
:10015000C12E0008C12E0008C12E0008C12E0008C3
:10016000C12E0008C12E0008C12E0008C12E0008B3
:10017000C12E0008C12E0008C12E0008000000009A
:08018000C12E0008C12E000889
:1001880010B5054C237833B9044B13B10448AFF3C9
:1001980000800123237010BD300000200000000003
:1001A8005455000808B5034B1BB103490348AFF386
:1001B800008008BD000000003400002054550008ED
:1001C800034613F8012B002AFBD1181A013870478F
:1001D80053B94AB9002908BF00281CBF4FF0FF31A6
:1001E8004FF0FF3000F088B9ADF1080C6DE904CE8E
:1001F80000F006F8DDF804E0DDE9022304B07047FA
:100208002DE9F047089D8E4604468846002B4AD1C2
:100218008A42174662D9B2FA82F64EB1C6F1200375
:1002280001FA06F820FA03F3B74043EA0808B44095
:100238004FEA174E1FFA87FCB8FBFEF1230C0EFBA2
:10024800118843EA084301FB0CF29A4209D9FB18CA
:1002580001F1FF3080F0EA809A4240F2E7800239EB
:100268003B449A1AA3B2B2FBFEF00EFB102243EAFB
:10027800024300FB0CFC9C4509D9FB1800F1FF3236
:1002880080F0D6809C4540F2D3803B44023840EA57
:100298000140A3EB0C0300211DB1F3400022C5E986
:1002A8000032BDE8F0878B4205D90DB1C5E90001E0
:1002B80000210846F5E7B3FA83F1002946D17345D2
:1002C80002D3824200F20581841A6EEB03020120F8
:1002D8009046002DE5D0C5E90048E2E7002A00F085
:1002E8009080B2FA82F6002E40F0A4808A1A030C9D
:1002F8004FEA174E80B2BCB20121B2FBFEFC0EFBE6
:100308001C2243EA024304FB0CF29A4207D9FB1869
:100318000CF1FF3802D29A4200F2E080C4469B1AE0
:10032800B3FBFEF20EFB123340EA034302FB04F474
:100338009C4207D9FB1802F1FF3002D29C4200F21E
:10034800CA8002461B1B42EA0C40A5E7C1F1200601
:100358008B4022FA06F71F430EFA01F420FA06F33F
:100368002EFA06FE4FEA1749234300FA01F81FFA4E
:1003780087FCBEFBF9F01C0C09FB10EE44EA0E44A6
:1003880000FB0CFEA64502FA01F209D93C1900F15E
:10039800FF3A80F09C80A64540F2998002383C44A0
:1003A800A4EB0E041FFA83FEB4FBF9F309FB134414
:1003B8004EEA044403FB0CFCA44508D93C1903F19C
:1003C800FF3E80F08280A4457FD9023B3C4443EA4B
:1003D8000040A4EB0C04A0FB02EC64457346E14624
:1003E80062D35FD05DB1B8EB030264EB090404FA91
:1003F80006F622FA01F31E43CC40C5E90064002149
:100408004FE7B1FBF2FC010C41EA0E4180B240EA31
:1004180001423B4638463C46B846BE462026B1FB1C
:10042800F7F1A2EB080241EA0C4166E7014618E73A
:1004380010462CE7C6F120022EFA02F3B740B1406D
:1004480020FA02F24FEA174E0A43B3FBFEF8BCB299
:100458000EFB1833110C41EA034108FB04F9B040C4
:1004680089454FEA104380B23ED9791808F1FF3C1C
:1004780001D289451FD8A1EB0901B1FBFEF909FB9F
:1004880004F80EFB191192B242EA0142424529D200
:10049800BA1809F1FF31C4D24245C2D2A9F102010A
:1004A8003A44BEE7F0459DD2BEEB02036CEB070C65
:1004B8000138E14696E7A7EB09094944A8F1020C7F
:1004C800B1FBFEF909FB04F8DBE773467FE750460A
:1004D80066E70846FDE63B44023A33E7ACF1020C16
:1004E8003B441CE749469CE7A1EB0901C446B1FB24
:1004F800FEF909FB04F8C4E7704700BF80B500AFF8
:1005080001220821024803F01DF800BF80BD00BF8A
:10051800000C024080B584B000AF002208212F48AB
:1005280003F010F8012208212C4803F00BF80A23E5
:1005380002222B492B4803F050FE0023FB604FF4A6
:1005480000437B8100237B603FE07B68002B06DB58
:100558007B68032B03DC7B680433FB6018E07B6853
:10056800032B07DD7B68072B04DC7B68C3F10703DB
:10057800FB600DE07B68072B06DD7B680B2B03DC3B
:100588007B680433FB6003E07B68C3F11703FB60FF
:10059800134B1A887B8913409BB2002B05D0124A53
:1005A800FB68002122F8131009E00F4AFB6832F8B3
:1005B8001330013399B20C4AFB6822F813107B8977
:1005C8005B087B817B6801337B607B680F2BBCDD1C
:1005D80000BF00BF1037BD4680BD00BF000C024001
:1005E8006C000020000100204C00002080B500AF06
:1005F8002C4B1B780D2B52D801A252F823F000BFC8
:100608004106000851060008570600085D06000864
:1006180063060008690600086F06000875060008EA
:100628007B06000881060008870600089306000874
:10063800990600088D06000800F02EFB00F0B0F8BF
:10064800184B01221A702BE000F02EFB28E000F076
:1006580047FC25E000F01CFD22E000F04FFE1FE003
:1006680000F08AFF1CE000F0C3FF19E000F0F6FF7D
:1006780016E001F019F813E001F03CF810E000F082
:10068800AFFE0DE000F038FF0AE001F09DF807E04A
:10069800054B14221A70034B0B221A7000E000BF9E
:1006A80000BF80BD6E0000200000002080B582B031
:1006B80000AF0C4B00221A7000237B600AE00A4A44
:1006C8007B68134400221A70786802F097F87B68F8
:1006D80001337B607B68032BF1DD00BF00BF083767
:1006E800BD4680BD6F0000207000002080B485B03A
:1006F80000AF78600023FB6022E0164AFB6832F8FE
:100708001330002B14BF01230023DBB2FB72FB7AEA
:10071800002B07D0104AFB6813441B78002B01D12B
:10072800012100E00021FB687A681344CAB21A70FC
:10073800094AFB681344FA7A1A70FB680133FB60B4
:10074800FB680F2BD9DD00BF00BF1437BD465DF82D
:10075800047B70474C0000207800002080B483B0F0
:1007680000AF0023FB710CE0FB790B4AD25CFB79EC
:100778000A49CB5C9A4201D0002306E0FB79013399
:10078800FB71FB79032BEFD9012318460C37BD46C3
:100798005DF8047B704700BF040000207000002053
:1007A80080B584B004AF4FF6FF7300931423F02292
:1007B8000021002001F0BEFB4FF6FF730093AA232F
:1007C800F0229621002001F0B5FB002302931023AC
:1007D80001934FF6FF7300930023134A0021002072
:1007E80001F004FF114B0093782348221E21542066
:1007F80001F0BEFC0E4B00939423F022AC210020A4
:1008080001F0B6FC0B4B00931E231E224B21C32084
:1008180001F0AEFC084B14221A70084B01221A7022
:1008280000BFBD4680BD00BF6C550008D89B0108BD
:1008380058860008D8F402080000002008000020AC
:1008480080B584B004AF4FF6FF7300931423F022F1
:100858000021002001F06EFB002302931023019376
:100868004FF6FF73009300230B4A0021002001F08C
:10087800BDFE0A4B0093782348221E21542001F024
:1008880077FC074B00939423F022AC21002001F061
:100898006FFC00BFBD4680BD74550008D89B010899
:1008A8005886000880B584B004AF4FF6FF730093F4
:1008B8001423F0220021002001F03CFB00230293C6
:1008C800102301934FF6FF73009300230B4A002176
:1008D800002001F08BFE0A4B0093782348221E214A
:1008E800542001F045FC074B00939423F022AC21DF
:1008F800002001F03DFC00BFBD4680BD8C550008BE
:10090800D89B010858DF010880B584B004AF4FF6C2
:10091800FF7300931423F0220021002001F00AFB4A
:1009280000230293102301934FF6FF7300930023D3
:100938000B4A0021002001F059FE0A4B00931E23A8
:100948001E224B21C32001F013FC074B04221A700E
:100958004FF47A71002002F04BF800BFBD4680BD0D
:10096800A8550008D8F402086E00002080B584B0AD
:1009780004AF4FF6FF7300931423F02200210020E8
:1009880001F0D8FA4FF6FF7300939923B1221E2184
:10099800542001F0CFFA00230293102301934FF65D
:1009A800FF73009300230C4A0021002001F01EFE73
:1009B8000A4B00931E231E224B21C32001F0D8FBB3
:1009C800074B0093782348221E21542001F0D0FBC6
:1009D80000BFBD4680BD00BFBC550008E0FB020853
:1009E800D89B010880B584B004AF4FF6FF7300931D
:1009F8001423F0220021002001F09CFA4FF6FF7327
:100A080000939923B1221E21542001F093FA4FF646
:100A1800FF730093AA23F0229621002001F08AFA9E
:100A280000230293102301934FF6FF7300930023D2
:100A38000B4A0021002001F0D9FD0A4B00931E2328
:100A48001E224B21C32001F093FB074B00937B230D
:100A58005D221E21542001F08BFB00BFBD4680BDE6
:100A6800C8550008E0FB0208E802030880B584B016
:100A780004AF4FF6FF7300931423F02200210020E7
:100A880001F058FA4FF6FF7300939923B1221E2103
:100A9800542001F04FFA4FF6FF73009369233C226C
:100AA8004B211E2001F046FA0023029310230193E4
:100AB8004FF6FF73009300230B4A0021002001F03A
:100AC80095FD0A4B00931E231E224B21C32001F0E3
:100AD8004FFB074B0093782348221E21542001F036
:100AE80047FB00BFBD4680BDD4550008E0FB0208A7
:100AF800D89B010880B584B004AF4FF6FF7300930C
:100B08001423F0220021002001F014FA4FF6FF739D
:100B180000939923B1221E21542001F00BFA0023DF
:100B28000293102301934FF6FF7300934FF4784319
:100B38000F4A0021002001F059FD0E4B00931D23A0
:100B48001E224B211E2001F013FB0B4B00931E238A
:100B58001E224B21C32001F00BFB084B00937B2383
:100B68005D221E21542001F003FB00BFBD4680BD5D
:100B7800E0550008485C0308E0FB0208E8020308A7
:100B880080B584B004AF4FF6FF7300931423F022AE
:100B98000021002001F0CEF94FF6FF73009399234E
:100BA800B1221E21542001F0C5F90023029310231D
:100BB80001934FF6FF73009300230C4A0021002095
:100BC80001F014FD0A4B00931E231E224B21C32063
:100BD80001F0CEFA074B0093782348221E215420B7
:100BE80001F0C6FA00BFBD4680BD00BFF855000839
:100BF800D8F40208D89B010880B584B004AF214B13
:100C08001B780D2B3BD0204B00221A70FFF74EFDAE
:100C18004FF6FF7300931423F0220021002001F007
:100C280089F94FF6FF730093AA23F022962100203A
:100C380001F080F900230293102301934FF6FF730C
:100C480000930023114A0021002001F0CFFC00236B
:100C58000293102301934FF6FF73009300230C4A6D
:100C68009621002001F0C2FC0A4B14221A70054B91
:100C78000B221A706421002001F0BAFE00E000BFC8
:100C8800BD4680BD6E000020740000200856000894
:100C9800185600080000002080B400AF00BFBD4611
:100CA8005DF8047B7047000080B58AB002AF864BC0
:100CB8001B78142B08D1854B00939423F022AC2188
:100CC800002001F055FA07E0814B00939423F022AD
:100CD800AC21002001F04CFA002001F0A5FE0346EB
:100CE800002B00F0ED803B461846FFF7FFFCBB7B6E
:100CF800002B02D0FFF780FFE3E03B7B002B0DD0F9
:100D0800714B1B78142B01D1152200E014226E4B75
:100D18001A706421002001F06BFED2E06A4B1B7848
:100D2800142B70D14FF0FF33FB617B7B012B02D179
:100D38000023FB6134E03B78012B02D10123FB61E6
:100D48002EE07B78012B02D10223FB6128E0BB78DF
:100D5800012B02D10323FB6122E03B79012B02D155
:100D68000423FB611CE07B79012B02D10523FB6185
:100D780016E0BB79012B02D10623FB6110E03B7A18
:100D8800012B02D10723FB610AE07B7A012B02D1F8
:100D98000823FB6104E0BB7A012B01D10923FB6125
:100DA800FB69002BC0F28780FFF74AFD494B002200
:100DB8001A700023BB610AE0474ABB69134400224A
:100DC8001A70B86901F01AFDBB690133BB61BB69D0
:100DD800032BF1DDFB69DAB23F4B1A7000220021C8
:100DE800F86901F0CFFC3B4B01221A703B4B022201
:100DF8001A706421002001F0FBFD43F698210220BF
:100E080001F0F6FD5DE04FF0FF337B613B78012B8D
:100E180002D10A237B611CE07B78012B02D10B23D2
:100E28007B6116E0BB78012B02D10C237B6110E0BB
:100E38003B79012B02D10D237B610AE07B79012BE1
:100E480002D10E237B6104E0BB79012B01D10F2372
:100E58007B617B69002B2EDBFFF724FD1D4B0022F5
:100E68001A7000233B610AE01B4A3B6913440022C5
:100E78001A70386901F0C2FC3B6901333B613B6978
:100E8800032BF1DD7B69DAB2134B1A7000220021C3
:100E9800786901F077FC0F4B01221A700F4B03227F
:100EA8001A700A21002001F0A3FD43F698210220C0
:100EB80001F09EFD05E06421002001F099FD00E0AD
:100EC80000BF2037BD4680BD0000002058860008BE
:100ED80058DF01086F000020700000206E0000201D
:100EE80080B586B000AF022001F09EFD0346002BBE
:100EF80007D0FFF7DBFBFFF753FC614B01221A70A9
:100F0800BBE0002001F090FD0346002B00F0B48008
:100F18003B461846FFF7EAFB3B7B002B11D0FFF757
:100F2800C1FC584B15221A70554B03221A706421C4
:100F3800002001F05DFD43F69821022001F058FDE4
:100F48009BE00023FB754FF0FF333B617B7B012B5C
:100F580002D100233B6134E03B78012B02D101230D
:100F68003B612EE07B78012B02D102233B6128E014
:100F7800BB78012B02D103233B6122E03B79012B93
:100F880002D104233B611CE07B79012B02D10523AC
:100F98003B6116E0BB79012B02D106233B6110E0CF
:100FA8003B7A012B02D107233B610AE07B7A012BB4
:100FB80002D108233B6104E0BB7A012B01D109234C
:100FC8003B613B69002B19DB2F4B1B78032B13D894
:100FD8002D4B1B781A463B69D9B22C4B99542A4B96
:100FE8001B7800221946386901F0CCFB264B1B7888
:100FF8000133DAB2244B1A700123FB75FB7D002BF9
:1010080019D1FB78002B16D01F4B1B78002B10D062
:101018001D4B1B78013BDAB21B4B1A701A4B1B781D
:101028001A461A4B00219954174B1B78184601F0A1
:10103800E5FB0123FB75FB7D002B06D1FB79002B1B
:1010480003D0FFF733FB0123FB75FB7D002B04D096
:1010580043F69821022001F0CBFC0B4B1B78032BA5
:1010680005D9FFF751FC064B04221A7005E06421EC
:10107800002001F0BDFC00E000BF1837BD4680BD70
:101088006E000020000000206F000020700000208B
:1010980080B586B000AF022001F0C6FC0346002BE5
:1010A80007D0FFF703FBFFF77BFB554B01221A70B4
:1010B800A3E0002001F0B8FC0346002B00F09C8060
:1010C8003B461846FFF712FB3B7B002B11D0FFF77E
:1010D800B7FB4C4B14221A70494B02221A70642138
:1010E800002001F085FC43F69821022001F080FCE5
:1010F80083E00023FB754FF0FF333B613B78012B06
:1011080002D10A233B611CE07B78012B02D10B231F
:101118003B6116E0BB78012B02D10C233B6110E048
:101128003B79012B02D10D233B610AE07B79012B2E
:1011380002D10E233B6104E0BB79012B01D10F23BF
:101148003B613B69002B19DB2F4B1B78032B13D812
:101158002D4B1B781A463B69D9B22C4B99542A4B14
:101168001B7800221946386901F00CFB264B1B78C6
:101178000133DAB2244B1A700123FB75FB7D002B77
:1011880019D1FB78002B16D01F4B1B78002B10D0E1
:101198001D4B1B78013BDAB21B4B1A701A4B1B789C
:1011A8001A461A4B00219954174B1B78184601F020
:1011B80025FB0123FB75FB7D002B06D1FB79002B5A
:1011C80003D0FFF773FA0123FB75FB7D002B04D0D6
:1011D80043F69821022001F00BFC0B4B1B78032BE4
:1011E80005D9FFF791FB064B04221A7005E064212C
:1011F800002001F0FDFB00E000BF1837BD4680BDB0
:101208006E000020000000206F0000207000002009
:1012180080B586B000AF0346FB80FA88364BA3FB47
:101228000213D9080B469B000B445B00D31A9BB2F0
:101238007B61FB88304AA2FB0323DB08FB80FA882A
:101248002D4BA3FB0213D9080B469B000B445B00F4
:10125800D31A9BB23B61FB88274AA2FB0323DB0816
:10126800FB80FA88244BA3FB0213D9080B469B008A
:101278000B445B00D31A9BB2FB60FB881E4AA2FB9F
:101288000323DB08FB80FB88BB60BB68002B05DD04
:1012980000220021B86801F075FA02E0002001F090
:1012A800ADFABB68002B02DCFB68002B05DD0022D1
:1012B8000121F86801F066FA02E0012001F09EFAC7
:1012C800BB68002B05DCFB68002B02DC3B69002BAC
:1012D80005DD00220221386901F054FA02E00220FB
:1012E80001F08CFA00220321786901F04BFA00BF63
:1012F8001837BD4680BD00BFCDCCCCCC80B584B0FE
:1013080004AF002001F090FB0346002B5BD0FFF7F1
:1013180025FA0346002B30D04FF6FF7300931423B1
:10132800F0229621002000F005FE002302931023EE
:1013380001934FF6FF7300930023244A962100205F
:1013480001F054F9224B00221A70224B00221A7025
:1013580040F2DC51002001F04BFB1F4B05221A70B4
:10136800FFF704FB42F21071042001F041FB47F241
:101378003051032001F03CFB26E04FF6FF73009349
:101388001423F0229621002000F0D4FD00230293BC
:10139800102301934FF6FF7300934FF478430F4ADD
:1013A8009621002001F022F9094B1B780133DAB2AB
:1013B800074B1A7040F2DC51002001F019FB064B74
:1013C8000A221A7000E000BFBD4680BD2C560008F6
:1013D80088000020890000206E0000204056000888
:1013E80080B582B000AF002001F01EFB0346002B41
:1013F80025D0154B1B78022B15D94EF660237B6040
:10140800124B1B781A467B6893407B60786800F023
:1014180021F80F4B0D221A700C4B1B780133DAB2EE
:101428000A4B1A700CE0FFF741F9FFF7B9F9084BBE
:1014380001221A706421002001F0DAFA00E000BFEE
:101448000837BD4680BD00BF880000208900002005
:101458006E00002080B588B004AF7860224A7B68AF
:101468001360214B1B6803F2E733204AA2FB0323D6
:101478009B09FB81FB891846FFF7CAFE4FF6FF73ED
:1014880000931423F0220021002000F053FD4FF6B2
:10149800FF730093AA23F0229621002000F04AFD52
:1014A80000230293102301934FF6FF7300934FF428
:1014B80078430F4A0021002001F098F80023029396
:1014C800102301934FF6FF7300930023094A9621D6
:1014D800002001F08BF84FF47A71002001F088FAAF
:1014E80000BF1037BD4680BD8C000020D34D621070
:1014F800545600085C56000880B582B000AF002042
:1015080001F092FA0346002B2CD0184B1B68B3F558
:101518007A7F18D3154B1B68A3F57A73134A1360A7
:10152800124B1B6803F2E733114AA2FB03239B0902
:10153800FB80FB881846FFF76BFE4FF47A7100209A
:1015480001F056FA0FE0094B00221A60FFF7AEF8D7
:10155800FFF726F9074B01221A706421002001F0D9
:1015680047FA00E000BF0837BD4680BD8C00002068
:10157800D34D62106E00002080B584B000AF00200B
:1015880001F052FA0346002B2BD03B461846FFF7D2
:10159800ADF8FB7B002B0ED0FFF724FA134B062285
:1015A8001A7047F23051032001F022FA642100201A
:1015B80001F01EFA16E0042001F036FA0346002B6B
:1015C8000AD0FFF7DDFA094B09221A704FF4FA61C5
:1015D800002001F00DFA05E06421002001F008FA6E
:1015E80000E000BF1037BD4680BD00BF6E00002080
:1015F80080B584B000AF002001F016FA0346002B36
:1016080025D03B461846FFF771F8FB7B002B09D025
:10161800FFF72CFA104B07221A706421002001F002
:10162800E7F915E0032001F0FFF90346002B09D084
:10163800FFF760FA084B08221A706421002001F0B5
:10164800D7F905E06421002001F0D2F900E000BFDD
:101658001037BD4680BD00BF6E00002080B584B045
:1016680000AF002001F0E0F90346002B16D03B46FE
:101678001846FFF73BF8FB7A002B0AD0FFF780FAF1
:10168800084B09221A704FF4FA61002001F0B0F9F2
:1016980005E06421002001F0ABF900E000BF10373D
:1016A800BD4680BD6E00002080B584B000AF00202C
:1016B80001F0BAF90346002B15D03B461846FFF750
:1016C80015F8FB7B002B09D0FFF7D0F9084B072250
:1016D8001A706421002001F08BF905E064210020D4
:1016E80001F086F900E000BF1037BD4680BD00BF9D
:1016F8006E00002080B500AF002001F095F9034688
:10170800002B0BD0FEF7D2FFFFF74AF8044B01225B
:101718001A706421002001F06BF900E000BF80BD61
:101728006E00002080B483B000AF78607B681B78BF
:10173800002B01D0012340E07B6801331B78002B8C
:1017480001D0022339E07B6802331B78002B01D0DB
:10175800032332E07B6804331B78002B01D0042379
:101768002BE07B6805331B78002B01D0052324E090
:101778007B6806331B78002B01D006231DE07B68AD
:1017880008331B78002B01D0072316E07B68093348
:101798001B78002B01D008230FE07B680A331B78E5
:1017A800002B01D0092308E07B680D331B78002B40
:1017B80001D0002301E04FF0FF3318460C37BD4637
:1017C8005DF8047B7047000080B58AB004AF002044
:1017D80001F02AF90346002B00F02F813B461846FA
:1017E800FEF784FFBB7B002B0BD0FEF75FFFFEF7F5
:1017F800D7FF944B01221A706421002001F0F8F8F9
:101808001CE1FB78002B19D08F4B1B78002B10D0D4
:101818008D4B1B78013BDAB28B4B1A708A4B1B78C5
:101828001A468A4B00219954874B1B78184600F0BA
:10183800E5FF6421002001F0DBF8FFE0FB79002BD5
:1018480006D0FEF733FF6421002001F0D1F8F5E05F
:101858003B461846FFF766FF38613B69002B1BDBE8
:10186800794B1B78032B17D8774B1B781A463B69A3
:10187800D9B2764B9954744B1B78002219463869B3
:1018880000F080FF704B1B780133DAB26E4B1A7090
:101898000221022001F0ACF86B4B1B78032B40F2BD
:1018A800B9806B4B1B78002B65D1FEF757FF0346B9
:1018B800002B32D0FEF7FAFE654B01221A704FF664
:1018C800FF7300931423F0220021002000F032FB64
:1018D8004FF6FF730093AA23F0229621002000F010
:1018E80029FB00230293102301934FF6FF73009303
:1018F8004FF47843574A0021002000F077FE002378
:101908000293102301934FF6FF7300930023524A6A
:101918009621002000F06AFE7CE04FF6FF730093EA
:101928001423F0220021002000F004FB4FF6FF737F
:101938000093AA23F0229621002000F0FBFA00234E
:101948000293102301934FF6FF7300934FF47843EB
:10195800424A0021002000F049FE00230293102390
:1019680001934FF6FF73009300233D4A9621002010
:1019780000F03CFE4EE000237B610BE0334A7B69BC
:1019880013441978374A7B6913440A461A707B69ED
:1019980001337B617B69032BF0DD334B00221A7026
:1019A8004FF6FF7300931423F0220021002000F06B
:1019B800C1FA4FF6FF730093AA23F0229621002064
:1019C80000F0B8FA00230293102301934FF6FF7337
:1019D80000934FF47843254A0021002000F006FECA
:1019E80000230293102301934FF6FF730093002303
:1019F8001F4A9621002000F0F9FD40F2DC5100203A
:101A080000F0F6FF0F4B01221A70FEF74FFEFEF7AB
:101A1800C7FE13E0022001F007F80346002B07D0A9
:101A2800FEF744FEFEF7BCFE064B01221A7005E0E5
:101A38006421002000F0DCFF00E000BF1837BD463D
:101A480080BD00BF6E0000206F00002070000020E5
:101A5800740000206C560008805600088C56000858
:101A6800A05600080400002088000020BC5600088A
:101A7800D056000880B58EB000AF07F11C030022D5
:101A88001A605A609A60DA601A615A619A613B4634
:101A980000221A605A609A60DA601A615A619A6183
:101AA8002F4B4FF020421A602D4B2E4A5A602C4B78
:101AB80000229A602A4B0022DA60294B00221A6120
:101AC800274B10225A61264B00229A61244B002290
:101AD800DA61234B00221A62214B00225A62204B02
:101AE8004FF480529A621E4B0022DA621C4B4FF46C
:101AF80080421A631A4B00225A63194B00229A63D8
:101B0800174B00225A640F23FB610F233B623C23CF
:101B18007B620023BB621023FB6211233B6300231B
:101B28007B6309233B600F237B600823BB60002392
:101B3800FB6010233B6111237B610023BB613A46A4
:101B480007F11C031946064802F04CFF0346002B18
:101B580001D000F039FF00BF3837BD4680BD00BF57
:101B680090000020040100A080B586B000AF3B1DA6
:101B780000221A605A609A60DA601A611C4B1B686E
:101B8800002B31D11A4B01221A6000233B60194BFC
:101B98009B6B184A43F001039363164B9B6B03F04E
:101BA80001033B603B684FF688737B600223BB6090
:101BB8000023FB6003233B610C237B613B1D19461B
:101BC8000D4801F023FB4CF2B3737B600223BB602A
:101BD8000023FB6003233B610C237B613B1D1946FB
:101BE800064801F013FB00E000BF1837BD4680BD72
:101BF800E00000200038024000100240000C0240C3
:101C080080B582B000AF7860FFF7AEFF00BF08373D
:101C1800BD4680BD80B58CB000AF07F11C03002223
:101C28001A605A609A60DA601A610023BB61634BDC
:101C38001B6B624A43F010031363604B1B6B03F08A
:101C48001003BB61BB6900237B615C4B1B6B5B4A68
:101C580043F004031363594B1B6B03F004037B61CC
:101C68007B6900233B61554B1B6B544A43F080034F
:101C78001363524B1B6B03F080033B613B690023EA
:101C8800FB604E4B1B6B4D4A43F0080313634B4BF1
:101C98001B6B03F00803FB60FB680023BB60474B2A
:101CA8001B6B464A43F040031363444B1B6B03F022
:101CB8004003BB60BB6800237B60404B1B6B3F4A03
:101CC80043F0010313633D4B1B6B03F001037B607F
:101CD8007B6800233B60394B1B6B384A43F0020397
:101CE8001363364B1B6B03F002033B603B68002217
:101CF8007021334801F026FC00224FF4005131488E
:101D080001F020FC002240212F4801F01BFC00229A
:101D18004FF480712D4801F015FC002208212C4851
:101D280001F010FC7023FB6101233B6200237B62FE
:101D38000023BB6207F11C031946214801F066FA2B
:101D48004FF40053FB6101233B6200237B620023B5
:101D5800BB6207F11C0319461A4801F057FA4023E1
:101D6800FB6101233B6200237B620023BB6207F116
:101D78001C031946144801F049FA4FF48073FB61BB
:101D880001233B6200237B620023BB6207F11C0333
:101D980019460E4801F03AFA0823FB6101233B6219
:101DA80000237B620023BB6207F11C031946084825
:101DB80001F02CFA00BF3037BD4680BD0038024024
:101DC80000100240000802400018024000000240D3
:101DD800000C024080B483B000AF0346FB80044A85
:101DE800FB88138000BF0C37BD465DF8047B704745
:101DF800FEFF0F6080B483B000AF0346FB80044A47
:101E0800FB88538000BF0C37BD465DF8047B7047E4
:101E1800FEFF0F6080B483B000AF064B5B889BB2B7
:101E2800FB80FB889BB218460C37BD465DF8047BE7
:101E3800704700BFFEFF0F6090B583B000AF044647
:101E4800084611461A462346FB800346BB800B46CC
:101E58007B8013463B802A20FFF7BCFFFB881B0AC8
:101E68009BB21846FFF7C6FFFB88DBB29BB2184649
:101E7800FFF7C0FF7B881B0A9BB21846FFF7BAFF23
:101E88007B88DBB29BB21846FFF7B4FF2B20FFF725
:101E9800A1FFBB881B0A9BB21846FFF7ABFFBB88A4
:101EA800DBB29BB21846FFF7A5FF3B881B0A9BB223
:101EB8001846FFF79FFF3B88DBB29BB21846FFF737
:101EC80099FF2C20FFF786FF00BF0C37BD4690BD59
:101ED80080B584B000AF0346FB80154B1B88013BDF
:101EE8009AB2134B5B88013B9BB200210020FFF79D
:101EF800A3FF0023FB8111E00023BB8106E0FB88E0
:101F08001846FFF777FFBB890133BB81084B5B8815
:101F1800BA899A42F3D3FB890133FB81044B1B88AE
:101F2800FA899A42E8D300BF00BF1037BD4680BD8A
:101F3800E400002090B585B000AF0446084611467D
:101F48001A462346FB800346BB800B467B8013461C
:101F58003B807B88013B9AB23B88013B9BB2B988A6
:101F6800F888FFF769FFBB88FB8110E0FB88BB811D
:101F780006E03B8C1846FFF73DFFBB890133BB8168
:101F8800BA897B889A42F4D3FB890133FB81FA89A9
:101F98003B889A42EAD300BF00BF1437BD4690BDC4
:101FA80080B582B000AF0346FB800B46BB8013466A
:101FB8007B80BB88FA88B988F888FFF73DFF7B8863
:101FC8001846FFF717FF00BF0837BD4680BD000061
:101FD80090B587B000AF0446084611461A46234616
:101FE800FB800346BB800B46FB7013463B800023F7
:101FF8007B75FB883B8297F82C305B08FB73FB7B77
:10200800DB08DBB21A46FB7B03F00703DBB2002BCD
:1020180014BF01230023DBB213449AB297F82C3083
:102028009BB212FB03F3BB81FB78203BFB70FB7B6D
:102038009AB2FB8813449BB2013B9CB297F82C30B0
:102048009AB2BB8813449BB2013B9BB2B988F8880B
:102058002246FFF7F1FE00237B827AE097F82C30C6
:102068000C2B28D097F82C30102B08D1FA787B8AC3
:102078003C4912010A4413441B78FB751BE097F88E
:102088002C30182B0BD1FA78798A374813465B0025
:1020980013441B0103440B441B78FB750BE097F8B2
:1020A8002C30202B5AD1FA787B8A304992010A4485
:1020B80013441B78FB750023BB7544E097F8303058
:1020C800002B20D1FA7DBB7D42FA03F303F0010314
:1020D800002B04D03B881846FFF78CFE03E03B8DAD
:1020E8001846FFF787FE7B7D01337B757B7DFA7B86
:1020F800B3FBF2F101FB02F29B1ADBB2002B1FD1FA
:1021080000237B7522E0FA7DBB7D42FA03F303F0DE
:102118000103002B05D03A88B988FB881846FFF7D9
:102128003FFFFB880133FB80FA883B8AD21AFB7B8E
:102138009A4205D13B8AFB80BB880133BB8005E00E
:10214800BB7D0133BB75BB7D072BB7D97B8A0133B8
:102158007B827A8ABB899A4280D300E000BF1C3711
:10216800BD4690BDD8560008C85C0008986E0008A7
:1021780090B587B000AF0446084611461A46234674
:10218800FB800346BB800B467B8013463B800023C5
:102198003B61FA887B8813449BB2013B9CB2BA88A6
:1021A8003B8813449BB2013B9BB2B988F88822460E
:1021B800FFF742FE0023FB8228E00023BB821EE0DB
:1021C8003B695B00BA6A13441B78FB733B695B008D
:1021D8000133BA6A13441B78BB73FB7B1BB21B0227
:1021E8001AB2BB7B1BB213431BB29BB21846FFF754
:1021F80001FE3B6901333B61BB8A0133BB82BA8A6A
:102208003B889A42DCD3FB8A0133FB82FA8A7B88BB
:102218009A42D2D300BF00BF1C37BD4690BD000014
:1022280080B483B000AF0346FB71FB7903F0300341
:10223800DBB2002B07D00A4B4FF4A0721A80084B70
:10224800F0225A8006E0064BF0221A80044B4FF425
:10225800A0725A8000BF0C37BD465DF8047B7047FA
:10226800E400002080B500AF00224FF40051AA48D6
:1022780001F068F94FF4FA7000F092FE01224FF471
:102288000051A54801F05EF94FF4FA7000F088FE9D
:102298000020FFF7C5FFD320FFF79CFDFFF7BAFD2D
:1022A80003461A469D4B9A80FFF7B4FD03461A462B
:1022B8009A4B9A80FFF7AEFD03461A46974B9A80D1
:1022C800964B9B881B029AB2944B9A80FFF7A2FD0B
:1022D80003461A46914B9B8813439AB28F4B9A80B8
:1022E800CF20FFF777FD0020FFF784FDC120FFF71F
:1022F80081FD3020FFF77EFDED20FFF76BFD6420A8
:10230800FFF778FD0320FFF775FD1220FFF772FD38
:102318008120FFF76FFDE820FFF75CFD8520FFF7C0
:1023280069FD1020FFF766FD7A20FFF763FDCB20DB
:10233800FFF750FD3920FFF75DFD2C20FFF75AFD10
:102348000020FFF757FD3420FFF754FD0220FFF768
:1023580051FDF720FFF73EFD2020FFF74BFDEA2057
:10236800FFF738FD0020FFF745FD0020FFF742FD8D
:10237800C020FFF72FFD1B20FFF73CFDC120FFF712
:1023880029FD0120FFF736FDC520FFF723FD30208A
:10239800FFF730FD3020FFF72DFDC720FFF71AFDAE
:1023A800B720FFF727FD3620FFF714FD0820FFF7B9
:1023B80021FD3A20FFF70EFD5520FFF71BFDB12048
:1023C800FFF708FD0020FFF715FD1A20FFF712FDA3
:1023D800B620FFF7FFFC0A20FFF70CFDA220FFF74D
:1023E80009FDF220FFF7F6FC0020FFF703FD262089
:1023F800FFF7F0FC0120FFF7FDFCE020FFF7EAFC07
:102408000F20FFF7F7FC2A20FFF7F4FC2820FFF73E
:10241800F1FC0820FFF7EEFC0E20FFF7EBFC08208C
:10242800FFF7E8FC5420FFF7E5FCA920FFF7E2FCE2
:102438004320FFF7DFFC0A20FFF7DCFC0F20FFF743
:10244800D9FC0020FFF7D6FC0020FFF7D3FC0020C2
:10245800FFF7D0FC0020FFF7CDFCE120FFF7BAFC26
:102468000020FFF7C7FC1520FFF7C4FC1720FFF773
:10247800C1FC0720FFF7BEFC1120FFF7BBFC0620BC
:10248800FFF7B8FC2B20FFF7B5FC5620FFF7B2FC8E
:102498003C20FFF7AFFC0520FFF7ACFC1020FFF74E
:1024A800A9FC0F20FFF7A6FC3F20FFF7A3FC3F2065
:1024B800FFF7A0FC0F20FFF79DFC2B20FFF78AFCFD
:1024C8000020FFF797FC0020FFF794FC0120FFF79E
:1024D80091FC3F20FFF78EFC2A20FFF77BFC0020B1
:1024E800FFF788FC0020FFF785FC0020FFF782FC3F
:1024F800EF20FFF77FFC1120FFF76CFC782000F03D
:102508004FFD2920FFF766FC01224FF48071044833
:1025180001F018F800BF80BD00080240E400002068
:102528000000024090B58BB004AFBA601A4603466B
:10253800FB810B46BB811346FB80FB89BB820023D2
:10254800FB7548E0FB7D002B45D1FA89264B1B889B
:10255800194697F82C305B08DBB2CB1A9A423FDC5D
:10256800BA89214B5B88194697F82C30CB1A9A42C6
:1025780036DCBB681B78802B02D90123FB752AE067
:10258800BB681B780D2B0BD197F82C309AB2BB89FE
:102598001344BB81BB8AFB81BB680133BB6017E076
:1025A800BB681A78FC88B989F88997F830300293A3
:1025B80097F82C3001933B8D00932346FFF708FDD5
:1025C80097F82C305B08DBB21A46FB891344FB8171
:1025D800BB680133BB60BB681B78002BB2D100E03D
:1025E80000BF1C37BD4690BDE400002080B58AB00E
:1025F80004AFBA601A460346FB810B46BB811346FB
:10260800FB80B868FDF7DCFD0346FB820F4B1B8897
:102618001A46FB8ADB00D31ADA0F13445B10BB821D
:10262800FA89BB8A134498B2FA88B98997F828308E
:10263800029397F8243001933B8C00931346BA68B1
:10264800FFF770FF00BF1837BD4680BDE4000020CB
:1026580080B500AF01224021024800F073FF00BF9F
:1026680080BD00BF0018024080B500AF404B1B88FA
:10267800DBB29AB23E4B1A803E4B1B881A463E4B41
:102688009B5C1BB21B021AB2394B1B881BB213434B
:102698001BB29AB2364B1A80364B1B88032B47D88D
:1026A80001A252F823F000BFC1260008DF26000867
:1026B800FD2600081B2700082D4B1B8843F0B0039C
:1026C8009AB22B4B1A802A4B1B8823F040039AB2EC
:1026D800274B1A802DE0264B1B8843F0D0039AB273
:1026E800234B1A80224B1B8823F020039AB2204BDD
:1026F8001A801EE01E4B1B8843F0E0039AB21C4B65
:102708001A801B4B1B8823F010039AB2184B1A80AF
:102718000FE0174B1B8843F070039AB2144B1A80D2
:10272800134B1B8823F080039AB2114B1A8000E0E8
:1027380000BF104B1B8801335A4203F0030302F019
:10274800030258BF53429AB20A4B1A800022402112
:102758000A4800F0F7FE012302220549084801F063
:10276800F8FB01224021054800F0ECFE00BF80BDC7
:1027780020000020EA0000200C0000200018024081
:102788000001002080B487B000AFF860B96013463C
:10279800FB71BB68002B27DBBB68032B24DCFB68C1
:1027A800002B01DA0023FB60FB680F2B08DDFB68B8
:1027B8005A4203F00F0302F00F0258BF5342FB6066
:1027C8000C4AFB6813441B78FB75FB79002B05D07A
:1027D800FB7D002B02D0FB7D013BFB75064ABB68E5
:1027E8001344FA7D1A7000E000BF1C37BD465DF83F
:1027F800047B7047100000200C00002080B483B0D8
:1028080000AF78607B68002B08DB7B68032B05DC56
:10281800054A7B681344FF221A7000E000BF0C379A
:10282800BD465DF8047B70470C00002080B500AF02
:1028380000F044FB00F01CF8FFF7ECF900F036FA62
:1028480000F038F9FFF716F900F07CFA00F07AF892
:102858004FF47A71002000F0CBF84FF47A71012020
:1028680000F0C6F8FDF756FEFDF7C0FE00BFF9E719
:1028780080B594B000AF07F120033022002118463C
:1028880002F038FE07F10C0300221A605A609A60C1
:10289800DA601A610023BB60284B1B6C274A43F09F
:1028A80080531364254B1B6C03F08053BB60BB68DB
:1028B80000237B60224B1B68214A43F4804313604A
:1028C8001F4B1B6803F480437B607B6801233B62DA
:1028D8004FF480337B620223BB634FF48003FB63B6
:1028E80004233B64A8237B640223BB640423FB64A6
:1028F80007F12003184600F03FFE0346002B01D0E5
:1029080000F062F80F23FB6002233B6100237B6128
:102918004FF4A053BB614FF4A053FB6107F10C03C4
:102928000521184601F0A0F80346002B01D000F05D
:102938004BF800BF5037BD4680BD00BF003802408D
:102948000070004080B582B000AF00F043F8FDF79A
:10295800D5FDFFF787FC4FF6FF70FFF7B9FAFFF7D1
:1029680077FE00237B600AE0094A7B681344002253
:102978001A707868FFF742FF7B6801337B607B68D9
:10298800032BF1DD00BF00BF0837BD4680BD00BF87
:102998007000002080B582B000AF78607B681B684B
:1029A800B3F1804F02D100F055F806E07B681B6850
:1029B800044A934201D1FFF757FE00BF0837BD46CE
:1029C80080BD00BF0008004080B400AF72B600BFF1
:1029D80000BFFDE780B500AF034802F09BF803484D
:1029E80002F098F800BF80BD58010020A001002027
:1029F80080B483B000AF03460A46FB711346BB8020
:102A0800FB790749BA8821F81320FB79054A002188
:102A1800D15400BF0C37BD465DF8047B704700BF3A
:102A2800EC000020F800002080B483B000AF03461B
:102A3800FB71FB79064AD35C012B01D1012300E02D
:102A4800002318460C37BD465DF8047B704700BF6D
:102A5800F800002080B483B000AF0023FB711BE0B6
:102A6800FB79124A32F81330002B12D0FB790F4A47
:102A780032F81320013A91B20C4A22F81310FB796C
:102A88000A4A32F81330002B03D1FB79084A012196
:102A9800D154FB790133FB71FB79042BE0D900BFDA
:102AA80000BF0C37BD465DF8047B7047EC00002082
:102AB800F800002080B500AF174B184A1A60164B73
:102AC8004FF482725A60144B00229A60124B002213
:102AD800DA60114B00221A610F4B00225A610E4B2B
:102AE8004FF400729A610C4B0022DA610A4B002203
:102AF8001A62094B00225A62074B00229A62064B5F
:102B08000A22DA62044801F09BF90346002B01D03F
:102B1800FFF75AFF00BF80BD0001002000300140D0
:102B280080B58AB000AF786007F1140300221A60FC
:102B38005A609A60DA601A617B681B68194A934286
:102B48002BD100233B61184B5B6C174A43F480532D
:102B58005364154B5B6C03F480533B613B69002362
:102B6800FB60114B1B6B104A43F0020313630E4BBF
:102B78001B6B03F00203FB60FB6838237B610223B5
:102B8800BB610023FB6103233B6205237B6207F1E2
:102B980014031946054800F039FB00BF2837BD4625
:102BA80080BD00BF003001400038024000040240F0
:102BB80080B483B000AF00237B60104B5B6C0F4A7E
:102BC80043F4804353640D4B5B6C03F480437B6098
:102BD8007B6800233B60094B1B6C084A43F0805319
:102BE8001364064B1B6C03F080533B603B6800BFCB
:102BF8000C37BD465DF8047B704700BF00380240C3
:102C080080B400AF00BFFDE780B400AF00BFFDE7B0
:102C180080B400AF00BFFDE780B400AF00BFFDE7A0
:102C280080B400AF00BFFDE780B400AF00BFBD4671
:102C38005DF8047B704780B400AF00BFBD465DF807
:102C4800047B704780B400AF00BFBD465DF8047BCD
:102C5800704780B500AF00F083F900BF80BD000069
:102C680080B500AF024801F0C5FF00BF80BD00BFBE
:102C78005801002080B500AF024801F0BBFF00BF3B
:102C880080BD00BFA001002080B400AF064BD3F880
:102C98008830054A43F47003C2F8883000BFBD4647
:102CA8005DF8047B704700BF00ED00E080B586B09A
:102CB80000AF07F1080300221A605A609A60DA60D0
:102CC8003B4600221A605A601D4B4FF080421A6042
:102CD8001B4B40F247325A60194B00229A60184B3E
:102CE8006322DA60164B00221A61154B00229A61A2
:102CF800134801F0BFFE0346002B01D0FFF764FE26
:102D08004FF48053BB6007F1080319460C4802F0E2
:102D180061F80346002B01D0FFF756FE00233B6005
:102D280000237B603B461946054802F083FA0346B8
:102D3800002B01D0FFF748FE00BF1837BD4680BD05
:102D48005801002080B586B000AF07F108030022C3
:102D58001A605A609A60DA603B4600221A605A602C
:102D68001D4B1E4A1A601C4B40F247325A601A4BE0
:102D780000229A60184B6322DA60174B00221A610E
:102D8800154B00229A61144801F074FE0346002B8B
:102D980001D0FFF719FE4FF48053BB6007F1080319
:102DA80019460D4802F016F80346002B01D0FFF72C
:102DB8000BFE00233B6000237B603B461946064818
:102DC80002F038FA0346002B01D0FFF7FDFD00BFE3
:102DD8001837BD4680BD00BFA00100200008004094
:102DE80080B584B000AF78607B681B68B3F1804F12
:102DF80016D10023FB601A4B1B6C194A43F00103E0
:102E08001364174B1B6C03F00103FB60FB68002283
:102E180000211C2000F0C3F91C2000F0DCF91AE0A6
:102E28007B681B680F4A934215D10023BB600C4B8B
:102E38001B6C0B4A43F004031364094B1B6C03F02F
:102E48000403BB60BB68002200211E2000F0A7F924
:102E58001E2000F0C0F900BF1037BD4680BD00BF7E
:102E68000038024000080040DFF834D0FFF70CFFBC
:102E78000C480D490D4A002302E0D458C4500433CD
:102E8800C4188C42F9D30A4A0A4C002301E01360A3
:102E98000432A242FBD302F035FBFFF7C7FC7047B0
:102EA80000000220000000203000002034630308E6
:102EB80030000020EC010020FEE7000080B500AFE4
:102EC8000E4B1B680D4A43F4007313600B4B1B68D1
:102ED8000A4A43F480631360084B1B68074A43F4AB
:102EE80080731360032000F04FF90F2000F008F8FA
:102EF800FFF75EFE0023184680BD00BF003C02407D
:102F080080B582B000AF7860124B1A68124B1B78FC
:102F180019464FF47A73B3FBF1F3B2FBF3F3184697
:102F280000F067F90346002B01D001230EE07B680F
:102F38000F2B0AD8002279684FF0FF3000F02FF9E4
:102F4800064A7B681360002300E00123184608370F
:102F5800BD4680BD240000202C0000202800002051
:102F680080B400AF064B1B781A46064B1B68134407
:102F7800044A136000BFBD465DF8047B704700BF7C
:102F88002C000020E801002080B400AF034B1B6830
:102F98001846BD465DF8047B704700BFE801002075
:102FA80080B584B000AF7860FFF7EEFFB8607B684B
:102FB800FB60FB68B3F1FF3F05D00A4B1B781A464C
:102FC800FB681344FB6000BFFFF7DEFF0246BB68E7
:102FD800D31AFA689A42F7D800BF00BF1037BD4627
:102FE80080BD00BF2C00002080B485B000AF7860A1
:102FF8007B6803F00703FB600C4BDB68BB60BA68B7
:103008004FF6FF031340BB60FB681A02BB6813430B
:1030180043F0BF6343F40033BB60044ABB68D3602A
:1030280000BF1437BD465DF8047B704700ED00E033
:1030380080B400AF044BDB681B0A03F00703184693
:10304800BD465DF8047B704700ED00E080B483B0B6
:1030580000AF0346FB7197F90730002B0BDBFB79B8
:1030680003F01F02074997F907305B09012000FAAE
:1030780002F241F8232000BF0C37BD465DF8047BFF
:10308800704700BF00E100E080B483B000AF0346A2
:103098003960FB7197F90730002B0ADB3B68DAB21D
:1030A8000C4997F907301201D2B20B4483F8002378
:1030B8000AE03B68DAB20849FB7903F00F03043BE6
:1030C8001201D2B20B441A7600BF0C37BD465DF828
:1030D800047B704700E100E000ED00E080B489B0B7
:1030E80000AFF860B9607A60FB6803F00703FB6122
:1030F800FB69C3F10703042B28BF0423BB61FB69E9
:103108000433062B02D9FB69033B00E000237B61F3
:103118004FF0FF32BB6902FA03F3DA43BB681A4087
:103128007B699A404FF0FF317B6901FA03F3D94379
:103138007B680B40134318462437BD465DF8047B73
:103148007047000080B582B000AF78607B68013BB3
:10315800B3F1807F01D301230FE00A4A7B68013B6A
:1031680053600F214FF0FF30FFF78EFF054B002211
:103178009A60044B07221A60002318460837BD4698
:1031880080BD00BF10E000E080B582B000AF78607D
:103198007868FFF729FF00BF0837BD4680BD80B5B6
:1031A80086B000AF0346B9607A60FB7300237B6189
:1031B800FFF73EFF78617A68B9687869FFF78EFF94
:1031C800024697F90F3011461846FFF75DFF00BF1A
:1031D8001837BD4680BD80B582B000AF0346FB718D
:1031E80097F907301846FFF731FF00BF0837BD468B
:1031F80080BD80B582B000AF78607868FFF7A2FF25
:10320800034618460837BD4680BD000080B489B023
:1032180000AF7860396000237B6100233B610023A5
:10322800BB610023FB616BE10122FB6902FA03F336
:103238007B613B681B687A6913403B613A697B692B
:103248009A4240F05A813B685B6803F00303012B04
:1032580005D03B685B6803F00303022B30D17B6821
:103268009B68BB61FB695B00032202FA03F3DB4343
:10327800BA691340BB613B68DA68FB695B0002FA14
:1032880003F3BA691343BB617B68BA699A607B68C8
:103298005B68BB610122FB6902FA03F3DB43BA698D
:1032A8001340BB613B685B681B0903F00102FB69C3
:1032B80002FA03F3BA691343BB617B68BA695A60BF
:1032C8003B685B6803F00303032B17D07B68DB685C
:1032D800BB61FB695B00032202FA03F3DB43BA69B3
:1032E8001340BB613B689A68FB695B0002FA03F311
:1032F800BA691343BB617B68BA69DA603B685B688B
:1033080003F00303022B23D1FB69DA087B68083238
:1033180053F82230BB61FB6903F007039B000F22BF
:1033280002FA03F3DB43BA691340BB613B681A69CD
:10333800FB6903F007039B0002FA03F3BA6913431E
:10334800BB61FB69DA087B680832B96943F8221067
:103358007B681B68BB61FB695B00032202FA03F30D
:10336800DB43BA691340BB613B685B6803F0030247
:10337800FB695B0002FA03F3BA691343BB617B681C
:10338800BA691A603B685B6803F44033002B00F0AD
:10339800B4800023FB60604B5B6C5F4A43F480435E
:1033A80053645D4B5B6C03F48043FB60FB685B4AD2
:1033B800FB699B08023352F82330BB61FB6903F0B9
:1033C80003039B000F2202FA03F3DB43BA6913409D
:1033D800BB617B68524A93422BD07B68514A934227
:1033E80025D07B68504A93421FD07B684F4A93424E
:1033F80019D07B684E4A934213D07B684D4A93425A
:103408000DD07B684C4A934207D07B684B4A934265
:1034180001D107230EE008230CE006230AE0052368
:1034280008E0042306E0032304E0022302E001236A
:1034380000E00023FA6902F0030292009340BA699F
:103448001343BB613549FB699B080233BA6941F8EC
:1034580023203B4B9B68BB613B69DB43BA69134044
:10346800BB613B685B6803F48013002B03D0BA6927
:103478003B691343BB61324ABB699360304BDB68DD
:10348800BB613B69DB43BA691340BB613B685B685E
:1034980003F40013002B03D0BA693B691343BB61E3
:1034A800274ABB69D360264B5B68BB613B69DB433A
:1034B800BA691340BB613B685B6803F40033002BB7
:1034C80003D0BA693B691343BB611D4ABB695360AA
:1034D8001B4B1B68BB613B69DB43BA691340BB618B
:1034E8003B685B6803F48033002B03D0BA693B69FF
:1034F8001343BB61124ABB691360FB690133FB616B
:10350800FB690F2B7FF690AE00BF00BF2437BD4686
:103518005DF8047B704700BF003802400038014066
:10352800000002400004024000080240000C024073
:10353800001002400014024000180240001C024023
:10354800003C014080B483B000AF78600B467B80BC
:1035580013467B707B78002B03D07A887B689A614E
:1035680003E07B881A047B689A6100BF0C37BD466C
:103578005DF8047B7047000080B586B000AF7860C6
:103588007B68002B01D1012367E27B681B6803F08D
:103598000103002B75D0884B9B6803F00C03042BA8
:1035A8000CD0854B9B6803F00C03082B12D1824B7F
:1035B8005B6803F48003B3F5800F0BD17E4B1B6867
:1035C80003F40033002B5BD07B685B68002B57D17A
:1035D800012342E27B685B68B3F5803F06D1764BF6
:1035E8001B68754A43F4803313601DE07B685B6891
:1035F800B3F5A02F0CD1704B1B686F4A43F480239E
:1036080013606D4B1B686C4A43F4803313600BE006
:10361800694B1B68684A23F480331360664B1B6848
:10362800654A23F4802313607B685B68002B13D002
:10363800FFF7AAFC386108E0FFF7A6FC02463B69E1
:10364800D31A642B01D9032307E25B4B1B6803F4ED
:103658000033002BF0D014E0FFF796FC386108E047
:10366800FFF792FC02463B69D31A642B01D9032366
:10367800F3E1514B1B6803F40033002BF0D100E059
:1036880000BF7B681B6803F00203002B63D04A4B22
:103698009B6803F00C03002B0BD0474B9B6803F08F
:1036A8000C03082B1CD1444B5B6803F48003002BEC
:1036B80016D1414B1B6803F00203002B05D07B6831
:1036C800DB68012B01D00123C7E13B4B1B6823F0CA
:1036D800F8027B681B69DB00374913430B603AE04B
:1036E8007B68DB68002B20D0344B01221A60FFF77F
:1036F8004BFC386108E0FFF747FC02463B69D31AE8
:10370800022B01D90323A8E12B4B1B6803F002030A
:10371800002BF0D0284B1B6823F0F8027B681B694C
:10372800DB00254913430B6015E0244B00221A6087
:10373800FFF72AFC386108E0FFF726FC02463B69E0
:10374800D31A022B01D9032387E11B4B1B6803F013
:103758000203002BF0D17B681B6803F00803002BE1
:1037680036D07B685B69002B16D0154B01221A6096
:10377800FFF70AFC386108E0FFF706FC02463B69E0
:10378800D31A022B01D9032367E10B4B5B6F03F0BC
:103798000203002BF0D01BE0094B00221A60FFF750
:1037A800F3FB38610EE0FFF7EFFB02463B69D31AE3
:1037B800022B07D9032350E100380240000047429A
:1037C800800E4742884B5B6F03F00203002BEAD15F
:1037D8007B681B6803F00403002B00F0978000232C
:1037E800FB75814B1B6C03F08053002B0FD100231A
:1037F800BB607D4B1B6C7C4A43F0805313647A4B4F
:103808001B6C03F08053BB60BB680123FB75774BCF
:103818001B6803F48073002B18D1744B1B68734A20
:1038280043F480731360FFF7AFFB386108E0FFF7DC
:10383800ABFB02463B69D31A022B01D903230CE1E7
:103848006A4B1B6803F48073002BF0D07B689B687D
:10385800012B06D1644B1B6F634A43F001031367C6
:103868001CE07B689B68052B0CD15F4B1B6F5E4A85
:1038780043F0040313675C4B1B6F5B4A43F001037F
:1038880013670BE0584B1B6F574A23F0010313676C
:10389800554B1B6F544A23F0040313677B689B68DE
:1038A800002B15D0FFF770FB38610AE0FFF76CFBBF
:1038B80002463B69D31A41F28832934201D9032365
:1038C800CBE0494B1B6F03F00203002BEED014E052
:1038D800FFF75AFB38610AE0FFF756FB02463B69DF
:1038E800D31A41F28832934201D90323B5E03E4B03
:1038F8001B6F03F00203002BEED1FB7D012B05D1DA
:10390800394B1B6C384A23F0805313647B689B69DE
:10391800002B00F0A180344B9B6803F00C03082BAC
:103928005CD07B689B69022B41D1314B00221A6025
:10393800FFF72AFB386108E0FFF726FB02463B69E0
:10394800D31A022B01D9032387E0274B1B6803F006
:103958000073002BF0D17B68DA697B681B6A1A4315
:103968007B685B6A9B011A437B689B6A5B08013B27
:103978001B041A437B68DB6A1B061B4913434B6015
:103988001B4B01221A60FFF7FFFA386108E0FFF7C6
:10399800FBFA02463B69D31A022B01D903235CE0E8
:1039A800114B1B6803F00073002BF0D054E0104B50
:1039B80000221A60FFF7E8FA386108E0FFF7E4FA36
:1039C80002463B69D31A022B01D9032345E0064B73
:1039D8001B6803F00073002BF0D13DE07B689B6906
:1039E800012B07D1012338E0003802400070004065
:1039F800600047421B4B5B68FB607B689B69012B3F
:103A080028D0FB6803F480027B68DB699A4221D1E5
:103A1800FB6803F03F027B681B6A9A421AD1FA6876
:103A280047F6C07313407A68526A9201934211D1E3
:103A3800FB6803F440327B689B6A5B08013B1B040C
:103A48009A4207D1FB6803F070627B68DB6A1B0649
:103A58009A4201D0012300E0002318461837BD46DA
:103A680080BD00BF0038024080B584B000AF7860E8
:103A780039607B68002B01D10123CCE0684B1B68BF
:103A880003F007033A689A420CD9654B3A68D2B2F8
:103A98001A70634B1B6803F007033A689A4201D017
:103AA8000123B8E07B681B6803F00203002B20D0D9
:103AB8007B681B6803F00403002B05D0594B9B68F7
:103AC800584A43F4E05393607B681B6803F008038B
:103AD800002B05D0534B9B68524A43F460439360D4
:103AE800504B9B6823F0F0027B689B684D49134359
:103AF8008B607B681B6803F00103002B44D07B6854
:103B08005B68012B07D1474B1B6803F40033002B7C
:103B180019D101237FE07B685B68022B03D07B68A7
:103B28005B68032B07D13F4B1B6803F00073002B26
:103B380009D101236FE03B4B1B6803F00203002B04
:103B480001D1012367E0374B9B6823F003027B68B0
:103B58005B68344913438B60FFF716FAF8600AE094
:103B6800FFF712FA0246FB68D31A41F288329342F1
:103B780001D903234FE02B4B9B6803F00C027B68B1
:103B88005B689B009A42EBD1254B1B6803F0070347
:103B98003A689A420CD2224B3A68D2B21A70204B39
:103BA8001B6803F007033A689A4201D0012332E008
:103BB8007B681B6803F00403002B08D0194B9B6833
:103BC80023F4E0527B68DB68164913438B607B68FB
:103BD8001B6803F00803002B09D0124B9B6823F4E1
:103BE80060427B681B69DB000E4913438B6000F061
:103BF80021F802460B4B9B681B0903F00F030A4987
:103C0800CB5C22FA03F3094A1360094B1B68184678
:103C1800FFF776F9002318461037BD4680BD00BF70
:103C2800003C0240003802401463030824000020CE
:103C3800280000202DE9B04F94B000AF00237B642A
:103C48000023FB6400233B640023BB64794B9B681F
:103C580003F00C03082B0DD0082B00F2E180002B99
:103C680002D0042B03D0DBE0734BBB64DBE0734B67
:103C7800BB64D8E06F4B5B6803F03F037B646D4B1C
:103C88005B6803F48003002B63D06A4B5B689B0975
:103C98000022BB63FA63BB6BC3F308033B630023D7
:103CA8007B63D7E90C4522462B464FF000004FF0C6
:103CB8000001590141EAD261500102460B462146F2
:103CC800511A3961294663EB01037B614FF0000209
:103CD8004FF00003D7E904AB59468B01514643EA3C
:103CE800916351468A015146B2EB0108594663EB8C
:103CF80001094FF000024FF000034FEAC90343EAFD
:103D080058734FEAC80290469946234618EB0303B6
:103D1800BB602B4649EB0303FB604FF000024FF0FA
:103D28000003D7E9024529464B02214643EAD1530D
:103D380021464A02104619467B6C0022BB62FA6291
:103D4800D7E90A23FCF744FA02460B461346FB64FC
:103D580058E0384B5B689B09002218461146C0F3AF
:103D680008033B6200237B62D7E9088942464B4639
:103D78004FF000004FF00001590141EAD2615001B3
:103D880002460B464146B2EB010A494663EB010B7A
:103D98004FF000024FF000034FEA8B1343EA9A6397
:103DA8004FEA8A12B2EB0A0463EB0B054FF00002EC
:103DB8004FF00003EB0043EA5473E20014461D463B
:103DC8004346E3183B604B4645EB03037B604FF0EB
:103DD80000024FF00003D7E9004529468B0221462F
:103DE80043EA915321468A02104619467B6C002209
:103DF800BB61FA61D7E90623FCF7EAF902460B46EC
:103E08001346FB640B4B5B681B0C03F00303013385
:103E18005B003B64FA6C3B6CB2FBF3F3BB6402E0FF
:103E2800054BBB6400BFBB6C18465037BD46BDE8A8
:103E3800B08F00BF003802400024F40000127A005E
:103E480080B582B000AF78607B68002B01D1012378
:103E58007BE07B685B6A002B08D17B685B68B3F505
:103E6800827F09D07B680022DA6105E07B68002246
:103E78001A617B6800225A617B6800229A627B681B
:103E880093F85130DBB2002B06D17B68002283F80F
:103E980050207868FEF744FE7B68022283F85120A0
:103EA8007B681B681A687B681B6822F040021A60EE
:103EB8007B685B6803F482727B689B6803F4044345
:103EC8001A437B68DB6803F400631A437B681B6949
:103ED80003F002031A437B685B6903F001031A438A
:103EE8007B689B6903F400731A437B68DB6903F002
:103EF80038031A437B681B6A03F0800342EA030114
:103F08007B689B6A03F400527B681B680A431A604B
:103F18007B689B691B0C03F004017B685B6A03F0F8
:103F280010027B681B680A435A607B681B68DA6961
:103F38007B681B6822F40062DA617B6800225A659C
:103F48007B68012283F85120002318460837BD46B4
:103F580080BD80B588B000AFF860B9603B6013469B
:103F6800FB80FFF711F8F861FB887B83FB6893F807
:103F78005130DBB2012B01D002232AE1BB68002BB0
:103F880002D0FB88002B01D1012322E1FB6893F8C2
:103F98005030012B01D102231BE1FB68012283F879
:103FA8005020FB68032283F85120FB6800225A65E1
:103FB800FB68BA681A63FB68FA889A86FB68FA880D
:103FC800DA86FB6800229A63FB6800229A87FB68FE
:103FD8000022DA87FB6800225A64FB6800221A6410
:103FE800FB689B68B3F5004F0FD1FB681B681A6824
:103FF800FB681B6822F040021A60FB681B681A689D
:10400800FB681B6842F480421A60FB681B681B68E7
:1040180003F04003402B07D0FB681B681A68FB6855
:104028001B6842F040021A60FB68DB68B3F5006F5A
:1040380052D1FB685B68002B02D07B8B012B45D1EA
:10404800FB681B6B1A88FB681B68DA60FB681B6BD4
:104058009A1CFB681A63FB68DB8E9BB2013B9AB221
:10406800FB68DA8632E0FB681B689B6803F0020392
:10407800022B12D1FB681B6B1A88FB681B68DA607D
:10408800FB681B6B9A1CFB681A63FB68DB8E9BB290
:10409800013B9AB2FB68DA8618E0FEF775FF024624
:1040A800FB69D31A3A689A4203D83B68B3F1FF3FD9
:1040B80002D13B68002B09D1FB68012283F851200B
:1040C800FB68002283F85020032382E0FB68DB8E24
:1040D8009BB2002BC7D153E0FB685B68002B02D072
:1040E8007B8B012B47D1FB681A6BFB681B680C3371
:1040F80012781A70FB681B6B5A1CFB681A63FB6802
:10410800DB8E9BB2013B9AB2FB68DA8633E0FB6830
:104118001B689B6803F00203022B13D1FB681A6B20
:10412800FB681B680C3312781A70FB681B6B5A1CEF
:10413800FB681A63FB68DB8E9BB2013B9AB2FB6893
:10414800DA8618E0FEF720FF0246FB69D31A3A68C0
:104158009A4203D83B68B3F1FF3F02D13B68002B7A
:1041680009D1FB68012283F85120FB68002283F8FB
:10417800502003232DE0FB68DB8E9BB2002BC6D1B9
:10418800FA693968F86800F0D9FB0346002B02D0B9
:10419800FB6820225A65FB689B68002B0AD1002324
:1041A8007B61FB681B68DB687B61FB681B689B683D
:1041B8007B617B69FB68012283F85120FB68002240
:1041C80083F85020FB685B6D002B01D0012300E0D1
:1041D800002318462037BD4680BD80B588B002AFA1
:1041E800F860B9603B601346FB80FB6893F8513078
:1041F800DBB2012B01D0022304E1BB68002B02D003
:10420800FB88002B01D10123FCE0FB685B68B3F558
:10421800827F12D1FB689B68002B0ED1FB680422B9
:1042280083F85120FA883B6800931346BA68B96846
:10423800F86800F0EBF80346E4E0FEF7A5FE7861C5
:10424800FB6893F85030012B01D10223DAE0FB68B8
:10425800012283F85020FB68042283F85120FB6870
:1042680000225A65FB68BA689A63FB68FA889A87DD
:10427800FB68FA88DA87FB6800221A63FB68002269
:104288009A86FB680022DA86FB6800221A64FB68BB
:1042980000225A64FB689B68B3F5004F0FD1FB6896
:1042A8001B681A68FB681B6822F040021A60FB68EA
:1042B8001B681A68FB681B6822F480421A60FB6856
:1042C8001B681B6803F04003402B07D0FB681B6882
:1042D8001A68FB681B6842F040021A60FB68DB68DA
:1042E800002B70D135E0FB681B689B6803F0010365
:1042F800012B15D1FB681B6803F10C02FB689B6B53
:104308001278D2B21A70FB689B6B5A1CFB689A63CE
:10431800FB68DB8F9BB2013B9AB2FB68DA8718E037
:10432800FEF732FE02467B69D31A3A689A4203D8EE
:104338003B68B3F1FF3F02D13B68002B09D1FB6812
:10434800012283F85120FB68002283F850200323C0
:1043580058E0FB68DB8F9BB2002BC4D138E0FB68C8
:104368001B689B6803F00103012B13D1FB681B68D2
:10437800DA68FB689B6B92B21A80FB689B6B9A1C8D
:10438800FB689A63FB68DB8F9BB2013B9AB2FB68C0
:10439800DA8718E0FEF7F8FD02467B69D31A3A6817
:1043A8009A4203D83B68B3F1FF3F02D13B68002B28
:1043B80009D1FB68012283F85120FB68002283F8A9
:1043C800502003231EE0FB68DB8F9BB2002BC6D175
:1043D8007A693968F86800F04BFA0346002B02D076
:1043E800FB6820225A65FB68012283F85120FB688C
:1043F800002283F85020FB685B6D002B01D001235D
:1044080000E0002318461837BD4680BD80B58AB045
:1044180000AFF860B9607A607B8001237B62FEF7A9
:10442800B3FD3862FB6893F85130FB77FB685B6833
:10443800BB617B88FB82FB7F012B0CD0BB69B3F58A
:10444800827F06D1FB689B68002B02D1FB7F042B7F
:1044580001D002237FE1BB68002B05D07B68002BCD
:1044680002D07B88002B01D1012374E1FB6893F80B
:104478005030012B01D102236DE1FB68012283F842
:104488005020FB6893F85130DBB2042B03D0FB6853
:10449800052283F85120FB6800225A65FB687A6878
:1044A8009A63FB687A88DA87FB687A889A87FB6858
:1044B800BA681A63FB687A88DA86FB687A889A860B
:1044C800FB6800221A64FB6800225A64FB681B68B8
:1044D8001B6803F04003402B07D0FB681B681A6871
:1044E800FB681B6842F040021A60FB68DB68B3F5A2
:1044F800006F7ED1FB685B68002B02D0FB8A012B22
:104508006CD1FB681B6B1A88FB681B68DA60FB6858
:104518001B6B9A1CFB681A63FB68DB8E9BB2013B22
:104528009AB2FB68DA8659E0FB681B689B6803F05F
:104538000203022B1BD1FB68DB8E9BB2002B16D02B
:104548007B6A012B13D1FB681B6B1A88FB681B68FD
:10455800DA60FB681B6B9A1CFB681A63FB68DB8ECE
:104568009BB2013B9AB2FB68DA8600237B62FB6848
:104578001B689B6803F00103012B19D1FB68DB8FD3
:104588009BB2002B14D0FB681B68DA68FB689B6B36
:1045980092B21A80FB689B6B9A1CFB689A63FB6853
:1045A800DB8F9BB2013B9AB2FB68DA8701237B62FF
:1045B800FEF7EAFC02463B6AD31A3A6B9A420DD8D8
:1045C8003B6BB3F1FF3F09D0FB68012283F8512010
:1045D800FB68002283F850200323BCE0FB68DB8ED5
:1045E8009BB2002BA0D1FB68DB8F9BB2002B9BD129
:1045F80082E0FB685B68002B02D0FB8A012B71D13B
:10460800FB681A6BFB681B680C3312781A70FB681E
:104618001B6B5A1CFB681A63FB68DB8E9BB2013B61
:104628009AB2FB68DA865DE0FB681B689B6803F05A
:104638000203022B1CD1FB68DB8E9BB2002B17D028
:104648007B6A012B14D1FB681A6BFB681B680C335F
:1046580012781A70FB681B6B5A1CFB681A63FB689C
:10466800DB8E9BB2013B9AB2FB68DA8600237B6241
:10467800FB681B689B6803F00103012B19D1FB68D9
:10468800DB8F9BB2002B14D0FB681B68DA68FB68D1
:104698009B6BD2B21A70FB689B6B5A1CFB689A63BF
:1046A800FB68DB8F9BB2013B9AB2FB68DA87012378
:1046B8007B62FEF769FC02463B6AD31A3A6B9A4260
:1046C80003D83B6BB3F1FF3F02D13B6B002B09D101
:1046D800FB68012283F85120FB68002283F85020F0
:1046E800032338E0FB68DB8E9BB2002B9CD1FB6870
:1046F800DB8F9BB2002B97D13A6A396BF86800F0D0
:104708001DF90346002B08D0FB6820225A65FB6878
:10471800002283F8502001231DE0FB689B68002BD2
:104728000AD100233B61FB681B68DB683B61FB68BF
:104738001B689B683B613B69FB68012283F8512039
:10474800FB68002283F85020FB685B6D002B01D0CA
:10475800012300E0002318462837BD4680BD00002D
:1047680080B588B000AFF860B9603B601346FB7154
:10477800FEF70AFC0246BB6A9B1A3A681344FB61BF
:10478800FEF702FCB861394B1B685B011B0DFA6927
:1047980002FB03F37B6155E03B68B3F1FF3F51D067
:1047A800FEF7F2FB0246BB69D31AFA699A4202D9AC
:1047B800FB69002B3DD1FB681B685A68FB681B68C6
:1047C80022F0E0025A60FB685B68B3F5827F11D182
:1047D800FB689B68B3F5004F04D0FB689B68B3F592
:1047E800806F07D1FB681B681A68FB681B6822F09A
:1047F80040021A60FB689B6AB3F5005F0FD1FB6843
:104808001B681A68FB681B6822F400521A60FB6870
:104818001B681A68FB681B6842F400521A60FB6840
:10482800012283F85120FB68002283F850200323DB
:1048380018E07B69002B02D10023FB6102E07B6951
:10484800013B7B61FB681B689A68BB681340BA68C8
:104858009A420CBF01230023DBB21A46FB799A4225
:104868009AD1002318462037BD4680BD2400002079
:1048780080B586B002AFF860B9607A60FB685B68A3
:10488800B3F5827F11D1FB689B68B3F5004F04D064
:10489800FB689B68B3F5806F07D1FB681B681A68D3
:1048A800FB681B6822F040021A60FB685B68B3F57E
:1048B800827F2AD1FB689B68B3F5806F12D07B6832
:1048C8000093BB6800228021F868FFF749FF034680
:1048D800002B2DD0FB685B6D43F02002FB685A6506
:1048E800032326E07B680093BB6800220121F86857
:1048F800FFF736FF0346002B1AD0FB685B6D43F0C9
:104908002002FB685A65032313E07B680093BB68A9
:1049180000220121F868FFF723FF0346002B07D088
:10492800FB685B6D43F02002FB685A65032300E0D7
:10493800002318461037BD4680BD000080B588B0FA
:1049480002AFF860B9607A607B680093BB680122A7
:104958000221F868FFF704FF0346002B07D0FB6825
:104968005B6D43F02002FB685A65032332E01B4B62
:104978001B681B4AA2FB03235B0D4FF47A7202FBF0
:1049880003F37B61FB685B68B3F5827F12D17B68B8
:104998000093BB6800228021F868FFF7E1FE034618
:1049A800002B16D0FB685B6D43F02002FB685A654C
:1049B80003230FE07B69002B0AD07B69013B7B61F5
:1049C800FB681B689B6803F08003802BF2D000E033
:1049D80000BF002318461837BD4680BD24000020BC
:1049E800819F5E1680B584B000AFF860B9607A60C8
:1049F800FB68002B01D1012338E0FB6893F84930AC
:104A0800DBB2002B06D1FB68002283F84820F86847
:104A1800FDF7F6F8FB681A68FB6808331946104674
:104A280000F098FCFB681868FB689B681A46B96830
:104A380000F0FAFCFB685868FB689A68FB681B6B17
:104A4800796800F01FFDFB681B68FA68926853F8E4
:104A58002210FB681B68FA68926841F0010143F86C
:104A68002210FB68012283F84920002318461037DA
:104A7800BD4680BD80B582B000AF78607B68002BF2
:104A880001D1012341E07B6893F83D30DBB2002B74
:104A980006D17B68002283F83C207868FEF7A0F9ED
:104AA8007B68022283F83D207B681A687B680433A0
:104AB8001946104600F07EFA7B68012283F84620EA
:104AC8007B68012283F83E207B68012283F83F201F
:104AD8007B68012283F840207B68012283F841200B
:104AE8007B68012283F842207B68012283F84320F7
:104AF8007B68012283F844207B68012283F84520E3
:104B08007B68012283F83D20002318460837BD46FC
:104B180080BD000080B485B000AF78607B6893F8F2
:104B28003D30DBB2012B01D001234EE07B6802222D
:104B380083F83D207B681B68DA687B681B6842F055
:104B48000102DA607B681B68234A934222D07B68A3
:104B58001B68B3F1804F1DD07B681B681F4A9342C6
:104B680018D07B681B681E4A934213D07B681B6869
:104B78001C4A93420ED07B681B681B4A934209D09B
:104B88007B681B68194A934204D07B681B68184AE3
:104B9800934211D17B681B689B6803F00703FB6095
:104BA800FB68062B10D07B681B681A687B681B683B
:104BB80042F001021A6007E07B681B681A687B688C
:104BC8001B6842F001021A60002318461437BD46DC
:104BD8005DF8047B704700BF0000014000040040FE
:104BE80000080040000C0040000401400040014063
:104BF8000018004080B584B000AF78607B681B68FF
:104C0800DB68FB607B681B681B69BB60BB6803F0E3
:104C18000203002B20D0FB6803F00203002B1BD0FB
:104C28007B681B686FF002021A617B6801221A77A1
:104C38007B681B689B6903F00303002B03D078682B
:104C480000F099F905E0786800F08BF9786800F0D1
:104C58009CF97B6800221A77BB6803F00403002BD9
:104C680020D0FB6803F00403002B1BD07B681B6873
:104C78006FF004021A617B6802221A777B681B684E
:104C88009B6903F44073002B03D0786800F073F934
:104C980005E0786800F065F9786800F076F97B68D7
:104CA80000221A77BB6803F00803002B20D0FB68AA
:104CB80003F00803002B1BD07B681B686FF0080209
:104CC8001A617B6804221A777B681B68DB6903F02A
:104CD8000303002B03D0786800F04DF905E07868ED
:104CE80000F03FF9786800F050F97B6800221A77E5
:104CF800BB6803F01003002B20D0FB6803F01003FF
:104D0800002B1BD07B681B686FF010021A617B6850
:104D180008221A777B681B68DB6903F44073002B51
:104D280003D0786800F027F905E0786800F019F9F1
:104D3800786800F02AF97B6800221A77BB6803F0CC
:104D48000103002B0CD0FB6803F00103002B07D0F4
:104D58007B681B686FF001021A617868FDF71AFE1C
:104D6800BB6803F08003002B0CD0FB6803F08003C2
:104D7800002B07D07B681B686FF080021A61786887
:104D880000F0DEFABB6803F04003002B0CD0FB6890
:104D980003F04003002B07D07B681B686FF04002CC
:104DA8001A61786800F0FBF8BB6803F02003002B59
:104DB8000CD0FB6803F02003002B07D07B681B682E
:104DC8006FF020021A61786800F0B0FA00BF10375F
:104DD800BD4680BD80B584B000AF786039600023DF
:104DE800FB737B6893F83C30012B01D10223B4E0BC
:104DF8007B68012283F83C207B68022283F83D20EF
:104E08007B681B689B68BB60BB6823F07703BB604B
:104E1800BB6823F47F43BB607B681B68BA689A60F1
:104E28003B681B68B3F5005F3ED0B3F5005F00F246
:104E38008780B3F5805F00F08680B3F5805F7FD808
:104E4800702B1AD0702B7BD8602B50D0602B77D862
:104E5800502B3CD0502B73D8402B58D0402B6FD8B8
:104E6800302B64D0302B6BD8202B60D0202B67D808
:104E7800002B5CD0102B5AD062E07B6818683B6826
:104E880099683B685A683B68DB6800F0B3F97B684F
:104E98001B689B68BB60BB6843F07703BB607B689B
:104EA8001B68BA689A604FE07B6818683B68996825
:104EB8003B685A683B68DB6800F09CF97B681B68B4
:104EC8009A687B681B6842F480429A603CE07B6881
:104ED80018683B6859683B68DB681A4600F010F9A7
:104EE8007B681B685021184600F069F92CE07B6844
:104EF80018683B6859683B68DB681A4600F02FF968
:104F08007B681B686021184600F059F91CE07B6833
:104F180018683B6859683B68DB681A4600F0F0F887
:104F28007B681B684021184600F049F90CE07B6853
:104F38001A683B681B681946104600F040F903E000
:104F48000123FB7300E000BF7B68012283F83D204A
:104F58007B68002283F83C20FB7B18461037BD464F
:104F680080BD80B483B000AF786000BF0C37BD4609
:104F78005DF8047B704780B483B000AF786000BFF1
:104F88000C37BD465DF8047B704780B483B000AF32
:104F9800786000BF0C37BD465DF8047B704780B46D
:104FA80083B000AF786000BF0C37BD465DF8047B66
:104FB8007047000080B485B000AF786039607B68C6
:104FC8001B68FB607B68434A934213D07B68B3F14C
:104FD800804F0FD07B68404A93420BD07B683F4A92
:104FE800934207D07B683E4A934203D07B683D4A90
:104FF800934208D1FB6823F07003FB603B685B6851
:10500800FA681343FB607B68324A93422BD07B6873
:10501800B3F1804F27D07B682F4A934223D07B6817
:105028002E4A93421FD07B682D4A93421BD07B683F
:105038002C4A934217D07B682B4A934213D07B6843
:105048002A4A93420FD07B68294A93420BD07B6847
:10505800284A934207D07B68274A934203D07B684B
:10506800264A934208D1FB6823F44073FB603B68EF
:10507800DB68FA681343FB60FB6823F080023B6837
:105088005B691343FB603B689A687B68DA623B683C
:105098001A687B689A627B680E4A934203D07B68E1
:1050A800104A934203D13B681A697B681A637B688C
:1050B8001B6843F004027B681A607B6801225A610E
:1050C8007B68FA681A6000BF1437BD465DF8047B38
:1050D800704700BF00000140000400400008004085
:1050E800000C004000040140004001400044014021
:1050F8000048014000180040001C0040002000400B
:1051080080B487B000AFF860B9607A60FB681B6A4A
:105118007B61FB681B6A23F00102FB681A62FB686B
:105128009B693B613B6923F0F0033B617B681B0192
:105138003A6913433B617B6923F00A037B617A690F
:10514800BB6813437B61FB683A699A61FB687A69BB
:105158001A6200BF1C37BD465DF8047B704780B4F7
:1051680087B000AFF860B9607A60FB681B6A7B6142
:10517800FB681B6A23F01002FB681A62FB689B69D4
:105188003B613B6923F470433B617B681B033A69CD
:1051980013433B617B6923F0A0037B61BB681B0160
:1051A8007A6913437B61FB683A699A61FB687A699B
:1051B8001A6200BF1C37BD465DF8047B704780B497
:1051C80085B000AF786039607B689B68FB60FB68DE
:1051D80023F07003FB603A68FB68134343F007034E
:1051E800FB607B68FA689A6000BF1437BD465DF8BB
:1051F800047B704780B487B000AFF860B9607A600C
:105208003B60FB689B687B617B6923F47F437B6120
:105218003B681A027B681A43BB6813437A691343D5
:105228007B61FB687A699A6000BF1C37BD465DF8F0
:10523800047B704780B485B000AF786039607B68C4
:1052480093F83C30012B01D102235AE07B680122FC
:1052580083F83C207B68022283F83D207B681B682A
:105268005B68FB607B681B689B68BB60FB6823F01E
:105278007003FB603B681B68FA681343FB607B683C
:105288001B68FA685A607B681B68214A934222D0DF
:105298007B681B68B3F1804F1DD07B681B681D4A73
:1052A800934218D07B681B681B4A934213D07B68D3
:1052B8001B681A4A93420ED07B681B68184A9342AF
:1052C80009D07B681B68174A934204D07B681B6827
:1052D800154A93420CD1BB6823F08003BB603B683E
:1052E8005B68BA681343BB607B681B68BA689A60DE
:1052F8007B68012283F83D207B68002283F83C20EC
:10530800002318461437BD465DF8047B704700BF7C
:10531800000001400004004000080040000C00406C
:1053280000040140004001400018004080B483B0F0
:1053380000AF786000BF0C37BD465DF8047B70474E
:1053480080B483B000AF786000BF0C37BD465DF80D
:10535800047B704780B487B000AF786039603B68E1
:105368001A687B6853F822303A68126823F0010102
:105378007B6843F822103B689B68082B02D14023C6
:105388007B6101E000237B613B685A687B691A43B3
:105398003B689B681A433B68DB681A433B681B6998
:1053A8001A433B685B691A433B68DB691A433B68ED
:1053B8001B6A1A433B685B6A1A433B689B6A1A4339
:1053C8003B68DB6A1A433B681B6B13433B613B68D2
:1053D8009B693A6913433B613B68DB6B3A6913434A
:1053E8003B61104BFB60FB6843F48063FB60FB6828
:1053F80043F4E023FB603B681A687B6853F822207B
:10540800FB68DB4302EA03013B681A683B691943FE
:105418007B6843F82210002318461C37BD465DF808
:10542800047B70477FFB080080B485B000AFF8604C
:10543800B9607A60BB681A68BB685B681B011A436D
:10544800BB689B681B021A43BB68DB681B041A43D2
:10545800BB681B69013B1B051A43BB685B69023BC0
:105468001B0642EA0301BB689B697A68013219434B
:10547800FB6843F82210002318461437BD465DF830
:10548800047B704780B485B000AFF860B9607A607B
:105498003B603B68B3F5804F1DD1FB687A6853F8D1
:1054A8002220134B1340BA681168BA685268120177
:1054B8001143BA68926812021143BA68926911439B
:1054C800BA68D26812040A4343EA0201FB687A68A0
:1054D80043F8221005E0FB687A686FF0704143F8E2
:1054E8002210002318461437BD465DF8047B704728
:1054F8000000F0CF02440346934200D1704703F8FE
:10550800011BF9E770B50D4D0D4C641BA410002666
:10551800A64209D10B4D0C4C00F018F8641BA410DE
:105528000026A64205D170BD55F8043B98470136C0
:10553800EEE755F8043B98470136F2E72C63030879
:105548002C6303082C63030830630308F8B500BF15
:10555800F8BC08BC9E467047F8B500BFF8BC08BC4C
:045568009E467047A4
:10556C0049444C45000000005245434549564520EE
:10557C0050415353574F5244204E554D42455200C3
:10558C00524543454956452050415353574F524479
:10559C0020434841524143544552000050524F431E
:1055AC0045535320414E4420434F4E54524F4C00D0
:1055BC00554E4C4F434B20444F4F5200444F4F528B
:1055CC00204F50454E000000444F4F5220434C4F4B
:1055DC0053450000414C4552542120444F4F52201A
:1055EC004E4F5420434C4F53454400004C4F434BBB
:1055FC00494E4720444F4F52000000004348414E53
:10560C0047452050415353574F524400454E544543
:10561C0052204F4C442050415353574F524400009A
:10562C0050415353574F524420434F5252454354C9
:10563C000000000050415353574F524420494E43F1
:10564C004F525245435400004C4F434B45440000CD
:10565C0054525920414741494E204C415445520027
:10566C00454E544552204E45572050415353574FA9
:10567C005244000034204449474954530000000070
:10568C004F4C442050415353574F52442057524F84
:10569C004E470000454E544552204F4C442050413B
:1056AC005353574F524420414741494E000000008C
:1056BC0050415353574F5244205550444154454444
:1056CC0000000000535543455353000000000000F8
:1056DC0000000000000000000000000000000008B6
:1056EC0008080808080800001818000000486C2476
:1056FC001200000000000000000000000000002468
:10570C0024247F1212127F12121200000000081CB7
:10571C002A2A0A0C1828282A2A1C08080000002209
:10572C00251515152A585454542200000000000C5D
:10573C001212120A76252911916E00000006060439
:10574C0003000000000000000000000000402010DA
:10575C00100808080808081010204000000204086F
:10576C0008101010101010080804020000000000AF
:10577C0008086B1C1C6B08080000000000000000EF
:10578C00080808087F08080808000000000000004E
:10579C0000000000000000000606040300000000EA
:1057AC0000000000FE0000000000000000000000EF
:1057BC000000000000000000060600000000804011
:1057CC0040202010100808040402020000000018F9
:1057DC002442424242424242241800000000000887
:1057EC000E08080808080808083E00000000003CE5
:1057FC004242422020100804427E00000000003C7F
:10580C004242201820404042221C00000000002090
:10581C003028242422227E20207800000000007EE4
:10582C000202021A26404042221C000000000038EE
:10583C002402021A26424242241800000000007E74
:10584C002222101008080808080800000000003C7C
:10585C004242422418244242423C000000000018FC
:10586C002442424264584040241C000000000000C6
:10587C0000001818000000001818000000000000BC
:10588C0000000008000000000008080400000040B0
:10589C002010080402040810204000000000000042
:1058AC0000007F0000007F000000000000000002EC
:1058BC000408102040201008040200000000003CE6
:1058CC004242464020101000181800000000001C36
:1058DC00225A555555552D42221C00000000000837
:1058EC0008181414243C224242E700000000001F58
:1058FC002222221E22424242221F00000000007C73
:10590C004242010101010142221C00000000001F63
:10591C002242424242424242221F00000000003F0B
:10592C004212121E12120242423F00000000003FBF
:10593C004212121E12120202020700000000003C6A
:10594C002222010101712122221C0000000000E72B
:10595C00424242427E42424242E700000000003E88
:10596C000808080808080808083E00000000007C29
:10597C0010101010101010101010110F00000077E4
:10598C0022120A0E0A1212222277000000000007CF
:10599C000202020202020202427F000000000077B3
:1059AC00363636362A2A2A2A2A6B0000000000E3F3
:1059BC0046464A4A52525262624700000000001C9E
:1059CC002241414141414141221C00000000003F65
:1059DC00424242423E020202020700000000001C4A
:1059EC002241414141414D53321C60000000003FB7
:1059FC004242423E1212222242C700000000007CAA
:105A0C004242020418204042423E00000000007F47
:105A1C004908080808080808081C0000000000E7EE
:105A2C004242424242424242423C0000000000E7F5
:105A3C004242222424141418080800000000006BB1
:105A4C00494949495555362222220000000000E7F9
:105A5C00422424181818242442E700000000007780
:105A6C002222141408080808081C00000000007EFC
:105A7C002120101008040442423F0000007808085E
:105A8C00080808080808080808087800000002023E
:105A9C00040408080810102020204040001E10109C
:105AAC00101010101010101010101E0000384400B0
:105ABC0000000000000000000000000000000000DA
:105ACC000000000000000000000000FF00060800BD
