:020000040800F2
:100000000000022005050008ED370008F53700085C
:10001000FD370008053800080D3800080000000012
:10002000000000000000000000000000153800087B
:100030002338000800000000313800083F3800086D
:100040005505000855050008550500085505000828
:100050005505000855050008550500085505000818
:100060005505000855050008550500085505000808
:1000700055050008550500085505000855050008F8
:1000800055050008550500085505000855050008E8
:1000900055050008550500085505000855050008D8
:1000A00055050008550500085505000855050008C8
:1000B0004D3800085505000861380008550500084E
:1000C00055050008550500085505000855050008A8
:1000D0005505000855050008550500085505000898
:1000E0005505000855050008550500085505000888
:1000F0007538000855050008550500085505000825
:100100005505000855050008550500085505000867
:100110005505000855050008550500085505000857
:100120005505000855050008550500085505000847
:100130005505000855050008550500085505000837
:100140005505000855050008550500085505000827
:100150005505000855050008550500085505000817
:100160005505000855050008550500085505000807
:100170005505000855050008550500080000000059
:080180005505000855050008B3
:1001880010B5054C237833B9044B13B10448AFF3C9
:1001980000800123237010BD300000200000000003
:1001A800CC6A000808B5034B1BB103490348AFF3F9
:1001B800008008BD0000000034000020CC6A000860
:1001C800034613F8012B002AFBD1181A013870478F
:1001D80053B94AB9002908BF00281CBF4FF0FF31A6
:1001E8004FF0FF3000F088B9ADF1080C6DE904CE8E
:1001F80000F006F8DDF804E0DDE9022304B07047FA
:100208002DE9F047089D8E4604468846002B4AD1C2
:100218008A42174662D9B2FA82F64EB1C6F1200375
:1002280001FA06F820FA03F3B74043EA0808B44095
:100238004FEA174E1FFA87FCB8FBFEF1230C0EFBA2
:10024800118843EA084301FB0CF29A4209D9FB18CA
:1002580001F1FF3080F0EA809A4240F2E7800239EB
:100268003B449A1AA3B2B2FBFEF00EFB102243EAFB
:10027800024300FB0CFC9C4509D9FB1800F1FF3236
:1002880080F0D6809C4540F2D3803B44023840EA57
:100298000140A3EB0C0300211DB1F3400022C5E986
:1002A8000032BDE8F0878B4205D90DB1C5E90001E0
:1002B80000210846F5E7B3FA83F1002946D17345D2
:1002C80002D3824200F20581841A6EEB03020120F8
:1002D8009046002DE5D0C5E90048E2E7002A00F085
:1002E8009080B2FA82F6002E40F0A4808A1A030C9D
:1002F8004FEA174E80B2BCB20121B2FBFEFC0EFBE6
:100308001C2243EA024304FB0CF29A4207D9FB1869
:100318000CF1FF3802D29A4200F2E080C4469B1AE0
:10032800B3FBFEF20EFB123340EA034302FB04F474
:100338009C4207D9FB1802F1FF3002D29C4200F21E
:10034800CA8002461B1B42EA0C40A5E7C1F1200601
:100358008B4022FA06F71F430EFA01F420FA06F33F
:100368002EFA06FE4FEA1749234300FA01F81FFA4E
:1003780087FCBEFBF9F01C0C09FB10EE44EA0E44A6
:1003880000FB0CFEA64502FA01F209D93C1900F15E
:10039800FF3A80F09C80A64540F2998002383C44A0
:1003A800A4EB0E041FFA83FEB4FBF9F309FB134414
:1003B8004EEA044403FB0CFCA44508D93C1903F19C
:1003C800FF3E80F08280A4457FD9023B3C4443EA4B
:1003D8000040A4EB0C04A0FB02EC64457346E14624
:1003E80062D35FD05DB1B8EB030264EB090404FA91
:1003F80006F622FA01F31E43CC40C5E90064002149
:100408004FE7B1FBF2FC010C41EA0E4180B240EA31
:1004180001423B4638463C46B846BE462026B1FB1C
:10042800F7F1A2EB080241EA0C4166E7014618E73A
:1004380010462CE7C6F120022EFA02F3B740B1406D
:1004480020FA02F24FEA174E0A43B3FBFEF8BCB299
:100458000EFB1833110C41EA034108FB04F9B040C4
:1004680089454FEA104380B23ED9791808F1FF3C1C
:1004780001D289451FD8A1EB0901B1FBFEF909FB9F
:1004880004F80EFB191192B242EA0142424529D200
:10049800BA1809F1FF31C4D24245C2D2A9F102010A
:1004A8003A44BEE7F0459DD2BEEB02036CEB070C65
:1004B8000138E14696E7A7EB09094944A8F1020C7F
:1004C800B1FBFEF909FB04F8DBE773467FE750460A
:1004D80066E70846FDE63B44023A33E7ACF1020C16
:1004E8003B441CE749469CE7A1EB0901C446B1FB24
:1004F800FEF909FB04F8C4E7704700BFDFF834D001
:1005080003F0BEF90C480D490D4A002302E0D45807
:10051800C4500433C4188C42F9D30A4A0A4C002345
:1005280001E013600432A242FBD306F0A7FA02F0FE
:100538006DFF7047000002200000002030000020FE
:10054800086303083000002044020020FEE7000092
:1005580080B500AF01220821024803F06BFE00BFFE
:1005680080BD00BF000C024080B584B000AF0022FF
:1005780008212F4803F05EFE012208212C4803F0D1
:1005880059FE0A2302222B492B4804F0B8FC002309
:10059800FB604FF400437B8100237B603FE07B6876
:1005A800002B06DB7B68032B03DC7B680433FB60D2
:1005B80018E07B68032B07DD7B68072B04DC7B686E
:1005C800C3F10703FB600DE07B68072B06DD7B6842
:1005D8000B2B03DC7B680433FB6003E07B68C3F10F
:1005E8001703FB60134B1A887B8913409BB2002BBF
:1005F80005D0124AFB68002122F8131009E00F4ABF
:10060800FB6832F81330013399B20C4AFB6822F8C0
:1006180013107B895B087B817B6801337B607B6877
:100628000F2BBCDD00BF00BF1037BD4680BD00BF2B
:10063800000C02406C000020100100204C0000203B
:1006480080B500AF044B1B6800225A6300210248A2
:1006580005F0BCF900BF80BDF801002080B483B06C
:1006680000AF0346FB71FB79632B01D96323FB7150
:10067800044B1B68FA795A6300BF0C37BD465DF816
:10068800047B7047F801002080B500AF00210248C4
:1006980005F064FA00BF80BDF801002080B500AF06
:1006A8002A4B1B780D2B4ED801A252F823F000BF1D
:1006B800F106000801070008070700080D070008F1
:1006C80013070008190700081F0700082507000876
:1006D8002B07000831070008370700084307000800
:1006E800490700083D07000800F0DAFA00F0AAF808
:1006F800164B01221A7027E000F0DAFA24E000F025
:10070800FBFB21E000F0D0FC1EE000F003FE1BE044
:1007180000F072FF18E000F0ABFF15E000F0DEFF1C
:1007280012E001F001F80FE001F03EF80CE000F0F3
:1007380061FE09E000F020FF06E001F011FA03E095
:1007480001F066FC00E000BF00BF80BD6E00002025
:1007580080B582B000AF0C4B00221A7000237B607A
:100768000AE00A4A7B68134400221A70786802F08B
:1007780035FE7B6801337B607B68032BF1DD00BFAE
:1007880000BF0837BD4680BD6F0000207000002004
:1007980080B485B000AF78600023FB6022E0164A81
:1007A800FB6832F81330002B14BF01230023DBB29F
:1007B800FB72FB7A002B07D0104AFB6813441B78A6
:1007C800002B01D1012100E00021FB687A68134465
:1007D800CAB21A70094AFB681344FA7A1A70FB689D
:1007E8000133FB60FB680F2BD9DD00BF00BF143756
:1007F800BD465DF8047B70474C0000207400002063
:1008080080B483B000AF0023FB710CE0FB790B4A86
:10081800D25CFB790A49CB5C9A4201D0002306E0FE
:10082800FB790133FB71FB79032BEFD901231846C0
:100838000C37BD465DF8047B704700BF04000020FC
:100848007000002080B584B004AF00230093142307
:10085800F0220021002002F0C3F800230093AA230D
:10086800F0229621002002F0BBF800230093AC236D
:10087800F0221421002002F0B3F800230293102381
:1008880001930023009347F67C53134A002100206C
:1008980002F09CFC114B0093782348221E2154201F
:1008A80002F056FA0E4B00939423F022AC2100205C
:1008B80002F04EFA0B4B00931E231E224B21C3203D
:1008C80002F046FA084B14221A70084B01221A70DB
:1008D80000BFBD4680BD00BFE46A000850B10108F2
:1008E800D09B0008500A03080000002008000020E0
:1008F80080B584B004AF002300931423F0220021B4
:10090800002002F06DF800230293102301930023C6
:10091800009347F67C530C4A0021002002F056FC55
:100928000A4B0093782348221E21542002F010FA23
:10093800074B00939423F022AC21002002F008FA20
:1009480000BFBD4680BD00BFEC6A000850B1010879
:10095800D09B000880B584B004AF00230093142313
:10096800F0220021002002F03BF80023029310231C
:1009780001930023009347F67C530C4A0021002082
:1009880002F024FC0A4B0093782348221E215420AD
:1009980002F0DEF9074B00939423F022AC210020EB
:1009A80002F0D6F900BFBD4680BD00BF046B000849
:1009B80050B10108D0F4010880B584B004AF002319
:1009C80000931423F0220021002002F009F80023EC
:1009D8000293102301930023009347F67C530C4A9B
:1009E8000021002002F0F2FB0A4B00931E231E2276
:1009F8004B21C32002F0ACF9074B04221A704FF4C4
:100A08007A71002002F0E6FD00BFBD4680BD00BF40
:100A1800206B0008500A03086E00002080B584B0DF
:100A280004AF002300931423F0220021002001F0DA
:100A3800D7FF002300939923B1221E21542001F0EF
:100A4800CFFF00230293102301930023009347F65E
:100A58007C530C4A0021002002F0B8FB0A4B00939B
:100A68001E231E224B21C32002F072F9074B00936C
:100A7800782348221E21542002F06AF900BFBD469F
:100A880080BD00BF346B00085811030850B101083D
:100A980080B584B004AF002300931423F022002112
:100AA800002001F09DFF002300939923B1221E210D
:100AB800542001F095FF00230093AA23F0229621E9
:100AC800002001F08DFF00230293102301930023DF
:100AD800009347F67C530C4A0021002002F076FB75
:100AE8000A4B00931E231E224B21C32002F030F92B
:100AF800074B0093782348221E21542002F028F93E
:100B080000BFBD4680BD00BF406B000858110308F8
:100B18006018030880B584B004AF00230093142341
:100B2800F0220021002001F05BFF002300939923AD
:100B3800B1221E21542001F053FF002300936923A2
:100B48003C224B211E2001F04BFF0023029310236F
:100B580001930023009347F67C530C4A00210020A0
:100B680002F034FB0A4B00931E231E224B21C320A4
:100B780002F0EEF8074B0093782348221E215420F8
:100B880002F0E6F800BFBD4680BD00BF4C6B000810
:100B98005811030850B1010880B584B004AF002390
:100BA80000931423F0220021002001F019FF0023F4
:100BB80000939923B1221E21542001F011FF002334
:100BC800029310230193002300934FF47843134AB0
:100BD8000021002002F0FAFA114B00931E231E2276
:100BE8004B211E2002F0B4F80E4B00931E231E2248
:100BF8004B21C32002F0ACF80B4B0093782348221A
:100C08001E21542002F0A4F84FF4FA71042002F0D7
:100C1800E1FCFFF715FD00BFBD4680BD586B00081D
:100C2800E05B0308581103086018030880B584B016
:100C380004AF002300931423F0220021002001F0C8
:100C4800CFFE002300939923B1221E21542001F0E6
:100C5800C7FE00230293102301930023009347F655
:100C68007C530C4A0021002002F0B0FA0A4B009392
:100C78001E231E224B21C32002F06AF8074B009363
:100C8800782348221E21542002F062F800BFBD4696
:100C980080BD00BF706B0008500A030850B10108FE
:100CA80080B400AF00BFBD465DF8047B704700000C
:100CB80080B58AB002AF8A4B1B78142B08D1894BB8
:100CC80000939423F022AC21002002F041F807E0C1
:100CD800854B00939423F022AC21002002F038F8D1
:100CE800002002F093FC0346002B00F0F4803B4602
:100CF8001846FFF74DFDBB7B002B09D000F0BEFD69
:100D08007A4B0B221A706421002002F063FCE3E0A6
:100D18003B7B002B0DD0724B1B78142B01D1152275
:100D280000E014226E4B1A706421002002F052FC7D
:100D3800D2E06B4B1B78142B70D14FF0FF33FB6163
:100D48007B7B012B02D10023FB6134E03B78012B34
:100D580002D10123FB612EE07B78012B02D1022313
:100D6800FB6128E0BB78012B02D10323FB6122E061
:100D78003B79012B02D10423FB611CE07B79012B19
:100D880002D10523FB6116E0BB79012B02D10623B2
:100D9800FB6110E03B7A012B02D10723FB610AE0DB
:100DA8007B7A012B02D10823FB6104E0BB7A012B7B
:100DB80001D10923FB61FB69002BC0F28780FFF793
:100DC80097FD4B4B00221A700023BB610AE0494A89
:100DD800BB69134400221A70B86902F0FFFABB69B4
:100DE8000133BB61BB69032BF1DDFB69DAB2414B0F
:100DF8001A7000220021F86902F0B4FA3C4B012273
:100E08001A703A4B02221A706421002002F0E2FBA9
:100E180043F69821022002F0DDFB5DE04FF0FF333E
:100E28007B613B78012B02D10A237B611CE07B7834
:100E3800012B02D10B237B6116E0BB78012B02D179
:100E48000C237B6110E03B79012B02D10D237B61E0
:100E58000AE07B79012B02D10E237B6104E0BB7988
:100E6800012B01D10F237B617B69002B2EDBFFF760
:100E780071FD1F4B00221A7000233B610AE01D4AD6
:100E88003B69134400221A70386902F0A7FA3B69DB
:100E980001333B613B69032BF1DD7B69DAB2154B0A
:100EA8001A7000220021786902F05CFA104B0122C6
:100EB8001A700E4B03221A700A21002002F08AFBD6
:100EC80043F69821022002F085FB05E0642100200A
:100ED80002F080FB00E000BF2037BD4680BD00BFA8
:100EE80000000020D09B0008D0F401086E0000200C
:100EF8006F0000207000002080B586B000AF02208F
:100F080002F084FB0346002B07D0FFF721FCFFF714
:100F180099FC614B01221A70BBE0002002F076FBBD
:100F28000346002B00F0B4803B461846FFF730FC20
:100F38003B7B002B11D0FFF70DFD584B15221A7083
:100F4800554B03221A706421002002F043FB43F63C
:100F58009821022002F03EFB9BE00023FB754FF036
:100F6800FF333B617B7B012B02D100233B6134E0E3
:100F78003B78012B02D101233B612EE07B78012BCA
:100F880002D102233B6128E0BB78012B02D1032365
:100F98003B6122E03B79012B02D104233B611CE039
:100FA8007B79012B02D105233B6116E0BB79012B2C
:100FB80002D106233B6110E03B7A012B02D10723C3
:100FC8003B610AE07B7A012B02D108233B6104E0F4
:100FD800BB7A012B01D109233B613B69002B19DB4B
:100FE8002F4B1B78032B13D82D4B1B781A463B69C4
:100FF800D9B22C4B99542A4B1B78002219463869D0
:1010080002F0B0F9264B1B780133DAB2244B1A7080
:101018000123FB75FB78002B19D0FB7D002B16D123
:101028001F4B1B78002B10D01D4B1B78013BDAB2ED
:101038001B4B1A701A4B1B781A461A4B00219954ED
:10104800174B1B78184602F0C9F90123FB75FB7D85
:10105800002B06D1FB79002B03D0FFF779FB012386
:10106800FB75FB7D002B04D043F69821022002F08B
:10107800B1FA0B4B1B78032B05D9FFF79DFC064BE8
:1010880004221A7005E06421002002F0A3FA00E0AF
:1010980000BF1837BD4680BD6E000020000000204C
:1010A8006F0000207000002080B586B000AF0220DD
:1010B80002F0ACFA0346002B07D0FFF749FBFFF715
:1010C800C1FB554B01221A70A3E0002002F09EFAE2
:1010D8000346002B00F09C803B461846FFF758FB60
:1010E8003B7B002B11D0FFF703FC4C4B14221A70EA
:1010F800494B02221A706421002002F06BFA43F671
:101108009821022002F066FA83E00023FB754FF075
:10111800FF333B613B78012B02D10A233B611CE082
:101128007B78012B02D10B233B6116E0BB78012BA6
:1011380002D10C233B6110E03B79012B02D10D2336
:101148003B610AE07B79012B02D10E233B6104E06D
:10115800BB79012B01D10F233B613B69002B19DBC4
:101168002F4B1B78032B13D82D4B1B781A463B6942
:10117800D9B22C4B99542A4B1B780022194638694E
:1011880002F0F0F8264B1B780133DAB2244B1A70C0
:101198000123FB75FB78002B19D0FB7D002B16D0A3
:1011A8001F4B1B78002B10D01D4B1B78013BDAB26C
:1011B8001B4B1A701A4B1B781A461A4B002199546C
:1011C800174B1B78184602F009F90123FB75FB7DC4
:1011D800002B06D1FB79002B03D0FFF7B9FA0123C6
:1011E800FB75FB7D002B04D043F69821022002F00A
:1011F800F1F90B4B1B78032B05D9FFF7DDFB064BE9
:1012080004221A7005E06421002002F0E3F900E0EE
:1012180000BF1837BD4680BD6E00002000000020CA
:101228006F0000207000002080B586B000AF034634
:10123800FB80FA88364BA3FB0213D9080B469B00A8
:101248000B445B00D31A9BB27B61FB88304AA2FB3C
:101258000323DB08FB80FA882D4BA3FB0213D90874
:101268000B469B000B445B00D31A9BB23B61FB8887
:10127800274AA2FB0323DB08FB80FA88244BA3FB45
:101288000213D9080B469B000B445B00D31A9BB290
:10129800FB60FB881E4AA2FB0323DB08FB80FB885C
:1012A800BB60BB68002B05DD00220021B86802F096
:1012B80059F802E0002002F091F8BB68002B02DC2C
:1012C800FB68002B05DD00220121F86802F04AF8CE
:1012D80002E0012002F082F8BB68002B05DCFB6805
:1012E800002B02DC3B69002B05DD00220221386956
:1012F80002F038F802E0022002F070F80022032120
:10130800786902F02FF800BF1837BD4680BD00BFCE
:10131800CDCCCCCC80B584B004AF002002F076F9F7
:101328000346002B58D0FFF76BFA0346002B2FD04B
:10133800002300931423F0229621002001F050FB93
:101348000023029310230193002300934FF4FC63BE
:10135800234A9621002001F039FF224B00221A70FF
:10136800214B00221A7040F2DC51002002F032F9C1
:101378001E4B05221A70FFF751FB42F21071042030
:1013880002F028F947F23051032002F023F924E053
:10139800002300931423F0229621002001F020FB63
:1013A8000023029310230193002300934FF4784302
:1013B8000F4A9621002001F009FF0A4B1B780133E0
:1013C800DAB2084B1A7040F2DC51002002F002F940
:1013D800064B0A221A7000E000BFBD4680BD00BF60
:1013E800806B000884000020850000206E0000202B
:1013F800946B000880B582B000AF002002F006F9B7
:101408000346002B5BD0304B1B78022B1FD9FFF70C
:101418009FF9FFF717FA2D4B01221A704EF6602339
:101428003B602B4B1B781A463B6893403B603868FF
:1014380000F052F8254B0D221A70254B1B7801330A
:10144800DAB2234B1A70204B00221A7038E01E4B78
:101458001B78002B0DD01C4B1B78022B09D800F0F1
:101468009DFA1A4B0B221A706421002002F0B2F880
:1014780026E0184B1B78022B15D94EF660237B60AB
:10148800134B1B781A467B6893407B60786800F0A2
:1014980023F80E4B0D221A700D4B1B780133DAB26C
:1014A8000B4B1A700CE0FFF753F9FFF7CBF9074B1A
:1014B80001221A706421002002F08CF800E000BFBD
:1014C8000837BD4680BD00BF9D0000206E0000208B
:1014D800850000208400002080B588B004AF7860C3
:1014E800214A7B681360204B1B6803F2E7331F4ACD
:1014F800A2FB03239B09FB81FB891846FFF794FE97
:10150800002300931423F0220021002001F068FA40
:1015180000230093AA23F0229621002001F060FA0C
:101528000023029310230193002300934FF4784380
:101538000F4A0021002001F049FE002302931023E6
:101548000193002300934FF6E0730A4A9621002086
:1015580001F03CFE4FF47A71002002F03BF800BF26
:101568001037BD4680BD00BF88000020D34D6210F3
:10157800A86B0008B06B000880B582B000AF0020EF
:1015880002F044F80346002B2CD0184B1B68B3F527
:101598007A7F18D3154B1B68A3F57A73134A136027
:1015A800124B1B6803F2E733114AA2FB03239B0982
:1015B800FB80FB881846FFF737FE4FF47A7100204E
:1015C80002F008F80FE0094B00221A60FFF7C0F894
:1015D800FFF738F9074B01221A706421002001F047
:1015E800F9FF00E000BF0837BD4680BD8800002035
:1015F800D34D62106E00002080B584B000AF00208B
:1016080002F004F80346002B2BD03B461846FFF7A0
:10161800BFF8FB7B002B0ED0FFF73AFA134B0622DC
:101628001A7047F23051032001F0D4FF64210020E2
:1016380001F0D0FF16E0042001F0E8FF0346002B7C
:101648000AD0FFF7F3FA094B09221A704FF4FA612E
:10165800002001F0BFFF05E06421002001F0BAFF7F
:1016680000E000BF1037BD4680BD00BF6E000020FF
:1016780080B584B000AF002001F0C8FF0346002BFE
:1016880025D03B461846FFF783F8FB7B002B09D093
:10169800FFF740FA104B07221A706421002001F06E
:1016A80099FF15E0032001F0B1FF0346002B09D094
:1016B800FFF772FA084B08221A706421002001F023
:1016C80089FF05E06421002001F084FF00E000BFED
:1016D8001037BD4680BD00BF6E00002080B584B0C5
:1016E80000AF002001F092FF0346002B16D03B46C6
:1016F8001846FFF74DF8FB7A002B0AD0FFF796FA49
:10170800084B09221A704FF4FA61002001F062FFB9
:1017180005E06421002001F05DFF00E000BF103704
:10172800BD4680BD6E00002080B584B000AF0020AB
:1017380001F06CFF0346002B2ED03B461846FFF7FE
:1017480027F8042001F062FF0346002B08D020216F
:10175800134802F088FD4FF4FA71042001F03AFFB3
:101768003220FEF77BFFFB7B002B10D0FEF78CFFAF
:10177800FFF7D0F90B4B07221A706421002001F003
:1017880029FF00222021064802F054FD05E06421CB
:10179800002001F01FFF00E000BF1037BD4680BDEC
:1017A800001002406E00002080B500AF002001F05C
:1017B8002DFF0346002B0BD0FEF7CAFFFFF742F8B8
:1017C800044B01221A706421002001F003FF00E09D
:1017D80000BF80BD6E00002080B483B000AF786089
:1017E8007B681B78002B01D0012340E07B68013324
:1017F8001B78002B01D0022339E07B6802331B7869
:10180800002B01D0032332E07B6804331B78002BC4
:1018180001D004232BE07B6805331B78002B01D013
:10182800052324E07B6806331B78002B01D00623B0
:101838001DE07B6808331B78002B01D0072316E0D6
:101848007B6809331B78002B01D008230FE07B68E5
:101858000A331B78002B01D0092308E07B680D337D
:101868001B78002B01D0002301E04FF0FF3318460E
:101878000C37BD465DF8047B7047000080B586B024
:1018880004AF002300931423F0220021002001F06C
:10189800A7F800230293102301930023009347F62F
:1018A8007C53324A0021002001F090FC0023009371
:1018B800AC23F0221421002001F092F800230293B7
:1018C800102301930023009347F67C53284A3221C2
:1018D800142001F017FC0023029310230193002326
:1018E800009347F67C53234A5021142001F00AFC48
:1018F80000230293102301930023009347F67C539F
:101908001D4A6E21142001F0FDFB1C4B009394230B
:10191800F022AC21002001F01BFA194B00221A70AA
:10192800184B00221A70184B00221A7000237B6093
:1019380011E0164A7B68134400221A70144A7B6827
:10194800134400221A70134A7B68134400221A7049
:101958007B6801337B607B68032BEADD0E4B142226
:101968001A7000BF0837BD4680BD00BFC06B0008B5
:10197800D06B0008E06B0008F06B0008D09B0008F3
:101988008C0000209C0000209D000020900000207A
:1019980094000020980000200000002080B586B048
:1019A80004AF002300931423F0220021002001F04B
:1019B80017F800230293102301930023009347F69E
:1019C8007C53304A0021002001F000FC00230093E2
:1019D800AC23F0221421002001F002F80023029326
:1019E800102301930023009347F67C53264A3221A3
:1019F800142001F087FB0023029310230193002396
:101A0800009347F67C53214A5021142001F07AFBB9
:101A180000230293102301930023009347F67C537D
:101A28001B4A6E21142001F06DFB1A4B009394237E
:101A3800F022AC21002001F08BF9174B00221A701C
:101A4800164B00221A7000237B6011E0144A7B6851
:101A5800134400221A70134A7B68134400221A7038
:101A6800114A7B68134400221A707B6801337B603B
:101A78007B68032BEADD0D4B14221A7000BF083770
:101A8800BD4680BDC06B0008D06B0008E06B000845
:101A9800F06B0008D09B00088C0000209C00002000
:101AA80090000020940000209800002000000020F2
:101AB80080B584B004AF002300931423F0220021E2
:101AC800002000F08DFF00230293102301930023D0
:101AD800009347F67C53094A0021002001F076FB69
:101AE800074B00939423F022AC21002001F030F939
:101AF800044B14221A7000BFBD4680BDC06B00089D
:101B0800D09B00080000002080B584B004AF0023FB
:101B180000931423F0220021002000F061FF00232D
:101B28000293102301930023009347F67C53094A3C
:101B38000021002001F04AFB074B00939423F02278
:101B4800AC21002001F004F9044B15221A7000BFE3
:101B5800BD4680BDC06B0008D0F40108000000201D
:101B680090B593B004AF002001F050FD0346002B60
:101B780000F032823B461846FEF70AFEBB7B002B7C
:101B88000BD0FEF7E5FDFEF75DFE8E4B01221A70C5
:101B98006421002001F01EFD1FE23B7B002B09D0D1
:101BA800FFF7B2FF874B0C221A706421002001F066
:101BB80011FD12E2FB78002B56D0834B1B78002BCB
:101BC8004DD0814B1B78013BDAB27F4B1A707F4BAB
:101BD8001B78002B07D07D4B1B78012B01D150239C
:101BE80002E06E2300E032233B82774B1B781A46D3
:101BF800920013449B009BB28C3398B2724B1B78B3
:101C08001A46920013449B009BB29C339AB23B8ABB
:101C180010339BB2398A0024009400F0E1FE6B4B2C
:101C28001B78002B06D1684B1B781A46684B00219D
:101C3800995414E0654B1B78012B06D1624B1B7835
:101C48001A46644B0021995409E0604B1B78022B1B
:101C580005D15D4B1B781A465F4B002199546421CE
:101C6800002001F0B7FCB8E1FB79002B57D0574BA7
:101C78001B78002B07D0554B1B78012B01D1502323
:101C880002E06E2300E032237B827B8A14339BB20E
:101C9800798A00220092F0228C2000F0A1FE4A4BA3
:101CA80000221A70494B1B78002B0ED100237B634E
:101CB80007E0474A7B6B134400221A707B6B0133A1
:101CC8007B637B6B032BF4DD24E0404B1B78012BFB
:101CD8000ED100233B6307E03E4A3B6B13440022CE
:101CE8001A703B6B01333B633B6B032BF4DD11E054
:101CF800364B1B78022B0DD10023FB6207E0364AD6
:101D0800FB6A134400221A70FB6A0133FB62FB6A08
:101D1800032BF4DD6421002001F05CFC5DE13B460F
:101D28001846FFF759FD78617B69002BC0F24F8197
:101D3800254B1B78032B00F24A81244B1B78002B80
:101D48001DD1214B1B781A467B69D9B2204B995477
:101D58001D4B1B781A46920013449B009BB28C3390
:101D680098B27B699AB2102302930023019347F635
:101D78007C5300930123322100F06CFF4FE0134B9A
:101D88001B78012B2AD1104B1B781A467B69D9B2D4
:101D9800104B99540C4B1B781A46920013449B0025
:101DA8009BB28C3398B27B699AB2102302930023BA
:101DB800019347F67C5300930123502100F04AFF1A
:101DC8002DE000BF6E0000209C0000208C00002049
:101DD800900000209400002098000020804B1B7881
:101DE800022B1CD17F4B1B781A467B69D9B27E4BDC
:101DF80099547C4B1B781A46920013449B009BB263
:101E08008C3398B27B699AB2102302930023019312
:101E180047F67C53009301236E2100F01BFF714BA2
:101E28001B780133DAB26F4B1A706E4B1B78032B99
:101E380040F2CD806B4B00221A70694B1B7801333E
:101E4800DAB2674B1A70664B1B78022B40F2BF80E0
:101E5800012387F82B3000237B6210E0634A7B6AFA
:101E680013441A7862497B6A0B441B789A4203D060
:101E7800002387F82B3005E07B6A01337B627B6A9D
:101E8800032BEBDD012387F823300023FB6110E0EF
:101E9800584AFB6913441A785349FB690B441B7869
:101EA8009A4203D0002387F8233005E0FB69013309
:101EB800FB61FB69032BEBDD97F82B30002B36D049
:101EC80097F82330002B32D00023BB610BE0494A3E
:101ED800BB6913441978464ABB6913440A461A7009
:101EE800BB690133BB61BB69032BF0DD00230093A1
:101EF8001423F0228C21002000F072FD00230293AD
:101F080010230193002300934FF4FC633A4A8C2179
:101F1800002001F05BF9394B00221A704FF4FA6186
:101F2800002001F057FB364B09221A7055E00023B8
:101F380000931423F0228C21002000F051FD97F823
:101F48002B30002B2DD12D4B1B780133DAB22B4BC4
:101F58001A702A4B1B78022B15D9002302931023E1
:101F68000193002300934FF47843264A8C210020E4
:101F780001F02CF940F2DC51002001F02BFB204B42
:101F88000A221A7029E000230293102301930023E8
:101F980000934FF478431C4A8C21002001F016F975
:101FA8000CE00023029310230193002300934FF4C5
:101FB8007843164A8C21002001F008F940F2DC51E0
:101FC800002001F007FB0E4B0A221A7005E064217D
:101FD800002001F0FFFA00E000BF3C37BD4690BD8D
:101FE8008C0000209C000020980000209000002019
:101FF8000400002094000020FC6B00089D000020D5
:102008006E000020106C0008246C0008386C000872
:1020180090B595B004AF002001F0F8FA0346002B04
:1020280000F054823B1D1846FEF7B2FBBB7C002B28
:102038000BD0FEF78DFBFEF705FC8F4B01221A70C3
:102048006421002001F0C6FA41E23B7C002B09D054
:10205800FFF72EFD884B0B221A706421002001F037
:10206800B9FA34E2FB79002B56D0844B1B78002B4D
:102078004DD0824B1B78013BDAB2804B1A70804BF3
:102088001B78002B07D07E4B1B78012B01D15023E6
:1020980002E06E2300E03223FB82784B1B781A465D
:1020A800920013449B009BB28C3398B2734B1B78FD
:1020B8001A46920013449B009BB29C339AB2FB8A47
:1020C80010339BB2F98A0024009400F089FC6C4B11
:1020D8001B78002B06D1694B1B781A46694B0021E7
:1020E800995414E0664B1B78012B06D1634B1B787F
:1020F8001A46654B0021995409E0614B1B78022B65
:1021080005D15E4B1B781A46604B00219954642117
:10211800002001F05FFADAE1FB7A002B57D0584B28
:102128001B78002B07D0564B1B78012B01D150236D
:1021380002E06E2300E032233B833B8B14339BB2D7
:10214800398B00220092F0228C2000F049FC4B4B86
:1021580000221A704A4B1B78002B0ED10023FB6318
:1021680007E0484AFB6B134400221A70FB6B0133EB
:10217800FB63FB6B032BF4DD24E0414B1B78012B45
:102188000ED10023BB6307E03F4ABB6B1344002218
:102198001A70BB6B0133BB63BB6B032BF4DD11E01F
:1021A800374B1B78022B0DD100237B6307E0374A9E
:1021B8007B6B134400221A707B6B01337B637B6B50
:1021C800032BF4DD6421002001F004FA7FE14FF0D5
:1021D800FF333B633B79002B02D00A233B631CE0AF
:1021E8007B79002B02D00B233B6316E0BB79002BD5
:1021F80002D00C233B6310E03B7A002B02D00D2366
:102208003B630AE07B7A002B02D00E233B6304E099
:10221800BB7A002B01D00F233B633B6B002BC0F232
:102228005081164B1B78032B00F24B813B6BDBB2C2
:102238003733FB76124B1B78002B29D10F4B1B78B9
:102248001A463B6BD9B20F4B99540C4B1B781A4664
:10225800920013449B009BB28C3398B2FA7E002301
:102268000293102301930023009347F67C533221F5
:1022780000F004FC4DE000BF6E0000209C00002030
:102288008C0000209000002094000020980000207E
:10229800904B1B78012B1CD18F4B1B781A463B6B3C
:1022A800D9B28E4B99548C4B1B781A469200134422
:1022B8009B009BB28C3398B2FA7E002302931023C2
:1022C80001930023009347F67C53502100F0D6FB7E
:1022D8001FE0804B1B78022B1BD17F4B1B781A46C3
:1022E8003B6BD9B27E4B99547B4B1B781A469200B4
:1022F80013449B009BB28C3398B2FA7E002302935E
:10230800102301930023009347F67C536E2100F0BD
:10231800B5FB714B1B780133DAB26F4B1A706E4BF9
:102328001B78032B40F2CD806B4B00221A70694B4F
:102338001B780133DAB2674B1A70664B1B78022B95
:1023480040F2BF80012387F82F300023BB6210E0E2
:10235800644ABB6A13441A786349BB6A0B441B7806
:102368009A4203D0002387F82F3005E0BB6A013377
:10237800BB62BB6A032BEBDD012387F82730002300
:102388003B6210E0554A3B6A13441A7854493B6A49
:102398000B441B789A4203D0002387F8273005E0C6
:1023A8003B6A01333B623B6A032BEBDD97F82F3026
:1023B800002B36D097F82730002B32D00023FB6152
:1023C8000BE0464AFB6913441978474AFB691344F2
:1023D8000A461A70FB690133FB61FB69032BF0DDC8
:1023E800002300931423F0228C21002000F0F8FA37
:1023F8000023029310230193002300934FF4FC63FE
:102408003A4A8C21002000F0E1FE394B00221A7074
:102418004FF4FA61002001F0DDF8364B09221A70FA
:1024280055E0002300931423F0228C21002000F0B3
:10243800D7FA97F82F30002B2DD12D4B1B7801336D
:10244800DAB22B4B1A702A4B1B78022B15D90023B2
:10245800029310230193002300934FF47843264AF4
:102468008C21002000F0B2FE40F2DC51002001F087
:10247800B1F8204B0A221A7029E000230293102396
:102488000193002300934FF478431C4A8C210020C9
:1024980000F09CFE0CE0002302931023019300231C
:1024A80000934FF47843164A8C21002000F08EFEEA
:1024B80040F2DC51002001F08DF80E4B0A221A7010
:1024C80005E06421002001F085F800E000BF4437F2
:1024D800BD4690BD8C0000209C0000209400002088
:1024E800980000209000002004000020FC6B0008E9
:1024F8009D0000206E000020106C0008246C00086D
:10250800386C000880B58EB000AF07F11C030022BC
:102518001A605A609A60DA601A615A619A613B4699
:1025280000221A605A609A60DA601A615A619A61E8
:102538002F4B4FF020421A602D4B2E4A5A602C4BDD
:1025480000229A602A4B0022DA60294B00221A6185
:10255800274B10225A61264B00229A61244B0022F5
:10256800DA61234B00221A62214B00225A62204B67
:102578004FF480529A621E4B0022DA621C4B4FF4D1
:1025880080421A631A4B00225A63194B00229A633D
:10259800174B00225A640F23FB610F233B623C2335
:1025A8007B620023BB621023FB6211233B63002381
:1025B8007B6309233B600F237B600823BB600023F8
:1025C800FB6010233B6111237B610023BB613A460A
:1025D80007F11C031946064803F096F80346002B3A
:1025E80001D000F0DCFF00BF3837BD4680BD00BF1A
:1025F800A0000020040100A080B586B000AF3B1DFC
:1026080000221A605A609A60DA601A611C4B1B68D3
:10261800002B31D11A4B01221A6000233B60194B61
:102628009B6B184A43F001039363164B9B6B03F0B3
:1026380001033B603B684FF688737B600223BB60F5
:102648000023FB6003233B610C237B613B1D194680
:102658000D4801F053FC4CF2B3737B600223BB605E
:102668000023FB6003233B610C237B613B1D194660
:10267800064801F043FC00E000BF1837BD4680BDA6
:10268800F00000200038024000100240000C024018
:1026980080B582B000AF7860FFF7AEFF00BF0837A3
:1026A800BD4680BD80B58EB000AF07F1240300227F
:1026B8001A605A609A60DA601A6100233B626A4BBA
:1026C8001B6B694A43F010031363674B1B6B03F0E2
:1026D80010033B623B6A0023FB61634B1B6B624A3E
:1026E80043F004031363604B1B6B03F00403FB61AB
:1026F800FB690023BB615C4B1B6B5B4A43F0200307
:102708001363594B1B6B03F02003BB61BB690023A8
:102718007B61554B1B6B544A43F080031363524B48
:102728001B6B03F080037B617B6900233B614E4B8D
:102738001B6B4D4A43F0080313634B4B1B6B03F0B1
:1027480008033B613B690023FB60474B1B6B464A10
:1027580043F040031363444B1B6B03F04003FB60DF
:10276800FB680023BB60404B1B6B3F4A43F00103EF
:1027780013633D4B1B6B03F00103BB60BB68002375
:102788007B60394B1B6B384A43F002031363364BAB
:102798001B6B03F002037B607B68002270213348C7
:1027A80001F048FD00224FF40051314801F042FD8C
:1027B800002240212F4801F03DFD00224FF4807196
:1027C8002D4801F037FD002208212C4801F032FD88
:1027D80070237B620123BB620023FB6200233B63FF
:1027E80007F124031946214801F088FB4FF40053F0
:1027F8007B620123BB620023FB6200233B6307F17A
:10280800240319461A4801F079FB40237B6201230F
:10281800BB620023FB6200233B6307F124031946D4
:10282800144801F06BFB4FF480737B620123BB6299
:102838000023FB6200233B6307F1240319460E487B
:1028480001F05CFB08237B620123BB620023FB626F
:1028580000233B6307F124031946084801F04EFBA7
:1028680000BF3837BD4680BD003802400010024026
:10287800000802400018024000000240000C02401C
:1028880080B483B000AF0346FB80044AFB88138002
:1028980000BF0C37BD465DF8047B7047FEFF0F6034
:1028A80080B483B000AF0346FB80044AFB885380A2
:1028B80000BF0C37BD465DF8047B7047FEFF0F6014
:1028C80080B483B000AF064B5B889BB2FB80FB886B
:1028D8009BB218460C37BD465DF8047B704700BFB5
:1028E800FEFF0F6090B583B000AF0446084611465E
:1028F8001A462346FB800346BB800B467B80134663
:102908003B802A20FFF7BCFFFB881B0A9BB21846B6
:10291800FFF7C6FFFB88DBB29BB21846FFF7C0FF84
:102928007B881B0A9BB21846FFF7BAFF7B88DBB28D
:102938009BB21846FFF7B4FF2B20FFF7A1FFBB8817
:102948001B0A9BB21846FFF7ABFFBB88DBB29BB2F2
:102958001846FFF7A5FF3B881B0A9BB21846FFF7EE
:102968009FFF3B88DBB29BB21846FFF799FF2C20EC
:10297800FFF786FF00BF0C37BD4690BD80B584B019
:1029880000AF0346FB80154B1B88013B9AB2134BE3
:102998005B88013B9BB200210020FFF7A3FF0023C7
:1029A800FB8111E00023BB8106E0FB881846FFF796
:1029B80077FFBB890133BB81084B5B88BA899A4290
:1029C800F3D3FB890133FB81044B1B88FA899A42B4
:1029D800E8D300BF00BF1037BD4680BDF40000201B
:1029E80090B585B000AF0446084611461A462346FE
:1029F800FB800346BB800B467B8013463B807B886D
:102A0800013B9AB23B88013B9BB2B988F888FFF733
:102A180069FFBB88FB8110E0FB88BB8106E03B8C2B
:102A28001846FFF73DFFBB890133BB81BA897B8814
:102A38009A42F4D3FB890133FB81FA893B889A4295
:102A4800EAD300BF00BF1437BD4690BD80B582B041
:102A580000AF0346FB800B46BB8013467B80BB88D8
:102A6800FA88B988F888FFF73DFF7B881846FFF792
:102A780017FF00BF0837BD4680BD000090B587B07E
:102A880000AF0446084611461A462346FB80034613
:102A9800BB800B46FB7013463B8000237B75FB888D
:102AA8003B8297F82C305B08FB73FB7BDB08DBB2BF
:102AB8001A46FB7B03F00703DBB2002B14BF01238C
:102AC8000023DBB213449AB297F82C309BB212FB66
:102AD80003F3BB81FB78203BFB70FB7B9AB2FB883E
:102AE80013449BB2013B9CB297F82C309AB2BB8836
:102AF80013449BB2013B9BB2B988F8882246FFF782
:102B0800F1FE00237B827AE097F82C300C2B28D03A
:102B180097F82C30102B08D1FA787B8A3C4912019F
:102B28000A4413441B78FB751BE097F82C30182BCC
:102B38000BD1FA78798A374813465B0013441B0196
:102B480003440B441B78FB750BE097F82C30202BC3
:102B58005AD1FA787B8A304992010A4413441B7887
:102B6800FB750023BB7544E097F83030002B20D16B
:102B7800FA7DBB7D42FA03F303F00103002B04D076
:102B88003B881846FFF78CFE03E03B8D1846FFF79D
:102B980087FE7B7D01337B757B7DFA7BB3FBF2F18E
:102BA80001FB02F29B1ADBB2002B1FD100237B75BD
:102BB80022E0FA7DBB7D42FA03F303F00103002B08
:102BC80005D03A88B988FB881846FFF73FFFFB888D
:102BD8000133FB80FA883B8AD21AFB7B9A4205D1E3
:102BE8003B8AFB80BB880133BB8005E0BB7D01339A
:102BF800BB75BB7D072BB7D97B8A01337B827A8A69
:102C0800BB899A4280D300E000BF1C37BD4690BD07
:102C1800506C0008407200081084000880B485B029
:102C280000AF03460A46FB711346BB710123FB60E4
:102C380004E0FA79FB6802FB03F3FB60BB795A1ED8
:102C4800BA71002BF5D1FB6818461437BD465DF8FC
:102C5800047B704790B589B004AF04460846114616
:102C68001A462346FB800346BB800B467B801346EF
:102C78007B700023BB7397F828305B087B730023B5
:102C8800FB7359E07C887A78FB7BD31ADBB2013B73
:102C9800DBB219460A20FFF7C1FF0346B4FBF3F184
:102CA8002A4BA3FB0123DA0813469B0013445B005D
:102CB800CA1A13463B73BB7B002B21D1FA7B7B7866
:102CC800013B9A421CDA3B7B002B17D1FB7B9AB263
:102CD8007B7B9BB212FB03F39AB2FB88134498B236
:102CE8003A8CB9880023029397F828300193BB8C5B
:102CF800009313462022FFF7C1FE1AE00123BB739D
:102D0800FB7B9AB27B7B9BB212FB03F39AB2FB88E4
:102D1800134498B23B7B3033DAB23C8CB988002339
:102D2800029397F828300193BB8C00932346FFF752
:102D3800A5FEFB7B0133FB73FA7B7B789A42A1D318
:102D480000BF00BF1437BD4690BD00BFCDCCCCCC72
:102D580090B587B000AF0446084611461A46234688
:102D6800FB800346BB800B467B8013463B800023D9
:102D78003B61FA887B8813449BB2013B9CB2BA88BA
:102D88003B8813449BB2013B9BB2B988F888224622
:102D9800FFF7A8FD0023FB8228E00023BB821EE08A
:102DA8003B695B00BA6A13441B78FB733B695B00A1
:102DB8000133BA6A13441B78BB73FB7B1BB21B023B
:102DC8001AB2BB7B1BB213431BB29BB21846FFF768
:102DD80067FD3B6901333B61BB8A0133BB82BA8A19
:102DE8003B889A42DCD3FB8A0133FB82FA8A7B88D0
:102DF8009A42D2D300BF00BF1C37BD4690BD000029
:102E080080B483B000AF0346FB71FB7903F0300355
:102E1800DBB2002B07D00A4B4FF4A0721A80084B84
:102E2800F0225A8006E0064BF0221A80044B4FF439
:102E3800A0725A8000BF0C37BD465DF8047B70470E
:102E4800F400002080B500AF00224FF40051AA48DA
:102E580001F0F0F94FF4FA7000F01AFF01224FF474
:102E68000051A54801F0E6F94FF4FA7000F010FFA0
:102E78000020FFF7C5FFD320FFF702FDFFF720FD75
:102E880003461A469D4B9A80FFF71AFD03461A46D9
:102E98009A4B9A80FFF714FD03461A46974B9A807F
:102EA800964B9B881B029AB2944B9A80FFF708FDB9
:102EB80003461A46914B9B8813439AB28F4B9A80CC
:102EC800CF20FFF7DDFC0020FFF7EAFCC120FFF769
:102ED800E7FC3020FFF7E4FCED20FFF7D1FC64208D
:102EE800FFF7DEFC0320FFF7DBFC1220FFF7D8FC1E
:102EF8008120FFF7D5FCE820FFF7C2FC8520FFF70B
:102F0800CFFC1020FFF7CCFC7A20FFF7C9FCCB20C0
:102F1800FFF7B6FC3920FFF7C3FC2C20FFF7C0FCF5
:102F28000020FFF7BDFC3420FFF7BAFC0220FFF7B2
:102F3800B7FCF720FFF7A4FC2020FFF7B1FCEA203C
:102F4800FFF79EFC0020FFF7ABFC0020FFF7A8FC72
:102F5800C020FFF795FC1B20FFF7A2FCC120FFF75C
:102F68008FFC0120FFF79CFCC520FFF789FC30206F
:102F7800FFF796FC3020FFF793FCC720FFF780FC93
:102F8800B720FFF78DFC3620FFF77AFC0820FFF703
:102F980087FC3A20FFF774FC5520FFF781FCB1202D
:102FA800FFF76EFC0020FFF77BFC1A20FFF778FC88
:102FB800B620FFF765FC0A20FFF772FCA220FFF796
:102FC8006FFCF220FFF75CFC0020FFF769FC26206D
:102FD800FFF756FC0120FFF763FCE020FFF750FCE9
:102FE8000F20FFF75DFC2A20FFF75AFC2820FFF787
:102FF80057FC0820FFF754FC0E20FFF751FC08206F
:10300800FFF74EFC5420FFF74BFCA920FFF748FCC4
:103018004320FFF745FC0A20FFF742FC0F20FFF78B
:103028003FFC0020FFF73CFC0020FFF739FC0020A4
:10303800FFF736FC0020FFF733FCE120FFF720FC08
:103048000020FFF72DFC1520FFF72AFC1720FFF7BB
:1030580027FC0720FFF724FC1120FFF721FC06209E
:10306800FFF71EFC2B20FFF71BFC5620FFF718FC70
:103078003C20FFF715FC0520FFF712FC1020FFF796
:103088000FFC0F20FFF70CFC3F20FFF709FC3F2047
:10309800FFF706FC0F20FFF703FC2B20FFF7F0FBE0
:1030A8000020FFF7FDFB0020FFF7FAFB0120FFF7E8
:1030B800F7FB3F20FFF7F4FB2A20FFF7E1FB002096
:1030C800FFF7EEFB0020FFF7EBFB0020FFF7E8FB24
:1030D800EF20FFF7E5FB1120FFF7D2FB782000F087
:1030E800D7FD2920FFF7CCFB01224FF4807104485B
:1030F80001F0A0F800BF80BD00080240F4000020E5
:103108000000024090B58BB004AFBA601A4603467F
:10311800FB810B46BB811346FB80FB89BB820023E6
:10312800FB7548E0FB7D002B45D1FA89264B1B88AF
:10313800194697F82C305B08DBB2CB1A9A423FDC71
:10314800BA89214B5B88194697F82C30CB1A9A42DA
:1031580036DCBB681B78802B02D90123FB752AE07B
:10316800BB681B780D2B0BD197F82C309AB2BB8912
:103178001344BB81BB8AFB81BB680133BB6017E08A
:10318800BB681A78FC88B989F88997F830300293B7
:1031980097F82C3001933B8D00932346FFF76EFC84
:1031A80097F82C305B08DBB21A46FB891344FB8185
:1031B800BB680133BB60BB681B78002BB2D100E051
:1031C80000BF1C37BD4690BDF400002080B58AB012
:1031D80004AFBA601A460346FB810B46BB8113460F
:1031E800FB80B868FCF7ECFF0346FB820F4B1B889B
:1031F8001A46FB8ADB00D31ADA0F13445B10BB8232
:10320800FA89BB8A134498B2FA88B98997F82830A2
:10321800029397F8243001933B8C00931346BA68C5
:10322800FFF770FF00BF1837BD4680BDF4000020CF
:1032380080B500AF01224021024800F0FBFF00BF2B
:1032480080BD00BF0018024080B500AF404B1B880E
:10325800DBB29AB23E4B1A803E4B1B881A463E4B55
:103268009B5C1BB21B021AB2394B1B881BB213435F
:103278001BB29AB2364B1A80364B1B88032B47D8A1
:1032880001A252F823F000BFA1320008BF320008A3
:10329800DD320008FB3200082D4B1B8843F0B003D9
:1032A8009AB22B4B1A802A4B1B8823F040039AB200
:1032B800274B1A802DE0264B1B8843F0D0039AB287
:1032C800234B1A80224B1B8823F020039AB2204BF1
:1032D8001A801EE01E4B1B8843F0E0039AB21C4B79
:1032E8001A801B4B1B8823F010039AB2184B1A80C4
:1032F8000FE0174B1B8843F070039AB2144B1A80E7
:10330800134B1B8823F080039AB2114B1A8000E0FC
:1033180000BF104B1B8801335A4203F0030302F02D
:10332800030258BF53429AB20A4B1A800022402126
:103338000A4800F07FFF012302220549084801F0EE
:103348009AFC01224021054800F074FF00BF80BDAF
:1033580020000020FA0000200C0000200018024085
:103368001001002080B487B000AFF860B960134640
:10337800FB71BB68002B27DBBB68032B24DCFB68D5
:10338800002B01DA0023FB60FB680F2B08DDFB68CC
:103398005A4203F00F0302F00F0258BF5342FB607A
:1033A8000C4AFB6813441B78FB75FB79002B05D08E
:1033B800FB7D002B02D0FB7D013BFB75064ABB68F9
:1033C8001344FA7D1A7000E000BF1C37BD465DF853
:1033D800047B7047100000200C00002080B483B0EC
:1033E80000AF78607B68002B08DB7B68032B05DC6B
:1033F800054A7B681344FF221A7000E000BF0C37AF
:10340800BD465DF8047B70470C00002080B500AF16
:1034180000F0CCFB00F020F8FFF744F900F042FA86
:1034280000F03AF9FFF76EF800F088FA00F0D4FAE5
:1034380000F07CF84FF47A71002000F0CBF84FF4DC
:103448007A71012000F0C6F8FDF78EF8FDF726F92D
:10345800FFF7FAFE00BFF7E780B594B000AF07F1B9
:10346800200330220021184603F000FB07F10C036B
:1034780000221A605A609A60DA601A610023BB6001
:10348800284B1B6C274A43F080531364254B1B6C55
:1034980003F08053BB60BB6800237B60224B1B6832
:1034A800214A43F4804313601F4B1B6803F4804395
:1034B8007B607B6801233B624FF480337B6202238D
:1034C800BB634FF48003FB6304233B64A8237B6442
:1034D8000223BB640423FB6407F12003184600F0B1
:1034E800DDFE0346002B01D000F059F80F23FB60E6
:1034F80002233B6100237B614FF4A053BB614FF46F
:10350800A053FB6107F10C030521184601F03EF9B1
:103518000346002B01D000F042F800BF5037BD46EB
:1035280080BD00BF003802400070004080B582B006
:1035380000AF00F03BF8FDF70BF8FFF783FCFDF751
:103548007FF84FF6FF70FFF719FAFFF771FE0023B7
:103558007B600AE0094A7B68134400221A70786885
:10356800FFF73CFF7B6801337B607B68032BF1DD51
:1035780000BF00BF0837BD4680BD00BF70000020F7
:1035880080B582B000AF78607B681B68B3F1804F6C
:1035980001D100F051F800BF0837BD4680BD80B4A6
:1035A80000AF72B600BF00BFFDE7000080B500AFF6
:1035B800054802F041F9054802F03EF9044802F0D6
:1035C8003BF900BF80BD00BF68010020B0010020AA
:1035D800F801002080B483B000AF03460A46FB71AF
:1035E8001346BB80FB790749BA8821F81320FB7979
:1035F800054A0021D15400BF0C37BD465DF8047B55
:10360800704700BFFC0000200801002080B483B090
:1036180000AF0346FB71FB79064AD35C012B01D14D
:10362800012300E0002318460C37BD465DF8047BF3
:10363800704700BF0801002080B483B000AF0023AA
:10364800FB711BE0FB79124A32F81330002B12D0C1
:10365800FB790F4A32F81320013A91B20C4A22F84A
:103668001310FB790A4A32F81330002B03D1FB7987
:10367800084A0121D154FB790133FB71FB79042BF2
:10368800E0D900BF00BF0C37BD465DF8047B70472A
:10369800FC0000200801002080B500AF174B184A35
:1036A8001A60164B4FF482725A60144B00229A60CB
:1036B800124B0022DA60114B00221A610F4B0022D4
:1036C8005A610E4B4FF400729A610C4B0022DA617A
:1036D8000A4B00221A62094B00225A62074B002249
:1036E8009A62064B0A22DA62044801F03BFA034662
:1036F800002B01D0FFF753FF00BF80BD1001002051
:103708000030014080B58AB000AF786007F114033B
:1037180000221A605A609A60DA601A617B681B6836
:10372800194A93422BD100233B61184B5B6C174A13
:1037380043F480535364154B5B6C03F480533B6133
:103748003B690023FB60114B1B6B104A43F00203DB
:1037580013630E4B1B6B03F00203FB60FB683823FB
:103768007B610223BB610023FB6103233B620523CA
:103778007B6207F114031946054800F0BFFB00BF40
:103788002837BD4680BD00BF0030014000380240E8
:103798000004024080B483B000AF00237B60104B6C
:1037A8005B6C0F4A43F4804353640D4B5B6C03F42A
:1037B80080437B607B6800233B60094B1B6C084A95
:1037C80043F080531364064B1B6C03F080533B603B
:1037D8003B6800BF0C37BD465DF8047B704700BFEF
:1037E8000038024080B400AF00BFFDE780B400AFEE
:1037F80000BFFDE780B400AF00BFFDE780B400AFB5
:1038080000BFFDE780B400AF00BFFDE780B400AFA4
:1038180000BFBD465DF8047B704780B400AF00BFB1
:10382800BD465DF8047B704780B400AF00BFBD465D
:103838005DF8047B704780B500AF00F009FA00BF5F
:1038480080BD000080B500AF024802F0F7F900BF64
:1038580080BD00BF6801002080B500AF024802F0BB
:10386800EDF900BF80BD00BFB001002080B500AFFA
:10387800024802F0E3F900BF80BD00BFF801002054
:1038880080B400AF064BD3F88830054A43F4700380
:10389800C2F8883000BFBD465DF8047B704700BFA2
:1038A80000ED00E080B586B000AF07F10803002204
:1038B8001A605A609A60DA603B4600221A605A60C1
:1038C8001D4B4FF080421A601B4B40F247325A6042
:1038D800194B00229A60184B6322DA60164B0022BB
:1038E8001A61154B00229A61134801F055FF0346EF
:1038F800002B01D0FFF753FE4FF48053BB6007F154
:10390800080319460C4802F04BFB0346002B01D074
:10391800FFF745FE00233B6000237B603B461946CA
:10392800054802F043FF0346002B01D0FFF737FE9E
:1039380000BF1837BD4680BD6801002080B586B03D
:1039480000AF07F1080300221A605A609A60DA6033
:103958003B4600221A605A601D4B1E4A1A601C4BD7
:1039680040F247325A601A4B00229A60184B632281
:10397800DA60174B00221A61154B00229A6114482D
:1039880001F00AFF0346002B01D0FFF708FE4FF4B1
:103998008053BB6007F1080319460D4802F000FB8D
:1039A8000346002B01D0FFF7FAFD00233B600023FC
:1039B8007B603B461946064802F0F8FE0346002B9A
:1039C80001D0FFF7ECFD00BF1837BD4680BD00BF32
:1039D800B00100200008004080B588B000AF3B1D52
:1039E80000221A605A609A60DA601A615A619A6114
:1039F8001E4B1F4A1A601D4B40F247325A601B4B40
:103A080000229A60194B6322DA60184B00221A616F
:103A1800164B00229A61154801F0BEFE0346002BA2
:103A280001D0FFF7BCFD114801F076FF0346002BDB
:103A380001D0FFF7B4FD60237B600023BB60002347
:103A4800FB6000237B613B1D00221946074802F0FA
:103A5800E5F90346002B01D0FFF7A1FD034800F06C
:103A68006BF800BF2037BD4680BD00BFF8010020BD
:103A7800001C004080B586B000AF78607B681B688A
:103A8800B3F1804F16D100237B61284B1B6C274A6A
:103A980043F001031364254B1B6C03F001037B61A6
:103AA8007B69002200211C2000F0F1F91C2000F0A5
:103AB8000AFA36E07B681B681D4A934216D1002338
:103AC8003B611A4B1B6C194A43F004031364174BF0
:103AD8001B6C03F004033B613B69002200211E209C
:103AE80000F0D5F91E2000F0EEF91AE07B681B689B
:103AF800104A934215D10023FB600C4B1B6C0B4AF8
:103B080043F080031364094B1B6C03F08003FB60D4
:103B1800FB68002200212C2000F0B9F92C2000F0CD
:103B2800D2F900BF1837BD4680BD00BF003802403B
:103B380000080040001C004080B588B000AF7860E5
:103B480007F10C0300221A605A609A60DA601A6161
:103B58007B681B68124A93421ED10023BB60114B3D
:103B68001B6B104A43F0200313630E4B1B6B03F0CF
:103B78002003BB60BB684FF48073FB6002233B618A
:103B880000237B610023BB610923FB6107F10C0360
:103B98001946054800F0B2F900BF2037BD4680BD80
:103BA800001C0040003802400014024080B500AFFD
:103BB8000E4B1B680D4A43F4007313600B4B1B68D4
:103BC8000A4A43F480631360084B1B68074A43F4AE
:103BD80080731360032000F04FF90F2000F008F8FD
:103BE800FFF7D8FD0023184680BD00BF003C024007
:103BF80080B582B000AF7860124B1A68124B1B7800
:103C080019464FF47A73B3FBF1F3B2FBF3F318469A
:103C180000F067F90346002B01D001230EE07B6812
:103C28000F2B0AD8002279684FF0FF3000F02FF9E7
:103C3800064A7B681360002300E001231846083712
:103C4800BD4680BD240000202C0000202800002054
:103C580080B400AF064B1B781A46064B1B6813440A
:103C6800044A136000BFBD465DF8047B704700BF7F
:103C78002C0000204002002080B400AF034B1B68DA
:103C88001846BD465DF8047B704700BF400200201F
:103C980080B584B000AF7860FFF7EEFFB8607B684E
:103CA800FB60FB68B3F1FF3F05D00A4B1B781A464F
:103CB800FB681344FB6000BFFFF7DEFF0246BB68EA
:103CC800D31AFA689A42F7D800BF00BF1037BD462A
:103CD80080BD00BF2C00002080B485B000AF7860A4
:103CE8007B6803F00703FB600C4BDB68BB60BA68BA
:103CF8004FF6FF031340BB60FB681A02BB6813430F
:103D080043F0BF6343F40033BB60044ABB68D3602D
:103D180000BF1437BD465DF8047B704700ED00E036
:103D280080B400AF044BDB681B0A03F00703184696
:103D3800BD465DF8047B704700ED00E080B483B0B9
:103D480000AF0346FB7197F90730002B0BDBFB79BB
:103D580003F01F02074997F907305B09012000FAB1
:103D680002F241F8232000BF0C37BD465DF8047B02
:103D7800704700BF00E100E080B483B000AF0346A5
:103D88003960FB7197F90730002B0ADB3B68DAB220
:103D98000C4997F907301201D2B20B4483F800237B
:103DA8000AE03B68DAB20849FB7903F00F03043BE9
:103DB8001201D2B20B441A7600BF0C37BD465DF82B
:103DC800047B704700E100E000ED00E080B489B0BA
:103DD80000AFF860B9607A60FB6803F00703FB6125
:103DE800FB69C3F10703042B28BF0423BB61FB69EC
:103DF8000433062B02D9FB69033B00E000237B61F7
:103E08004FF0FF32BB6902FA03F3DA43BB681A408A
:103E18007B699A404FF0FF317B6901FA03F3D9437C
:103E28007B680B40134318462437BD465DF8047B76
:103E38007047000080B582B000AF78607B68013BB6
:103E4800B3F1807F01D301230FE00A4A7B68013B6D
:103E580053600F214FF0FF30FFF78EFF054B002214
:103E68009A60044B07221A60002318460837BD469B
:103E780080BD00BF10E000E080B582B000AF786080
:103E88007868FFF729FF00BF0837BD4680BD80B5B9
:103E980086B000AF0346B9607A60FB7300237B618C
:103EA800FFF73EFF78617A68B9687869FFF78EFF97
:103EB800024697F90F3011461846FFF75DFF00BF1D
:103EC8001837BD4680BD80B582B000AF0346FB7190
:103ED80097F907301846FFF731FF00BF0837BD468E
:103EE80080BD80B582B000AF78607868FFF7A2FF28
:103EF800034618460837BD4680BD000080B489B027
:103F080000AF7860396000237B6100233B610023A8
:103F1800BB610023FB616BE10122FB6902FA03F339
:103F28007B613B681B687A6913403B613A697B692E
:103F38009A4240F05A813B685B6803F00303012B07
:103F480005D03B685B6803F00303022B30D17B6824
:103F58009B68BB61FB695B00032202FA03F3DB4346
:103F6800BA691340BB613B68DA68FB695B0002FA17
:103F780003F3BA691343BB617B68BA699A607B68CB
:103F88005B68BB610122FB6902FA03F3DB43BA6990
:103F98001340BB613B685B681B0903F00102FB69C6
:103FA80002FA03F3BA691343BB617B68BA695A60C2
:103FB8003B685B6803F00303032B17D07B68DB685F
:103FC800BB61FB695B00032202FA03F3DB43BA69B6
:103FD8001340BB613B689A68FB695B0002FA03F314
:103FE800BA691343BB617B68BA69DA603B685B688E
:103FF80003F00303022B23D1FB69DA087B6808323C
:1040080053F82230BB61FB6903F007039B000F22C2
:1040180002FA03F3DB43BA691340BB613B681A69D0
:10402800FB6903F007039B0002FA03F3BA69134321
:10403800BB61FB69DA087B680832B96943F822106A
:104048007B681B68BB61FB695B00032202FA03F310
:10405800DB43BA691340BB613B685B6803F003024A
:10406800FB695B0002FA03F3BA691343BB617B681F
:10407800BA691A603B685B6803F44033002B00F0B0
:10408800B4800023FB60604B5B6C5F4A43F4804361
:1040980053645D4B5B6C03F48043FB60FB685B4AD5
:1040A800FB699B08023352F82330BB61FB6903F0BC
:1040B80003039B000F2202FA03F3DB43BA691340A0
:1040C800BB617B68524A93422BD07B68514A93422A
:1040D80025D07B68504A93421FD07B684F4A934251
:1040E80019D07B684E4A934213D07B684D4A93425D
:1040F8000DD07B684C4A934207D07B684B4A934269
:1041080001D107230EE008230CE006230AE005236B
:1041180008E0042306E0032304E0022302E001236D
:1041280000E00023FA6902F0030292009340BA69A2
:104138001343BB613549FB699B080233BA6941F8EF
:1041480023203B4B9B68BB613B69DB43BA69134047
:10415800BB613B685B6803F48013002B03D0BA692A
:104168003B691343BB61324ABB699360304BDB68E0
:10417800BB613B69DB43BA691340BB613B685B6861
:1041880003F40013002B03D0BA693B691343BB61E6
:10419800274ABB69D360264B5B68BB613B69DB433D
:1041A800BA691340BB613B685B6803F40033002BBA
:1041B80003D0BA693B691343BB611D4ABB695360AD
:1041C8001B4B1B68BB613B69DB43BA691340BB618E
:1041D8003B685B6803F48033002B03D0BA693B6902
:1041E8001343BB61124ABB691360FB690133FB616E
:1041F800FB690F2B7FF690AE00BF00BF2437BD468A
:104208005DF8047B704700BF003802400038014069
:10421800000002400004024000080240000C024076
:10422800001002400014024000180240001C024026
:10423800003C014080B483B000AF78600B467B80BF
:1042480013467B707B78002B03D07A887B689A6151
:1042580003E07B881A047B689A6100BF0C37BD466F
:104268005DF8047B704780B485B000AF78600B467A
:104278007B807B685B69FB607A88FB6813401A0463
:10428800FB68D9437B880B401A437B689A6100BF5F
:104298001437BD465DF8047B7047000080B586B0D2
:1042A80000AF78607B68002B01D1012367E27B684F
:1042B8001B6803F00103002B75D0884B9B6803F043
:1042C8000C03042B0CD0854B9B6803F00C03082BC4
:1042D80012D1824B5B6803F48003B3F5800F0BD1D6
:1042E8007E4B1B6803F40033002B5BD07B685B6854
:1042F800002B57D1012342E27B685B68B3F5803F0E
:1043080006D1764B1B68754A43F4803313601DE071
:104318007B685B68B3F5A02F0CD1704B1B686F4AA4
:1043280043F4802313606D4B1B686C4A43F480335D
:1043380013600BE0694B1B68684A23F480331360F1
:10434800664B1B68654A23F4802313607B685B68AF
:10435800002B13D0FFF790FC386108E0FFF78CFCC6
:1043680002463B69D31A642B01D9032307E25B4B4E
:104378001B6803F40033002BF0D014E0FFF77CFC3B
:10438800386108E0FFF778FC02463B69D31A642BD2
:1043980001D90323F3E1514B1B6803F40033002BCD
:1043A800F0D100E000BF7B681B6803F00203002B1C
:1043B80063D04A4B9B6803F00C03002B0BD0474B90
:1043C8009B6803F00C03082B1CD1444B5B6803F477
:1043D8008003002B16D1414B1B6803F00203002B0E
:1043E80005D07B68DB68012B01D00123C7E13B4B7B
:1043F8001B6823F0F8027B681B69DB00374913430D
:104408000B603AE07B68DB68002B20D0344B01223C
:104418001A60FFF731FC386108E0FFF72DFC02460F
:104428003B69D31A022B01D90323A8E12B4B1B6844
:1044380003F00203002BF0D0284B1B6823F0F8028E
:104448007B681B69DB00254913430B6015E0244B8F
:1044580000221A60FFF710FC386108E0FFF70CFC37
:1044680002463B69D31A022B01D9032387E11B4B70
:104478001B6803F00203002BF0D17B681B6803F074
:104488000803002B36D07B685B69002B16D0154BD0
:1044980001221A60FFF7F0FB386108E0FFF7ECFB38
:1044A80002463B69D31A022B01D9032367E10B4B60
:1044B8005B6F03F00203002BF0D01BE0094B0022D6
:1044C8001A60FFF7D9FB38610EE0FFF7D5FB02460B
:1044D8003B69D31A022B07D9032350E10038024065
:1044E80000004742800E4742884B5B6F03F002038F
:1044F800002BEAD17B681B6803F00403002B00F053
:1045080097800023FB75814B1B6C03F08053002BB5
:104518000FD10023BB607D4B1B6C7C4A43F080535A
:1045280013647A4B1B6C03F08053BB60BB68012398
:10453800FB75774B1B6803F48073002B18D1744B01
:104548001B68734A43F480731360FFF795FB386167
:1045580008E0FFF791FB02463B69D31A022B01D909
:1045680003230CE16A4B1B6803F48073002BF0D023
:104578007B689B68012B06D1644B1B6F634A43F031
:10458800010313671CE07B689B68052B0CD15F4B0C
:104598001B6F5E4A43F0040313675C4B1B6F5B4A57
:1045A80043F0010313670BE0584B1B6F574A23F086
:1045B80001031367554B1B6F544A23F00403136719
:1045C8007B689B68002B15D0FFF756FB38610AE023
:1045D800FFF752FB02463B69D31A41F288329342F5
:1045E80001D90323CBE0494B1B6F03F00203002BD7
:1045F800EED014E0FFF740FB38610AE0FFF73CFB20
:1046080002463B69D31A41F28832934201D9032307
:10461800B5E03E4B1B6F03F00203002BEED1FB7D90
:10462800012B05D1394B1B6C384A23F08053136496
:104638007B689B69002B00F0A180344B9B6803F0DA
:104648000C03082B5CD07B689B69022B41D1314B52
:1046580000221A60FFF710FB386108E0FFF70CFB37
:1046680002463B69D31A022B01D9032387E0274B63
:104678001B6803F00073002BF0D17B68DA697B6854
:104688001B6A1A437B685B6A9B011A437B689B6AB7
:104698005B08013B1B041A437B68DB6A1B061B494A
:1046A80013434B601B4B01221A60FFF7E5FA386190
:1046B80008E0FFF7E1FA02463B69D31A022B01D959
:1046C80003235CE0114B1B6803F00073002BF0D050
:1046D80054E0104B00221A60FFF7CEFA386108E068
:1046E800FFF7CAFA02463B69D31A022B01D9032302
:1046F80045E0064B1B6803F00073002BF0D13DE04A
:104708007B689B69012B07D1012338E00038024000
:1047180000700040600047421B4B5B68FB607B6891
:104728009B69012B28D0FB6803F480027B68DB6956
:104738009A4221D1FB6803F03F027B681B6A9A42C8
:104748001AD1FA6847F6C07313407A68526A920120
:10475800934211D1FB6803F440327B689B6A5B0883
:10476800013B1B049A4207D1FB6803F070627B6827
:10477800DB6A1B069A4201D0012300E00023184699
:104788001837BD4680BD00BF0038024080B584B0F0
:1047980000AF786039607B68002B01D10123CCE041
:1047A800684B1B6803F007033A689A420CD9654BBB
:1047B8003A68D2B21A70634B1B6803F007033A6871
:1047C8009A4201D00123B8E07B681B6803F002031A
:1047D800002B20D07B681B6803F00403002B05D056
:1047E800594B9B68584A43F4E05393607B681B68B5
:1047F80003F00803002B05D0534B9B68524A43F43F
:1048080060439360504B9B6823F0F0027B689B6881
:104818004D4913438B607B681B6803F00103002B31
:1048280044D07B685B68012B07D1474B1B6803F4B6
:104838000033002B19D101237FE07B685B68022BD2
:1048480003D07B685B68032B07D13F4B1B6803F0E1
:104858000073002B09D101236FE03B4B1B6803F069
:104868000203002B01D1012367E0374B9B6823F03B
:1048780003027B685B68344913438B60FFF7FCF9DC
:10488800F8600AE0FFF7F8F90246FB68D31A41F22C
:104898008832934201D903234FE02B4B9B6803F0E6
:1048A8000C027B685B689B009A42EBD1254B1B6826
:1048B80003F007033A689A420CD2224B3A68D2B204
:1048C8001A70204B1B6803F007033A689A4201D01C
:1048D800012332E07B681B6803F00403002B08D037
:1048E800194B9B6823F4E0527B68DB681649134335
:1048F8008B607B681B6803F00803002B09D0124B00
:104908009B6823F460427B681B69DB000E491343F4
:104918008B6000F021F802460B4B9B681B0903F0E3
:104928000F030A49CB5C22FA03F3094A1360094BC7
:104938001B681846FFF75CF9002318461037BD4678
:1049480080BD00BF003C024000380240E862030816
:1049580024000020280000202DE9B04F94B000AFBB
:1049680000237B640023FB6400233B640023BB64B7
:10497800794B9B6803F00C03082B0DD0082B00F231
:10498800E180002B02D0042B03D0DBE0734BBB6427
:10499800DBE0734BBB64D8E06F4B5B6803F03F030D
:1049A8007B646D4B5B6803F48003002B63D06A4B18
:1049B8005B689B090022BB63FA63BB6BC3F3080304
:1049C8003B6300237B63D7E90C4522462B464FF017
:1049D80000004FF00001590141EAD261500102463E
:1049E8000B462146511A3961294663EB01037B6165
:1049F8004FF000024FF00003D7E904AB59468B0192
:104A0800514643EA916351468A015146B2EB010887
:104A1800594663EB01094FF000024FF000034FEADB
:104A2800C90343EA58734FEAC80290469946234699
:104A380018EB0303BB602B4649EB0303FB604FF005
:104A480000024FF00003D7E9024529464B022146F0
:104A580043EAD15321464A02104619467B6C00228C
:104A6800BB62FA62D7E90A23FBF7B2FB02460B46A0
:104A78001346FB6458E0384B5B689B0900221846D4
:104A88001146C0F308033B6200237B62D7E908891B
:104A980042464B464FF000004FF00001590141EAF1
:104AA800D261500102460B464146B2EB010A494623
:104AB80063EB010B4FF000024FF000034FEA8B133A
:104AC80043EA9A634FEA8A12B2EB0A0463EB0B05D6
:104AD8004FF000024FF00003EB0043EA5473E2008A
:104AE80014461D464346E3183B604B4645EB03031B
:104AF8007B604FF000024FF00003D7E900452946DC
:104B08008B02214643EA915321468A0210461946F0
:104B18007B6C0022BB61FA61D7E90623FBF758FBDF
:104B280002460B461346FB640B4B5B681B0C03F0F9
:104B3800030301335B003B64FA6C3B6CB2FBF3F399
:104B4800BB6402E0054BBB6400BFBB6C1846503722
:104B5800BD46BDE8B08F00BF003802400024F40015
:104B680000127A0080B582B000AF78607B68002BB5
:104B780001D101237BE07B685B6A002B08D17B684D
:104B88005B68B3F5827F09D07B680022DA6105E0B3
:104B98007B6800221A617B6800225A617B680022C8
:104BA8009A627B6893F85130DBB2002B06D17B68A0
:104BB800002283F850207868FEF7A4FD7B68022263
:104BC80083F851207B681B681A687B681B6822F091
:104BD80040021A607B685B6803F482727B689B689A
:104BE80003F404431A437B68DB6803F400631A4345
:104BF8007B681B6903F002031A437B685B6903F057
:104C080001031A437B689B6903F400731A437B68AA
:104C1800DB6903F038031A437B681B6A03F08003DF
:104C280042EA03017B689B6A03F400527B681B68B5
:104C38000A431A607B689B691B0C03F004017B68BC
:104C48005B6A03F010027B681B680A435A607B6842
:104C58001B68DA697B681B6822F40062DA617B688A
:104C680000225A657B68012283F8512000231846E8
:104C78000837BD4680BD80B588B000AFF860B96020
:104C88003B601346FB80FEF7F7FFF861FB887B83E8
:104C9800FB6893F85130DBB2012B01D002232AE1E3
:104CA800BB68002B02D0FB88002B01D1012322E135
:104CB800FB6893F85030012B01D102231BE1FB68FC
:104CC800012283F85020FB68032283F85120FB68F7
:104CD80000225A65FB68BA681A63FB68FA889A86E4
:104CE800FB68FA88DA86FB6800229A63FB68002270
:104CF8009A87FB680022DA87FB6800225A64FB68FF
:104D080000221A64FB689B68B3F5004F0FD1FB685B
:104D18001B681A68FB681B6822F040021A60FB686F
:104D28001B681A68FB681B6842F480421A60FB68BB
:104D38001B681B6803F04003402B07D0FB681B6807
:104D48001A68FB681B6842F040021A60FB68DB685F
:104D5800B3F5006F52D1FB685B68002B02D07B8BE8
:104D6800012B45D1FB681B6B1A88FB681B68DA604E
:104D7800FB681B6B9A1CFB681A63FB68DB8E9BB293
:104D8800013B9AB2FB68DA8632E0FB681B689B68D5
:104D980003F00203022B12D1FB681B6B1A88FB6815
:104DA8001B68DA60FB681B6B9A1CFB681A63FB685C
:104DB800DB8E9BB2013B9AB2FB68DA8618E0FEF7FD
:104DC8005BFF0246FB69D31A3A689A4203D83B68EC
:104DD800B3F1FF3F02D13B68002B09D1FB680122E8
:104DE80083F85120FB68002283F85020032382E0D7
:104DF800FB68DB8E9BB2002BC7D153E0FB685B6876
:104E0800002B02D07B8B012B47D1FB681A6BFB6808
:104E18001B680C3312781A70FB681B6B5A1CFB68F2
:104E28001A63FB68DB8E9BB2013B9AB2FB68DA8699
:104E380033E0FB681B689B6803F00203022B13D165
:104E4800FB681A6BFB681B680C3312781A70FB68D6
:104E58001B6B5A1CFB681A63FB68DB8E9BB2013B19
:104E68009AB2FB68DA8618E0FEF706FF0246FB698D
:104E7800D31A3A689A4203D83B68B3F1FF3F02D18C
:104E88003B68002B09D1FB68012283F85120FB689D
:104E9800002283F8502003232DE0FB68DB8E9BB2B1
:104EA800002BC6D1FA693968F86800F0D9FB0346C7
:104EB800002B02D0FB6820225A65FB689B68002BF8
:104EC8000AD100237B61FB681B68DB687B61FB6898
:104ED8001B689B687B617B69FB68012283F8512012
:104EE800FB68002283F85020FB685B6D002B01D023
:104EF800012300E0002318462037BD4680BD80B559
:104F080088B002AFF860B9603B601346FB80FB686D
:104F180093F85130DBB2012B01D0022304E1BB68C6
:104F2800002B02D0FB88002B01D10123FCE0FB6899
:104F38005B68B3F5827F12D1FB689B68002B0ED1AA
:104F4800FB68042283F85120FA883B6800931346D3
:104F5800BA68B968F86800F0EBF80346E4E0FEF7D1
:104F68008BFE7861FB6893F85030012B01D1022346
:104F7800DAE0FB68012283F85020FB68042283F8FA
:104F88005120FB6800225A65FB68BA689A63FB687F
:104F9800FA889A87FB68FA88DA87FB6800221A631E
:104FA800FB6800229A86FB680022DA86FB680022EA
:104FB8001A64FB6800225A64FB689B68B3F5004FCB
:104FC8000FD1FB681B681A68FB681B6822F0400257
:104FD8001A60FB681B681A68FB681B6822F4804229
:104FE8001A60FB681B681B6803F04003402B07D05E
:104FF800FB681B681A68FB681B6842F040021A606D
:10500800FB68DB68002B70D135E0FB681B689B6888
:1050180003F00103012B15D1FB681B6803F10C0297
:10502800FB689B6B1278D2B21A70FB689B6B5A1C98
:10503800FB689A63FB68DB8F9BB2013B9AB2FB6803
:10504800DA8718E0FEF718FE02467B69D31A3A6839
:105058009A4203D83B68B3F1FF3F02D13B68002B6B
:1050680009D1FB68012283F85120FB68002283F8EC
:105078005020032358E0FB68DB8F9BB2002BC4D180
:1050880038E0FB681B689B6803F00103012B13D110
:10509800FB681B68DA68FB689B6B92B21A80FB6836
:1050A8009B6B9A1CFB689A63FB68DB8F9BB2013B86
:1050B8009AB2FB68DA8718E0FEF7DEFD02467B69E4
:1050C800D31A3A689A4203D83B68B3F1FF3F02D13A
:1050D8003B68002B09D1FB68012283F85120FB684B
:1050E800002283F8502003231EE0FB68DB8F9BB26D
:1050F800002BC6D17A693968F86800F04BFA034684
:10510800002B02D0FB6820225A65FB68012283F835
:105118005120FB68002283F85020FB685B6D002B50
:1051280001D0012300E0002318461837BD4680BD92
:1051380080B58AB000AFF860B9607A607B800123DF
:105148007B62FEF799FD3862FB6893F85130FB7774
:10515800FB685B68BB617B88FB82FB7F012B0CD003
:10516800BB69B3F5827F06D1FB689B68002B02D12F
:10517800FB7F042B01D002237FE1BB68002B05D005
:105188007B68002B02D07B88002B01D1012374E1BE
:10519800FB6893F85030012B01D102236DE1FB68C5
:1051A800012283F85020FB6893F85130DBB2042BBE
:1051B80003D0FB68052283F85120FB6800225A655A
:1051C800FB687A689A63FB687A88DA87FB687A886A
:1051D8009A87FB68BA681A63FB687A88DA86FB687C
:1051E8007A889A86FB6800221A64FB6800225A644F
:1051F800FB681B681B6803F04003402B07D0FB6863
:105208001B681A68FB681B6842F040021A60FB685A
:10521800DB68B3F5006F7ED1FB685B68002B02D0BA
:10522800FB8A012B6CD1FB681B6B1A88FB681B6817
:10523800DA60FB681B6B9A1CFB681A63FB68DB8EE1
:105248009BB2013B9AB2FB68DA8659E0FB681B689F
:105258009B6803F00203022B1BD1FB68DB8E9BB219
:10526800002B16D07B6A012B13D1FB681B6B1A88A5
:10527800FB681B68DA60FB681B6B9A1CFB681A6387
:10528800FB68DB8E9BB2013B9AB2FB68DA8600238F
:105298007B62FB681B689B6803F00103012B19D133
:1052A800FB68DB8F9BB2002B14D0FB681B68DA68A5
:1052B800FB689B6B92B21A80FB689B6B9A1CFB681D
:1052C8009A63FB68DB8F9BB2013B9AB2FB68DA8773
:1052D80001237B62FEF7D0FC02463B6AD31A3A6B85
:1052E8009A420DD83B6BB3F1FF3F09D0FB6801220E
:1052F80083F85120FB68002283F850200323BCE088
:10530800FB68DB8E9BB2002BA0D1FB68DB8F9BB2C6
:10531800002B9BD182E0FB685B68002B02D0FB8AE4
:10532800012B71D1FB681A6BFB681B680C33127870
:105338001A70FB681B6B5A1CFB681A63FB68DB8ED0
:105348009BB2013B9AB2FB68DA865DE0FB681B689A
:105358009B6803F00203022B1CD1FB68DB8E9BB217
:10536800002B17D07B6A012B14D1FB681A6BFB68E2
:105378001B680C3312781A70FB681B6B5A1CFB688D
:105388001A63FB68DB8E9BB2013B9AB2FB68DA8634
:1053980000237B62FB681B689B6803F00103012BF9
:1053A80019D1FB68DB8F9BB2002B14D0FB681B68FC
:1053B800DA68FB689B6BD2B21A70FB689B6B5A1C4D
:1053C800FB689A63FB68DB8F9BB2013B9AB2FB6870
:1053D800DA8701237B62FEF74FFC02463B6AD31A49
:1053E8003A6B9A4203D83B6BB3F1FF3F02D13B6B58
:1053F800002B09D1FB68012283F85120FB680022A9
:1054080083F85020032338E0FB68DB8E9BB2002B27
:105418009CD1FB68DB8F9BB2002B97D13A6A396B22
:10542800F86800F01DF90346002B08D0FB6820221D
:105438005A65FB68002283F8502001231DE0FB68B1
:105448009B68002B0AD100233B61FB681B68DB6863
:105458003B61FB681B689B683B613B69FB680122F9
:1054680083F85120FB68002283F85020FB685B6DAD
:10547800002B01D0012300E0002318462837BD4641
:1054880080BD000080B588B000AFF860B9603B60AF
:105498001346FB71FEF7F0FB0246BB6A9B1A3A689B
:1054A8001344FB61FEF7E8FBB861394B1B685B01ED
:1054B8001B0DFA6902FB03F37B6155E03B68B3F10E
:1054C800FF3F51D0FEF7D8FB0246BB69D31AFA69F1
:1054D8009A4202D9FB69002B3DD1FB681B685A68C8
:1054E800FB681B6822F0E0025A60FB685B68B3F552
:1054F800827F11D1FB689B68B3F5004F04D0FB682D
:105508009B68B3F5806F07D1FB681B681A68FB6856
:105518001B6822F040021A60FB689B6AB3F5005FC3
:105528000FD1FB681B681A68FB681B6822F40052DD
:105538001A60FB681B681A68FB681B6842F4005213
:105548001A60FB68012283F85120FB68002283F867
:105558005020032318E07B69002B02D10023FB6154
:1055680002E07B69013B7B61FB681B689A68BB684A
:105578001340BA689A420CBF01230023DBB21A46D3
:10558800FB799A429AD1002318462037BD4680BD40
:105598002400002080B586B002AFF860B9607A6058
:1055A800FB685B68B3F5827F11D1FB689B68B3F534
:1055B800004F04D0FB689B68B3F5806F07D1FB6888
:1055C8001B681A68FB681B6822F040021A60FB68B7
:1055D8005B68B3F5827F2AD1FB689B68B3F5806F5F
:1055E80012D07B680093BB6800228021F868FFF71F
:1055F80049FF0346002B2DD0FB685B6D43F020026A
:10560800FB685A65032326E07B680093BB68002289
:105618000121F868FFF736FF0346002B1AD0FB6814
:105628005B6D43F02002FB685A65032313E07B6837
:105638000093BB6800220121F868FFF723FF0346A7
:10564800002B07D0FB685B6D43F02002FB685A65AE
:10565800032300E0002318461037BD4680BD000034
:1056680080B588B002AFF860B9607A607B68009353
:10567800BB6801220221F868FFF704FF0346002BEC
:1056880007D0FB685B6D43F02002FB685A65032373
:1056980032E01B4B1B681B4AA2FB03235B0D4FF434
:1056A8007A7202FB03F37B61FB685B68B3F5827F68
:1056B80012D17B680093BB6800228021F868FFF74D
:1056C800E1FE0346002B16D0FB685B6D43F0200219
:1056D800FB685A6503230FE07B69002B0AD07B69BE
:1056E800013B7B61FB681B689B6803F08003802B90
:1056F800F2D000E000BF002318461837BD4680BD31
:1057080024000020819F5E1680B584B000AFF86049
:10571800B9607A60FB68002B01D1012338E0FB688F
:1057280093F84930DBB2002B06D1FB68002283F8DE
:105738004820F868FCF7ACFFFB681A68FB68083378
:105748001946104601F0C2F8FB681868FB689B68A8
:105758001A46B96801F024F9FB685868FB689A682A
:10576800FB681B6B796801F049F9FB681B68FA68EC
:10577800926853F82210FB681B68FA68926841F037
:10578800010143F82210FB68012283F84920002315
:1057980018461037BD4680BD80B582B000AF78602E
:1057A8007B68002B01D1012341E07B6893F83D30F1
:1057B800DBB2002B06D17B68002283F83C20786896
:1057C800FEF758F97B68022283F83D207B681A6847
:1057D8007B6804331946104600F0D2FC7B6801222E
:1057E80083F846207B68012283F83E207B680122EB
:1057F80083F83F207B68012283F840207B680122E0
:1058080083F841207B68012283F842207B680122CB
:1058180083F843207B68012283F844207B680122B7
:1058280083F845207B68012283F83D200023184631
:105838000837BD4680BD000080B485B000AF7860F1
:105848007B6893F83D30DBB2012B01D001234EE099
:105858007B68022283F83D207B681B68DA687B68D6
:105868001B6842F00102DA607B681B68234A934296
:1058780022D07B681B68B3F1804F1DD07B681B6802
:105888001F4A934218D07B681B681E4A934213D064
:105898007B681B681C4A93420ED07B681B681B4AB6
:1058A800934209D07B681B68194A934204D07B68ED
:1058B8001B68184A934211D17B681B689B6803F0E8
:1058C8000703FB60FB68062B10D07B681B681A680F
:1058D8007B681B6842F001021A6007E07B681B685E
:1058E8001A687B681B6842F001021A600023184698
:1058F8001437BD465DF8047B704700BF00000140C7
:105908000004004000080040000C00400004014072
:10591800004001400018004080B582B000AF7860B8
:105928007B68002B01D1012341E07B6893F83D306F
:10593800DBB2002B06D17B68002283F83C20786814
:1059480000F039F87B68022283F83D207B681A68EA
:105958007B6804331946104600F012FC7B6801226C
:1059680083F846207B68012283F83E207B68012269
:1059780083F83F207B68012283F840207B6801225E
:1059880083F841207B68012283F842207B6801224A
:1059980083F843207B68012283F844207B68012236
:1059A80083F845207B68012283F83D2000231846B0
:1059B8000837BD4680BD80B483B000AF786000BFB3
:1059C8000C37BD465DF8047B7047000080B584B095
:1059D80000AF786039603B68002B09D17B6893F889
:1059E8003E30DBB2012B14BF01230023DBB222E0DF
:1059F8003B68042B09D17B6893F83F30DBB2012B5D
:105A080014BF01230023DBB215E03B68082B09D142
:105A18007B6893F84030DBB2012B14BF01230023CD
:105A2800DBB208E07B6893F84130DBB2012B14BF8E
:105A380001230023DBB2002B01D001237CE03B686B
:105A4800002B04D17B68022283F83E2013E03B68D8
:105A5800042B04D17B68022283F83F200BE03B68CB
:105A6800082B04D17B68022283F8402003E07B687E
:105A7800022283F841207B681B6801223968184696
:105A880000F06EFE7B681B682D4A934204D07B6849
:105A98001B682C4A934201D1012300E00023002B0C
:105AA80007D07B681B685A6C7B681B6842F400420D
:105AB8005A647B681B68224A934222D07B681B6821
:105AC800B3F1804F1DD07B681B681F4A934218D0E2
