:020000040800F2
:1000000000000220050500084D3900085539000898
:100010005D390008653900086D39000800000000EE
:10002000000000000000000000000000753900081A
:100030008339000800000000913900089F3900084A
:100040005505000855050008550500085505000828
:100050005505000855050008550500085505000818
:100060005505000855050008550500085505000808
:1000700055050008550500085505000855050008F8
:1000800055050008550500085505000855050008E8
:1000900055050008550500085505000855050008D8
:1000A00055050008550500085505000855050008C8
:1000B000AD39000855050008C1390008550500088C
:1000C00055050008550500085505000855050008A8
:1000D0005505000855050008550500085505000898
:1000E0005505000855050008550500085505000888
:1000F000D5390008550500085505000855050008C4
:100100005505000855050008550500085505000867
:100110005505000855050008550500085505000857
:100120005505000855050008550500085505000847
:100130005505000855050008550500085505000837
:100140005505000855050008550500085505000827
:100150005505000855050008550500085505000817
:100160005505000855050008550500085505000807
:100170005505000855050008550500080000000059
:080180005505000855050008B3
:1001880010B5054C237833B9044B13B10448AFF3C9
:1001980000800123237010BD300000200000000003
:1001A8002C6C000808B5034B1BB103490348AFF397
:1001B800008008BD00000000340000202C6C0008FE
:1001C800034613F8012B002AFBD1181A013870478F
:1001D80053B94AB9002908BF00281CBF4FF0FF31A6
:1001E8004FF0FF3000F088B9ADF1080C6DE904CE8E
:1001F80000F006F8DDF804E0DDE9022304B07047FA
:100208002DE9F047089D8E4604468846002B4AD1C2
:100218008A42174662D9B2FA82F64EB1C6F1200375
:1002280001FA06F820FA03F3B74043EA0808B44095
:100238004FEA174E1FFA87FCB8FBFEF1230C0EFBA2
:10024800118843EA084301FB0CF29A4209D9FB18CA
:1002580001F1FF3080F0EA809A4240F2E7800239EB
:100268003B449A1AA3B2B2FBFEF00EFB102243EAFB
:10027800024300FB0CFC9C4509D9FB1800F1FF3236
:1002880080F0D6809C4540F2D3803B44023840EA57
:100298000140A3EB0C0300211DB1F3400022C5E986
:1002A8000032BDE8F0878B4205D90DB1C5E90001E0
:1002B80000210846F5E7B3FA83F1002946D17345D2
:1002C80002D3824200F20581841A6EEB03020120F8
:1002D8009046002DE5D0C5E90048E2E7002A00F085
:1002E8009080B2FA82F6002E40F0A4808A1A030C9D
:1002F8004FEA174E80B2BCB20121B2FBFEFC0EFBE6
:100308001C2243EA024304FB0CF29A4207D9FB1869
:100318000CF1FF3802D29A4200F2E080C4469B1AE0
:10032800B3FBFEF20EFB123340EA034302FB04F474
:100338009C4207D9FB1802F1FF3002D29C4200F21E
:10034800CA8002461B1B42EA0C40A5E7C1F1200601
:100358008B4022FA06F71F430EFA01F420FA06F33F
:100368002EFA06FE4FEA1749234300FA01F81FFA4E
:1003780087FCBEFBF9F01C0C09FB10EE44EA0E44A6
:1003880000FB0CFEA64502FA01F209D93C1900F15E
:10039800FF3A80F09C80A64540F2998002383C44A0
:1003A800A4EB0E041FFA83FEB4FBF9F309FB134414
:1003B8004EEA044403FB0CFCA44508D93C1903F19C
:1003C800FF3E80F08280A4457FD9023B3C4443EA4B
:1003D8000040A4EB0C04A0FB02EC64457346E14624
:1003E80062D35FD05DB1B8EB030264EB090404FA91
:1003F80006F622FA01F31E43CC40C5E90064002149
:100408004FE7B1FBF2FC010C41EA0E4180B240EA31
:1004180001423B4638463C46B846BE462026B1FB1C
:10042800F7F1A2EB080241EA0C4166E7014618E73A
:1004380010462CE7C6F120022EFA02F3B740B1406D
:1004480020FA02F24FEA174E0A43B3FBFEF8BCB299
:100458000EFB1833110C41EA034108FB04F9B040C4
:1004680089454FEA104380B23ED9791808F1FF3C1C
:1004780001D289451FD8A1EB0901B1FBFEF909FB9F
:1004880004F80EFB191192B242EA0142424529D200
:10049800BA1809F1FF31C4D24245C2D2A9F102010A
:1004A8003A44BEE7F0459DD2BEEB02036CEB070C65
:1004B8000138E14696E7A7EB09094944A8F1020C7F
:1004C800B1FBFEF909FB04F8DBE773467FE750460A
:1004D80066E70846FDE63B44023A33E7ACF1020C16
:1004E8003B441CE749469CE7A1EB0901C446B1FB24
:1004F800FEF909FB04F8C4E7704700BFDFF834D001
:1005080003F06EFA0C480D490D4A002302E0D45856
:10051800C4500433C4188C42F9D30A4A0A4C002345
:1005280001E013600432A242FBD306F057FB03F04C
:100538001DF8704700000220000000203000002055
:100548009C6403083000002048020020FEE70000F9
:1005580080B500AF01220821024803F01BFF00BF4D
:1005680080BD00BF000C024080B584B000AF0022FF
:1005780008212F4803F00EFF012208212C4803F020
:1005880009FF0A2302222B492B4804F068FD0023A7
:10059800FB604FF400437B8100237B603FE07B6876
:1005A800002B06DB7B68032B03DC7B680433FB60D2
:1005B80018E07B68032B07DD7B68072B04DC7B686E
:1005C800C3F10703FB600DE07B68072B06DD7B6842
:1005D8000B2B03DC7B680433FB6003E07B68C3F10F
:1005E8001703FB60134B1A887B8913409BB2002BBF
:1005F80005D0124AFB68002122F8131009E00F4ABF
:10060800FB6832F81330013399B20C4AFB6822F8C0
:1006180013107B895B087B817B6801337B607B6877
:100628000F2BBCDD00BF00BF1037BD4680BD00BF2B
:10063800000C02406C000020140100204C00002037
:1006480080B500AF044B1B6800225A6300210248A2
:1006580005F06CFA00BF80BDFC01002080B483B0B7
:1006680000AF0346FB71FB79632B01D96323FB7150
:10067800044B1B68FA795A6300BF0C37BD465DF816
:10068800047B7047FC01002080B500AF00210248C0
:1006980005F014FB00BF80BDFC01002080B500AF51
:1006A8002A4B1B780D2B4ED801A252F823F000BF1D
:1006B800F106000801070008070700080D070008F1
:1006C80013070008190700081F0700082507000876
:1006D8002B07000831070008370700084307000800
:1006E800490700083D07000800F0DEFA00F0AAF804
:1006F800164B01221A7027E000F0DEFA24E000F021
:100708001BFC21E000F00AFD1EE000F057FE1BE094
:1007180000F0BAFF18E000F0F3FF15E001F026F84A
:1007280012E001F05BF80FE001F098F80CE000F03F
:10073800A9FE09E000F068FF06E001F06BFA03E0AB
:1007480001F0C0FC00E000BF00BF80BD6E000020CB
:1007580080B582B000AF0C4B00221A7000237B607A
:100768000AE00A4A7B68134400221A70786802F08B
:10077800E5FE7B6801337B607B68032BF1DD00BFFE
:1007880000BF0837BD4680BD6F0000207000002004
:1007980080B485B000AF78600023FB6022E0164A81
:1007A800FB6832F81330002B14BF01230023DBB29F
:1007B800FB72FB7A002B07D0104AFB6813441B78A6
:1007C800002B01D1012100E00021FB687A68134465
:1007D800CAB21A70094AFB681344FA7A1A70FB689D
:1007E8000133FB60FB680F2BD9DD00BF00BF143756
:1007F800BD465DF8047B70474C000020780000205F
:1008080080B483B000AF0023FB710CE0FB790B4A86
:10081800D25CFB790A49CB5C9A4201D0002306E0FE
:10082800FB790133FB71FB79032BEFD901231846C0
:100838000C37BD465DF8047B704700BF04000020FC
:100848007000002080B584B004AF00230093142307
:10085800F0220021002002F073F900230093AA235C
:10086800F0229621002002F06BF900230093AC23BC
:10087800F0221421002002F063F9002302931023D0
:1008880001930023009347F67C53134A002100206C
:1008980002F04CFD114B0093782348221E2154206E
:1008A80002F006FB0E4B00939423F022AC210020AB
:1008B80002F0FEFA0B4B00931E231E224B21C3208D
:1008C80002F0F6FA084B14221A70084B01221A702B
:1008D80000BFBD4680BD00BF446C0008E4B20108FB
:1008E800649D0008E40B03080000002008000020B5
:1008F80080B584B004AF01F09DFE0023009314235B
:10090800F0220021002002F01BF90023029310239B
:1009180001930023009347F67C530C4A00210020E2
:1009280002F004FD0A4B0093782348221E2154202C
:1009380002F0BEFA074B00939423F022AC2100206A
:1009480002F0B6FA00BFBD4680BD00BF4C6C00087F
:10095800E4B20108649D000880B584B004AF01F0DA
:1009680069FE002300931423F0220021002002F0E6
:10097800E7F800230293102301930023009347F61E
:100988007C530C4A0021002002F0D0FC0A4B009353
:10099800782348221E21542002F08AFA074B00933C
:1009A8009423F022AC21002002F082FA00BFBD4659
:1009B80080BD00BF646C0008E4B2010864F6010859
:1009C80080B584B004AF002300931423F0220021E3
:1009D800002002F0B5F800230293102301930023AE
:1009E800009347F67C530C4A0021002002F09EFC3D
:1009F8000A4B00931E231E224B21C32002F058FAF3
:100A0800074B04221A704FF47A71002002F092FE0C
:100A180000BFBD4680BD00BF806C0008E40B030822
:100A28006E00002080B584B004AF00230093142327
:100A3800F0220021002002F083F80023009399237C
:100A4800B1221E21542002F07BF8002302931023C8
:100A580001930023009347F67C530C4A00210020A1
:100A680002F064FC0A4B00931E231E224B21C32074
:100A780002F01EFA074B0093782348221E215420C7
:100A880002F016FA00BFBD4680BD00BF946C000896
:100A9800EC120308E4B2010880B584B004AF002367
:100AA80000931423F0220021002002F049F80023CB
:100AB80000939923B1221E21542002F041F800230B
:100AC8000093AA23F0229621002002F039F800238F
:100AD8000293102301930023009347F67C530C4A9A
:100AE8000021002002F022FC0A4B00931E231E2244
:100AF8004B21C32002F0DCF9074B009378234822EE
:100B08001E21542002F0D4F900BFBD4680BD00BFAD
:100B1800A06C0008EC120308F419030880B584B02F
:100B280004AF002300931423F0220021002002F0D8
:100B380007F8002300939923B1221E21542001F0C5
:100B4800FFFF0023009369233C224B211E2001F064
:100B5800F7FF00230293102301930023009347F625
:100B68007C530C4A0021002002F0E0FB0A4B009362
:100B78001E231E224B21C32002F09AF9074B009333
:100B8800782348221E21542002F092F900BFBD4666
:100B980080BD00BFAC6C0008EC120308E4B2010889
:100BA80080B584B004AF002300931423F022002101
:100BB800002001F0C5FF002300939923B1221E21D4
:100BC800542001F0BDFF002302931023019300235A
:100BD80000934FF47843134A0021002002F0A6FB4B
:100BE800114B00931E231E224B211E2002F060F998
:100BF8000E4B00931E231E224B21C32002F058F9EE
:100C08000B4B0093782348221E21542002F050F900
:100C18004FF4FA71042002F08DFDFFF711FD00BFBB
:100C2800BD4680BDB86C0008745D0308EC1203086B
:100C3800F419030880B584B004AF0023009314238B
:100C4800F0220021002001F07BFF0023009399236C
:100C5800B1221E21542001F073FF002302931023B8
:100C680001930023009347F67C530C4A002100208F
:100C780002F05CFB0A4B00931E231E224B21C3206B
:100C880002F016F9074B0093782348221E215420BE
:100C980002F00EF900BFBD4680BD00BFD06C000851
:100CA800E40B0308E4B2010880B400AF00BFBD46FE
:100CB8005DF8047B7047000080B58AB002AF974B9F
:100CC8001B78142B08D1964B00939423F022AC2167
:100CD800002002F0EDF807E0924B00939423F022F5
:100CE800AC21002002F0E4F8002002F03FFD0346AA
:100CF800002B00F00F81052002F038FD0346002B81
:100D080006D0894B1B78002B02D001F093FC02E13E
:100D18003B461846FFF73CFDFB7B002B06D001F055
:100D28004BFC6421002002F005FDF4E0BB7B002BA6
:100D38000BD001F07FFC00F0FBFD7C4B0B221A70FE
:100D48006421002002F0F6FCE5E03B7B002B0FD08D
:100D580001F070FC714B1B78142B01D1152200E0B7
:100D680014226E4B1A706421002002F0E3FCD2E0DA
:100D78006A4B1B78142B70D14FF0FF33FB617B7BE0
:100D8800012B02D10023FB6134E03B78012B02D117
:100D98000123FB612EE07B78012B02D10223FB614A
:100DA80028E0BB78012B02D10323FB6122E03B79C9
:100DB800012B02D10423FB611CE07B79012B02D1BA
:100DC8000523FB6116E0BB79012B02D10623FB61E9
:100DD80010E03B7A012B02D10723FB610AE07B7A02
:100DE800012B02D10823FB6104E0BB7A012B01D15E
:100DF8000923FB61FB69002BC0F28780FFF778FDB0
:100E08004B4B00221A700023BB610AE0494ABB69B8
:100E1800134400221A70B86902F090FBBB690133D1
:100E2800BB61BB69032BF1DDFB69DAB2414B1A7078
:100E380000220021F86902F045FB3D4B01221A709F
:100E48003A4B02221A706421002002F073FC43F628
:100E58009821022002F06EFC5DE04FF0FF337B61C9
:100E68003B78012B02D10A237B611CE07B78012BA4
:100E780002D10B237B6116E0BB78012B02D10C2336
:100E88007B6110E03B79012B02D10D237B610AE0E5
:100E98007B79012B02D10E237B6104E0BB79012B06
:100EA80001D10F237B617B69002B2EDBFFF754FDFB
:100EB8001F4B00221A7000233B610AE01D4A3B6960
:100EC800134400221A70386902F038FB3B69013379
:100ED8003B613B69032BF1DD7B69DAB2154B1A7074
:100EE80000220021786902F0EDFA114B01221A70F4
:100EF8000E4B03221A700A21002002F01BFC43F655
:100F08009821022002F016FC05E06421002002F07E
:100F180011FC00E000BF2037BD4680BD0000002066
:100F2800649D000864F60108740000206E0000202B
:100F38006F0000207000002080B586B000AF02204E
:100F480002F014FC0346002B07D0FFF701FCFFF763
:100F580079FC6D4B01221A70D2E0002002F006FCE9
:100F68000346002B00F0CB80052002F0FFFB034670
:100F7800002B06D0654B1B78002B02D001F05AFBE2
:100F8800BEE03B461846FFF703FC3B7B002B11D025
:100F9800FFF7E2FC5E4B15221A705B4B03221A70B6
:100FA8006421002002F0C6FB43F69821022002F0DB
:100FB800C1FBA5E0FB7B002B06D001F0FDFA642104
:100FC800002002F0B7FB9BE00023FB754FF0FF33D6
:100FD8003B617B7B012B02D100233B6134E03B78F2
:100FE800012B02D101233B612EE07B78012B02D13A
:100FF80002233B6128E0BB78012B02D103233B612C
:1010080022E03B79012B02D104233B611CE07B7970
:10101800012B02D105233B6116E0BB79012B02D1DC
:1010280006233B6110E03B7A012B02D107233B6189
:101038000AE07B7A012B02D108233B6104E0BB7AEA
:10104800012B01D109233B613B69002B19DB314B93
:101058001B78032B13D82F4B1B781A463B69D9B240
:101068002D4B99542B4B1B7800221946386902F0F6
:1010780029FA284B1B780133DAB2264B1A70012360
:10108800FB75FB78002B19D0FB7D002B16D1214B6B
:101098001B78002B10D01F4B1B78013BDAB21D4B7D
:1010A8001A701C4B1B781A461B4B00219954194B7C
:1010B8001B78184602F042FA0123FB75FB7D002BD2
:1010C80006D1FB79002B03D0FFF742FB0123FB7508
:1010D800FB7D002B04D043F69821022002F02AFB66
:1010E8000C4B1B78032B05D9FFF76AFC064B04222F
:1010F8001A7005E06421002002F01CFB00E000BF2C
:101108001837BD4680BD00BF6E0000207400002067
:10111800000000206F0000207000002080B586B01D
:1011280000AF022002F022FB0346002B07D0FFF796
:101138000FFBFFF787FB614B01221A70BAE0002012
:1011480002F014FB0346002B00F0B380052002F0E8
:101158000DFB0346002B06D0594B1B78002B02D001
:1011680001F068FAA6E03B461846FFF711FB3B7B07
:10117800002B11D0FFF7BCFB524B14221A704F4BB7
:1011880002221A706421002002F0D4FA43F6982152
:10119800022002F0CFFA8DE0FB7B002B06D001F095
:1011A8000BFA6421002002F0C5FA83E00023FB75E6
:1011B8004FF0FF333B613B78012B02D10A233B619F
:1011C8001CE07B78012B02D10B233B6116E0BB7836
:1011D800012B02D10C233B6110E03B79012B02D19A
:1011E8000D233B610AE07B79012B02D10E233B6181
:1011F80004E0BB79012B01D10F233B613B69002B34
:1012080019DB314B1B78032B13D82F4B1B781A464D
:101218003B69D9B22D4B99542B4B1B7800221946A8
:10122800386902F04FF9284B1B780133DAB2264BA4
:101238001A700123FB75FB78002B19D0FB7D002B5E
:1012480016D0214B1B78002B10D01F4B1B78013B6D
:10125800DAB21D4B1A701C4B1B781A461B4B002127
:101268009954194B1B78184602F068F90123FB754D
:10127800FB7D002B06D1FB79002B03D0FFF768FA22
:101288000123FB75FB7D002B04D043F69821022037
:1012980002F050FA0C4B1B78032B05D9FFF790FB93
:1012A800064B04221A7005E06421002002F042FA7D
:1012B80000E000BF1837BD4680BD00BF6E000020AB
:1012C80074000020000000206F0000207000002043
:1012D80080B586B000AF0346FB80FA88364BA3FB87
:1012E8000213D9080B469B000B445B00D31A9BB230
:1012F8007B61FB88304AA2FB0323DB08FB80FA886A
:101308002D4BA3FB0213D9080B469B000B445B0033
:10131800D31A9BB23B61FB88274AA2FB0323DB0855
:10132800FB80FA88244BA3FB0213D9080B469B00C9
:101338000B445B00D31A9BB2FB60FB881E4AA2FBDE
:101348000323DB08FB80FB88BB60BB68002B05DD43
:1013580000220021B86802F0B5F802E0002002F08F
:10136800EDF8BB68002B02DCFB68002B05DD0022D2
:101378000121F86802F0A6F802E0012002F0DEF888
:10138800BB68002B05DCFB68002B02DC3B69002BEB
:1013980005DD00220221386902F094F802E00220FB
:1013A80002F0CCF800220321786902F08BF800BF24
:1013B8001837BD4680BD00BFCDCCCCCC80B584B03D
:1013C80004AF002002F0D2F90346002B4CD0FFF7FF
:1013D80017FA0346002B29D001F02CF900230293B9
:1013E80010230193002300934FF4FC63204A9621B5
:1013F800002001F09BFF1F4B00221A701E4B002299
:101408001A7040F2DC51002002F094F91B4B0522BF
:101418001A70FFF707FB42F21071042002F08AF9F4
:1014280047F23051032002F085F91EE001F002F97D
:101438000023029310230193002300934FF4784371
:101448000F4A9621002001F071FF0A4B1B780133E7
:10145800DAB2084B1A7040F2DC51002002F06AF947
:10146800064B0A221A7000E000BFBD4680BD00BFCF
:10147800E06C000888000020890000206E00002031
:10148800F46C000880B582B000AF002002F06EF95D
:101498000346002B5BD0304B1B78022B1FD9FFF77C
:1014A80057F9FFF7CFF92D4B01221A704EF660233A
:1014B8003B602B4B1B781A463B6893403B6038686F
:1014C80000F052F8254B0D221A70254B1B7801337A
:1014D800DAB2234B1A70204B00221A7038E01E4BE8
:1014E8001B78002B0DD01C4B1B78022B09D800F061
:1014F800AFFA1A4B0B221A706421002002F01AF975
:1015080026E0184B1B78022B15D94EF660237B601A
:10151800134B1B781A467B6893407B60786800F011
:1015280023F80E4B0D221A700D4B1B780133DAB2DB
:101538000B4B1A700CE0FFF70BF9FFF783F9074B19
:1015480001221A706421002002F0F4F800E000BFC4
:101558000837BD4680BD00BFA10000206E000020F6
:10156800890000208800002080B588B004AF78602A
:10157800214A7B681360204B1B6803F2E7331F4A3C
:10158800A2FB03239B09FB81FB891846FFF7A0FEFA
:10159800002300931423F0220021002001F0D0FA48
:1015A80000230093AA23F0229621002001F0C8FA14
:1015B8000023029310230193002300934FF47843F0
:1015C8000F4A0021002001F0B1FE002302931023EE
:1015D8000193002300934FF6E0730A4A96210020F6
:1015E80001F0A4FE4FF47A71002002F0A3F800BFC6
:1015F8001037BD4680BD00BF8C000020D34D62105F
:10160800086D0008106D000880B582B000AF00209A
:1016180002F0ACF80346002B2CD0184B1B68B3F52E
:101628007A7F18D3154B1B68A3F57A73134A136096
:10163800124B1B6803F2E733114AA2FB03239B09F1
:10164800FB80FB881846FFF743FE4FF47A710020B1
:1016580002F070F80FE0094B00221A60FFF778F8E3
:10166800FFF7F0F8074B01221A706421002002F0FE
:1016780061F800E000BF0837BD4680BD8C0000203F
:10168800D34D62106E00002080B584B000AF0020FA
:1016980002F06CF80346002B2BD03B461846FFF7A8
:1016A80077F8FB7B002B0ED0FFF7F6F9134B0622D9
:1016B8001A7047F23051032002F03CF864210020F0
:1016C80002F038F816E0042002F050F80346002B28
:1016D8000AD0FFF7AFFA094B09221A704FF4FA61E2
:1016E800002002F027F805E06421002002F022F82B
:1016F80000E000BF1037BD4680BD00BF6E0000206F
:1017080080B584B000AF002002F030F80346002B0B
:1017180025D03B461846FFF73BF8FB7B002B09D04A
:10172800FFF7FCF9104B07221A706421002002F021
:1017380001F815E0032002F019F80346002B09D040
:10174800FFF72EFA084B08221A706421002001F0D6
:10175800F1FF05E06421002001F0ECFF00E000BF8C
:101768001037BD4680BD00BF6E00002080B584B034
:1017780000AF002001F0FAFF0346002B28D03B46BB
:101788001846FFF705F8FB7A002B0AD0FFF752FA44
:10179800114B09221A704FF4FA61002001F0CAFFB8
:1017A80017E0FB7B002B0ED0FFF776F90A4B0622D9
:1017B8001A7047F23051032001F0BCFF6421002069
:1017C80001F0B8FF05E06421002001F0B3FF00E05C
:1017D80000BF1037BD4680BD6E00002080B584B0C4
:1017E80000AF002001F0C2FF0346002B2ED03B467D
:1017F8001846FEF7CDFF042001F0B8FF0346002B82
:1018080008D02021134802F0DEFD4FF4FA710420BD
:1018180001F090FF3220FEF721FFFB7B002B10D058
:10182800FEF732FFFFF77AF90B4B07221A70642193
:10183800002001F07FFF00222021064802F0AAFDC7
:1018480005E06421002001F075FF00E000BF1037BB
:10185800BD4680BD001002406E00002080B500AF7C
:10186800002001F083FF0346002B0BD0FEF770FF2A
:10187800FEF7E8FF044B01221A706421002001F0F2
:1018880059FF00E000BF80BD6E00002080B483B027
:1018980000AF78607B681B78002B01D0012340E003
:1018A8007B6801331B78002B01D0022339E07B6869
:1018B80002331B78002B01D0032332E07B6804330A
:1018C8001B78002B01D004232BE07B6805331B78A1
:1018D800002B01D0052324E07B6806331B78002BFE
:1018E80001D006231DE07B6808331B78002B01D04C
:1018F800072316E07B6809331B78002B01D00823E7
:101908000FE07B680A331B78002B01D0092308E01D
:101918007B680D331B78002B01D0002301E04FF0CA
:10192800FF3318460C37BD465DF8047B704700004E
:1019380080B586B004AF002300931423F022002161
:10194800002001F0FDF800230293102301930023E7
:10195800009347F67C53324A0021002001F0E6FC50
:1019680000230093AC23F0221421002001F0E8F8B2
:1019780000230293102301930023009347F67C531E
:10198800284A3221142001F06DFC00230293102311
:1019980001930023009347F67C53234A50211420D7
:1019A80001F060FC002302931023019300230093AD
:1019B80047F67C531D4A6E21142001F053FC1C4B42
:1019C80000939423F022AC21002001F071FA194B06
:1019D80000221A70184B00221A70184B00221A7035
:1019E80000237B6011E0164A7B68134400221A70BA
:1019F800144A7B68134400221A70134A7B68134404
:101A080000221A707B6801337B607B68032BEADD58
:101A18000E4B14221A7000BF0837BD4680BD00BFA8
:101A2800206D0008306D0008406D0008506D0008FA
:101A3800649D000890000020A0000020A100002064
:101A480094000020980000209C0000200000002046
:101A580080B586B004AF002300931423F022002140
:101A6800002001F06DF80023029310230193002356
:101A7800009347F67C53304A0021002001F056FCC1
:101A880000230093AC23F0221421002001F058F821
:101A980000230293102301930023009347F67C53FD
:101AA800264A3221142001F0DDFB00230293102383
:101AB80001930023009347F67C53214A50211420B8
:101AC80001F0D0FB0023029310230193002300931D
:101AD80047F67C531B4A6E21142001F0C3FB1A4BB6
:101AE80000939423F022AC21002001F0E1F9174B78
:101AF80000221A70164B00221A7000237B6011E036
:101B0800144A7B68134400221A70134A7B681344F2
:101B180000221A70114A7B68134400221A707B68ED
:101B280001337B607B68032BEADD0D4B14221A70AE
:101B380000BF0837BD4680BD206D0008306D000825
:101B4800406D0008506D0008649D0008900000205A
:101B5800A000002094000020980000209C00002095
:101B68000000002080B584B004AF00230093142344
:101B7800F0220021002000F0E3FF0023029310234D
:101B880001930023009347F67C53094A0021002063
:101B980001F0CCFB074B00939423F022AC210020EA
:101BA80001F086F9044B14221A7000BFBD4680BDAF
:101BB800206D0008649D00080000002080B584B0F6
:101BC80004AF002300931423F0220021002000F02A
:101BD800B7FF00230293102301930023009347F6D5
:101BE8007C53094A0021002001F0A0FB074B009319
:101BF8009423F022AC21002001F05AF9044B15225D
:101C08001A7000BFBD4680BD206D000864F601084B
:101C18000000002090B593B004AF002001F0A6FDAD
:101C28000346002B00F032823B461846FEF7B0FD13
:101C3800BB7B002B0BD0FEF78BFDFEF703FE8E4B14
:101C480001221A706421002001F074FD1FE23B7B21
:101C5800002B09D0FFF7B2FF874B0C221A706421C2
:101C6800002001F067FD12E2FB78002B56D0834B71
:101C78001B78002B4DD0814B1B78013BDAB27F4B90
:101C88001A707F4B1B78002B07D07D4B1B78012BDC
:101C980001D1502302E06E2300E032233B82774BD0
:101CA8001B781A46920013449B009BB28C3398B25F
:101CB800724B1B781A46920013449B009BB29C33CC
:101CC8009AB23B8A10339BB2398A0024009400F000
:101CD80037FF6B4B1B78002B06D1684B1B781A46D5
:101CE800684B0021995414E0654B1B78012B06D1F1
:101CF800624B1B781A46644B0021995409E0604BEB
:101D08001B78022B05D15D4B1B781A465F4B0021CF
:101D180099546421002001F00DFDB8E1FB79002BF6
:101D280057D0574B1B78002B07D0554B1B78012BEE
:101D380001D1502302E06E2300E032237B827B8AAC
:101D480014339BB2798A00220092F0228C2000F092
:101D5800F7FE4A4B00221A70494B1B78002B0ED114
:101D680000237B6307E0474A7B6B134400221A7009
:101D78007B6B01337B637B6B032BF4DD24E0404BEF
:101D88001B78012B0ED100233B6307E03E4A3B6BD7
:101D9800134400221A703B6B01333B633B6B032BEC
:101DA800F4DD11E0364B1B78022B0DD10023FB62CA
:101DB80007E0364AFB6A134400221A70FB6A0133B3
:101DC800FB62FB6A032BF4DD6421002001F0B2FC06
:101DD8005DE13B461846FFF759FD78617B69002BAA
:101DE800C0F24F81254B1B78032B00F24A81244B0C
:101DF8001B78002B1DD1214B1B781A467B69D9B261
:101E0800204B99541D4B1B781A46920013449B0093
:101E18009BB28C3398B27B699AB210230293002349
:101E2800019347F67C5300930123322100F0C2FF4F
:101E38004FE0134B1B78012B2AD1104B1B781A4605
:101E48007B69D9B2104B99540C4B1B781A469200F7
:101E580013449B009BB28C3398B27B699AB21023CF
:101E680002930023019347F67C53009301235021EA
:101E780000F0A0FF2DE000BF6E000020A0000020B1
:101E88009000002094000020980000209C00002072
:101E9800804B1B78022B1CD17F4B1B781A467B6921
:101EA800D9B27E4B99547C4B1B781A469200134446
:101EB8009B009BB28C3398B27B699AB21023029331
:101EC8000023019347F67C53009301236E2100F011
:101ED80071FF714B1B780133DAB26F4B1A706E4B7E
:101EE8001B78032B40F2CD806B4B00221A70694B94
:101EF8001B780133DAB2674B1A70664B1B78022BDA
:101F080040F2BF80012387F82B3000237B6210E06A
:101F1800634A7B6A13441A7862497B6A0B441B78CC
:101F28009A4203D0002387F82B3005E07B6A0133FF
:101F38007B627B6A032BEBDD012387F823300023C8
:101F4800FB6110E0584AFB6913441A785349FB694E
:101F58000B441B789A4203D0002387F8233005E00E
:101F6800FB690133FB61FB69032BEBDD97F82B3031
:101F7800002B36D097F82330002B32D00023BB61DA
:101F88000BE0494ABB6913441978464ABB691344B4
:101F98000A461A70BB690133BB61BB69032BF0DDCC
:101FA800002300931423F0228C21002000F0C8FDA8
:101FB8000023029310230193002300934FF4FC6342
:101FC8003A4A8C21002001F0B1F9394B00221A70ED
:101FD8004FF4FA61002001F0ADFB364B09221A706C
:101FE80055E0002300931423F0228C21002000F0F8
:101FF800A7FD97F82B30002B2DD12D4B1B780133E3
:10200800DAB22B4B1A702A4B1B78022B15D90023F6
:10201800029310230193002300934FF47843264A38
:102028008C21002001F082F940F2DC51002001F0FF
:1020380081FB204B0A221A7029E000230293102307
:102048000193002300934FF478431C4A8C2100200D
:1020580001F06CF90CE00023029310230193002394
:1020680000934FF47843164A8C21002001F05EF962
:1020780040F2DC51002001F05DFB0E4B0A221A7081
:1020880005E06421002001F055FB00E000BF3C376B
:10209800BD4690BD90000020A00000209C000020BC
:1020A8009400002004000020980000205C6D0008C7
:1020B800A10000206E000020706D0008846D0008EB
:1020C800986D000890B595B004AF002001F04EFB64
:1020D8000346002B00F054823B1D1846FEF758FBC0
:1020E800BB7C002B0BD0FEF733FBFEF7ABFB8F4B13
:1020F80001221A706421002001F01CFB41E23B7CA4
:10210800002B09D0FFF72EFD884B0B221A70642193
:10211800002001F00FFB34E2FB79002B56D0844BF2
:102128001B78002B4DD0824B1B78013BDAB2804BD9
:102138001A70804B1B78002B07D07E4B1B78012B25
:1021480001D1502302E06E2300E03223FB82784B5A
:102158001B781A46920013449B009BB28C3398B2AA
:10216800734B1B781A46920013449B009BB29C3316
:102178009AB2FB8A10339BB2F98A0024009400F0CB
:10218800DFFC6C4B1B78002B06D1694B1B781A4679
:10219800694B0021995414E0664B1B78012B06D13A
:1021A800634B1B781A46654B0021995409E0614B33
:1021B8001B78022B05D15E4B1B781A46604B002119
:1021C80099546421002001F0B5FADAE1FB7A002B7A
:1021D80057D0584B1B78002B07D0564B1B78012B38
:1021E80001D1502302E06E2300E032233B833B8B76
:1021F80014339BB2398B00220092F0228C2000F01D
:102208009FFC4B4B00221A704A4B1B78002B0ED1B7
:102218000023FB6307E0484AFB6B134400221A7053
:10222800FB6B0133FB63FB6B032BF4DD24E0414BB9
:102238001B78012B0ED10023BB6307E03F4ABB6B21
:10224800134400221A70BB6B0133BB63BB6B032BB7
:10225800F4DD11E0374B1B78022B0DD100237B6393
:1022680007E0374A7B6B134400221A707B6B0133FB
:102278007B637B6B032BF4DD6421002001F05AFAA9
:102288007FE14FF0FF333B633B79002B02D00A23F9
:102298003B631CE07B79002B02D00B233B6316E0E9
:1022A800BB79002B02D00C233B6310E03B7A002B58
:1022B80002D00D233B630AE07B7A002B02D00E2369
:1022C8003B6304E0BB7A002B01D00F233B633B6BDD
:1022D800002BC0F25081164B1B78032B00F24B8168
:1022E8003B6BDBB23733FB76124B1B78002B29D1C3
:1022F8000F4B1B781A463B6BD9B20F4B99540C4BBA
:102308001B781A46920013449B009BB28C3398B2F8
:10231800FA7E00230293102301930023009347F6CB
:102328007C53322100F05AFC4DE000BF6E000020C3
:10233800A0000020900000209400002098000020B9
:102348009C000020904B1B78012B1CD18F4B1B78D5
:102358001A463B6BD9B28E4B99548C4B1B781A4654
:10236800920013449B009BB28C3398B2FA7E0023F0
:102378000293102301930023009347F67C535021C6
:1023880000F02CFC1FE0804B1B78022B1BD17F4BED
:102398001B781A463B6BD9B27E4B99547B4B1B7802
:1023A8001A46920013449B009BB28C3398B2FA7E73
:1023B80000230293102301930023009347F67C53D4
:1023C8006E2100F00BFC714B1B780133DAB26F4BB6
:1023D8001A706E4B1B78032B40F2CD806B4B00229A
:1023E8001A70694B1B780133DAB2674B1A70664B67
:1023F8001B78022B40F2BF80012387F82F3000237F
:10240800BB6210E0644ABB6A13441A786349BB6A2A
:102418000B441B789A4203D0002387F82F3005E03D
:10242800BB6A0133BB62BB6A032BEBDD012387F870
:10243800273000233B6210E0554A3B6A13441A7860
:1024480054493B6A0B441B789A4203D0002387F80F
:10245800273005E03B6A01333B623B6A032BEBDD27
:1024680097F82F30002B36D097F82730002B32D032
:102478000023FB610BE0464AFB6913441978474A7D
:10248800FB6913440A461A70FB690133FB61FB6957
:10249800032BF0DD002300931423F0228C2100206D
:1024A80000F04EFB002302931023019300230093B6
:1024B8004FF4FC633A4A8C21002000F037FF394B77
:1024C80000221A704FF4FA61002001F033F9364BFC
:1024D80009221A7055E0002300931423F0228C215E
:1024E800002000F02DFB97F82F30002B2DD12D4B1D
:1024F8001B780133DAB22B4B1A702A4B1B78022B4C
:1025080015D90023029310230193002300934FF45D
:102518007843264A8C21002000F008FF40F2DC5165
:10252800002001F007F9204B0A221A7029E0002345
:10253800029310230193002300934FF478431C4A1D
:102548008C21002000F0F2FE0CE0002302931023FF
:102558000193002300934FF47843164A8C210020FE
:1025680000F0E4FE40F2DC51002001F0E3F80E4BED
:102578000A221A7005E06421002001F0DBF800E06F
:1025880000BF4437BD4690BD90000020A000002049
:10259800980000209C0000209400002004000020E7
:1025A8005C6D0008A10000206E000020706D00081E
:1025B800846D0008986D000880B584B004AF0023CE
:1025C8000093AA23F0229621002000F0B9FA154BB7
:1025D8001B78012B0DD100230293102301930023B4
:1025E80000934FF4FC63104A9621002000F09EFEF1
:1025F8000CE00023029310230193002300934FF46F
:10260800FC630A4A9621002000F090FE084B012244
:102618001A704FF47A71052001F08CF800BFBD469E
:1026280080BD00BF6E000020B06D0008C86D0008B6
:102638007400002080B582B002AF094B1B78012BD3
:102648000AD100230093AA23F0229621002000F04B
:1026580077FA034B00221A7000BFBD4680BD00BF49
:102668007400002080B58EB000AF07F11C03002273
:102678001A605A609A60DA601A615A619A613B4638
:1026880000221A605A609A60DA601A615A619A6187
:102698002F4B4FF020421A602D4B2E4A5A602C4B7C
:1026A80000229A602A4B0022DA60294B00221A6124
:1026B800274B10225A61264B00229A61244B002294
:1026C800DA61234B00221A62214B00225A62204B06
:1026D8004FF480529A621E4B0022DA621C4B4FF470
:1026E80080421A631A4B00225A63194B00229A63DC
:1026F800174B00225A640F23FB610F233B623C23D4
:102708007B620023BB621023FB6211233B6300231F
:102718007B6309233B600F237B600823BB60002396
:10272800FB6010233B6111237B610023BB613A46A8
:1027380007F11C031946064803F096F80346002BD8
:1027480001D000F0DCFF00BF3837BD4680BD00BFB8
:10275800A4000020040100A080B586B000AF3B1D96
:1027680000221A605A609A60DA601A611C4B1B6872
:10277800002B31D11A4B01221A6000233B60194B00
:102788009B6B184A43F001039363164B9B6B03F052
:1027980001033B603B684FF688737B600223BB6094
:1027A8000023FB6003233B610C237B613B1D19461F
:1027B8000D4801F053FC4CF2B3737B600223BB60FD
:1027C8000023FB6003233B610C237B613B1D1946FF
:1027D800064801F043FC00E000BF1837BD4680BD45
:1027E800F40000200038024000100240000C0240B3
:1027F80080B582B000AF7860FFF7AEFF00BF083742
:10280800BD4680BD80B58EB000AF07F1240300221D
:102818001A605A609A60DA601A6100233B626A4B58
:102828001B6B694A43F010031363674B1B6B03F080
:1028380010033B623B6A0023FB61634B1B6B624ADC
:1028480043F004031363604B1B6B03F00403FB6149
:10285800FB690023BB615C4B1B6B5B4A43F02003A5
:102868001363594B1B6B03F02003BB61BB69002347
:102878007B61554B1B6B544A43F080031363524BE7
:102888001B6B03F080037B617B6900233B614E4B2C
:102898001B6B4D4A43F0080313634B4B1B6B03F050
:1028A80008033B613B690023FB60474B1B6B464AAF
:1028B80043F040031363444B1B6B03F04003FB607E
:1028C800FB680023BB60404B1B6B3F4A43F001038E
:1028D80013633D4B1B6B03F00103BB60BB68002314
:1028E8007B60394B1B6B384A43F002031363364B4A
:1028F8001B6B03F002037B607B6800227021334866
:1029080001F048FD00224FF40051314801F042FD2A
:10291800002240212F4801F03DFD00224FF4807134
:102928002D4801F037FD002208212C4801F032FD26
:1029380070237B620123BB620023FB6200233B639D
:1029480007F124031946214801F088FB4FF400538E
:102958007B620123BB620023FB6200233B6307F118
:10296800240319461A4801F079FB40237B620123AE
:10297800BB620023FB6200233B6307F12403194673
:10298800144801F06BFB4FF480737B620123BB6238
:102998000023FB6200233B6307F1240319460E481A
:1029A80001F05CFB08237B620123BB620023FB620E
:1029B80000233B6307F124031946084801F04EFB46
:1029C80000BF3837BD4680BD0038024000100240C5
:1029D800000802400018024000000240000C0240BB
:1029E80080B483B000AF0346FB80044AFB881380A1
:1029F80000BF0C37BD465DF8047B7047FEFF0F60D3
:102A080080B483B000AF0346FB80044AFB88538040
:102A180000BF0C37BD465DF8047B7047FEFF0F60B2
:102A280080B483B000AF064B5B889BB2FB80FB8809
:102A38009BB218460C37BD465DF8047B704700BF53
:102A4800FEFF0F6090B583B000AF044608461146FC
:102A58001A462346FB800346BB800B467B80134601
:102A68003B802A20FFF7BCFFFB881B0A9BB2184655
:102A7800FFF7C6FFFB88DBB29BB21846FFF7C0FF23
:102A88007B881B0A9BB21846FFF7BAFF7B88DBB22C
:102A98009BB21846FFF7B4FF2B20FFF7A1FFBB88B6
:102AA8001B0A9BB21846FFF7ABFFBB88DBB29BB291
:102AB8001846FFF7A5FF3B881B0A9BB21846FFF78D
:102AC8009FFF3B88DBB29BB21846FFF799FF2C208B
:102AD800FFF786FF00BF0C37BD4690BD80B584B0B8
:102AE80000AF0346FB80154B1B88013B9AB2134B82
:102AF8005B88013B9BB200210020FFF7A3FF002366
:102B0800FB8111E00023BB8106E0FB881846FFF734
:102B180077FFBB890133BB81084B5B88BA899A422E
:102B2800F3D3FB890133FB81044B1B88FA899A4252
:102B3800E8D300BF00BF1037BD4680BDF8000020B5
:102B480090B585B000AF0446084611461A4623469C
:102B5800FB800346BB800B467B8013463B807B880B
:102B6800013B9AB23B88013B9BB2B988F888FFF7D2
:102B780069FFBB88FB8110E0FB88BB8106E03B8CCA
:102B88001846FFF73DFFBB890133BB81BA897B88B3
:102B98009A42F4D3FB890133FB81FA893B889A4234
:102BA800EAD300BF00BF1437BD4690BD80B582B0E0
:102BB80000AF0346FB800B46BB8013467B80BB8877
:102BC800FA88B988F888FFF73DFF7B881846FFF731
:102BD80017FF00BF0837BD4680BD000090B587B01D
:102BE80000AF0446084611461A462346FB800346B2
:102BF800BB800B46FB7013463B8000237B75FB882C
:102C08003B8297F82C305B08FB73FB7BDB08DBB25D
:102C18001A46FB7B03F00703DBB2002B14BF01232A
:102C28000023DBB213449AB297F82C309BB212FB04
:102C380003F3BB81FB78203BFB70FB7B9AB2FB88DC
:102C480013449BB2013B9CB297F82C309AB2BB88D4
:102C580013449BB2013B9BB2B988F8882246FFF720
:102C6800F1FE00237B827AE097F82C300C2B28D0D9
:102C780097F82C30102B08D1FA787B8A3C4912013E
:102C88000A4413441B78FB751BE097F82C30182B6B
:102C98000BD1FA78798A374813465B0013441B0135
:102CA80003440B441B78FB750BE097F82C30202B62
:102CB8005AD1FA787B8A304992010A4413441B7826
:102CC800FB750023BB7544E097F83030002B20D10A
:102CD800FA7DBB7D42FA03F303F00103002B04D015
:102CE8003B881846FFF78CFE03E03B8D1846FFF73C
:102CF80087FE7B7D01337B757B7DFA7BB3FBF2F12D
:102D080001FB02F29B1ADBB2002B1FD100237B755B
:102D180022E0FA7DBB7D42FA03F303F00103002BA6
:102D280005D03A88B988FB881846FFF73FFFFB882B
:102D38000133FB80FA883B8AD21AFB7B9A4205D181
:102D48003B8AFB80BB880133BB8005E0BB7D013338
:102D5800BB75BB7D072BB7D97B8A01337B827A8A07
:102D6800BB899A4280D300E000BF1C37BD4690BDA6
:102D7800E46D0008D4730008A485000880B485B009
:102D880000AF03460A46FB711346BB710123FB6083
:102D980004E0FA79FB6802FB03F3FB60BB795A1E77
:102DA800BA71002BF5D1FB6818461437BD465DF89B
:102DB800047B704790B589B004AF044608461146B5
:102DC8001A462346FB800346BB800B467B8013468E
:102DD8007B700023BB7397F828305B087B73002354
:102DE800FB7359E07C887A78FB7BD31ADBB2013B12
:102DF800DBB219460A20FFF7C1FF0346B4FBF3F123
:102E08002A4BA3FB0123DA0813469B0013445B00FB
:102E1800CA1A13463B73BB7B002B21D1FA7B7B7804
:102E2800013B9A421CDA3B7B002B17D1FB7B9AB201
:102E38007B7B9BB212FB03F39AB2FB88134498B2D4
:102E48003A8CB9880023029397F828300193BB8CF9
:102E5800009313462022FFF7C1FE1AE00123BB733B
:102E6800FB7B9AB27B7B9BB212FB03F39AB2FB8883
:102E7800134498B23B7B3033DAB23C8CB9880023D8
:102E8800029397F828300193BB8C00932346FFF7F1
:102E9800A5FEFB7B0133FB73FA7B7B789A42A1D3B7
:102EA80000BF00BF1437BD4690BD00BFCDCCCCCC11
:102EB80090B587B000AF0446084611461A46234627
:102EC800FB800346BB800B467B8013463B80002378
:102ED8003B61FA887B8813449BB2013B9CB2BA8859
:102EE8003B8813449BB2013B9BB2B988F8882246C1
:102EF800FFF7A8FD0023FB8228E00023BB821EE029
:102F08003B695B00BA6A13441B78FB733B695B003F
:102F18000133BA6A13441B78BB73FB7B1BB21B02D9
:102F28001AB2BB7B1BB213431BB29BB21846FFF706
:102F380067FD3B6901333B61BB8A0133BB82BA8AB7
:102F48003B889A42DCD3FB8A0133FB82FA8A7B886E
:102F58009A42D2D300BF00BF1C37BD4690BD0000C7
:102F680080B483B000AF0346FB71FB7903F03003F4
:102F7800DBB2002B07D00A4B4FF4A0721A80084B23
:102F8800F0225A8006E0064BF0221A80044B4FF4D8
:102F9800A0725A8000BF0C37BD465DF8047B7047AD
:102FA800F800002080B500AF00224FF40051AA4875
:102FB80001F0F0F94FF4FA7000F01AFF01224FF413
:102FC8000051A54801F0E6F94FF4FA7000F010FF3F
:102FD8000020FFF7C5FFD320FFF702FDFFF720FD14
:102FE80003461A469D4B9A80FFF71AFD03461A4678
:102FF8009A4B9A80FFF714FD03461A46974B9A801E
:10300800964B9B881B029AB2944B9A80FFF708FD57
:1030180003461A46914B9B8813439AB28F4B9A806A
:10302800CF20FFF7DDFC0020FFF7EAFCC120FFF707
:10303800E7FC3020FFF7E4FCED20FFF7D1FC64202B
:10304800FFF7DEFC0320FFF7DBFC1220FFF7D8FCBC
:103058008120FFF7D5FCE820FFF7C2FC8520FFF7A9
:10306800CFFC1020FFF7CCFC7A20FFF7C9FCCB205F
:10307800FFF7B6FC3920FFF7C3FC2C20FFF7C0FC94
:103088000020FFF7BDFC3420FFF7BAFC0220FFF751
:10309800B7FCF720FFF7A4FC2020FFF7B1FCEA20DB
:1030A800FFF79EFC0020FFF7ABFC0020FFF7A8FC11
:1030B800C020FFF795FC1B20FFF7A2FCC120FFF7FB
:1030C8008FFC0120FFF79CFCC520FFF789FC30200E
:1030D800FFF796FC3020FFF793FCC720FFF780FC32
:1030E800B720FFF78DFC3620FFF77AFC0820FFF7A2
:1030F80087FC3A20FFF774FC5520FFF781FCB120CC
:10310800FFF76EFC0020FFF77BFC1A20FFF778FC26
:10311800B620FFF765FC0A20FFF772FCA220FFF734
:103128006FFCF220FFF75CFC0020FFF769FC26200B
:10313800FFF756FC0120FFF763FCE020FFF750FC87
:103148000F20FFF75DFC2A20FFF75AFC2820FFF725
:1031580057FC0820FFF754FC0E20FFF751FC08200D
:10316800FFF74EFC5420FFF74BFCA920FFF748FC63
:103178004320FFF745FC0A20FFF742FC0F20FFF72A
:103188003FFC0020FFF73CFC0020FFF739FC002043
:10319800FFF736FC0020FFF733FCE120FFF720FCA7
:1031A8000020FFF72DFC1520FFF72AFC1720FFF75A
:1031B80027FC0720FFF724FC1120FFF721FC06203D
:1031C800FFF71EFC2B20FFF71BFC5620FFF718FC0F
:1031D8003C20FFF715FC0520FFF712FC1020FFF735
:1031E8000FFC0F20FFF70CFC3F20FFF709FC3F20E6
:1031F800FFF706FC0F20FFF703FC2B20FFF7F0FB7F
:103208000020FFF7FDFB0020FFF7FAFB0120FFF786
:10321800F7FB3F20FFF7F4FB2A20FFF7E1FB002034
:10322800FFF7EEFB0020FFF7EBFB0020FFF7E8FBC2
:10323800EF20FFF7E5FB1120FFF7D2FB782000F025
:10324800D7FD2920FFF7CCFB01224FF480710448F9
:1032580001F0A0F800BF80BD00080240F80000207F
:103268000000024090B58BB004AFBA601A4603461E
:10327800FB810B46BB811346FB80FB89BB82002385
:10328800FB7548E0FB7D002B45D1FA89264B1B884E
:10329800194697F82C305B08DBB2CB1A9A423FDC10
:1032A800BA89214B5B88194697F82C30CB1A9A4279
:1032B80036DCBB681B78802B02D90123FB752AE01A
:1032C800BB681B780D2B0BD197F82C309AB2BB89B1
:1032D8001344BB81BB8AFB81BB680133BB6017E029
:1032E800BB681A78FC88B989F88997F83030029356
:1032F80097F82C3001933B8D00932346FFF76EFC23
:1033080097F82C305B08DBB21A46FB891344FB8123
:10331800BB680133BB60BB681B78002BB2D100E0EF
:1033280000BF1C37BD4690BDF800002080B58AB0AC
:1033380004AFBA601A460346FB810B46BB811346AD
:10334800FB80B868FCF73CFF0346FB820F4B1B88E9
:103358001A46FB8ADB00D31ADA0F13445B10BB82D0
:10336800FA89BB8A134498B2FA88B98997F8283041
:10337800029397F8243001933B8C00931346BA6864
:10338800FFF770FF00BF1837BD4680BDF80000206A
:1033980080B500AF01224021024800F0FBFF00BFCA
:1033A80080BD00BF0018024080B500AF404B1B88AD
:1033B800DBB29AB23E4B1A803E4B1B881A463E4BF4
:1033C8009B5C1BB21B021AB2394B1B881BB21343FE
:1033D8001BB29AB2364B1A80364B1B88032B47D840
:1033E80001A252F823F000BF013400081F3400087E
:1033F8003D3400085B3400082D4B1B8843F0B003B4
:103408009AB22B4B1A802A4B1B8823F040039AB29E
:10341800274B1A802DE0264B1B8843F0D0039AB225
:10342800234B1A80224B1B8823F020039AB2204B8F
:103438001A801EE01E4B1B8843F0E0039AB21C4B17
:103448001A801B4B1B8823F010039AB2184B1A8062
:103458000FE0174B1B8843F070039AB2144B1A8085
:10346800134B1B8823F080039AB2114B1A8000E09B
:1034780000BF104B1B8801335A4203F0030302F0CC
:10348800030258BF53429AB20A4B1A8000224021C5
:103498000A4800F07FFF012302220549084801F08D
:1034A8009AFC01224021054800F074FF00BF80BD4E
:1034B80020000020FE0000200C0000200018024020
:1034C8001401002080B487B000AFF860B9601346DB
:1034D800FB71BB68002B27DBBB68032B24DCFB6874
:1034E800002B01DA0023FB60FB680F2B08DDFB686B
:1034F8005A4203F00F0302F00F0258BF5342FB6019
:103508000C4AFB6813441B78FB75FB79002B05D02C
:10351800FB7D002B02D0FB7D013BFB75064ABB6897
:103528001344FA7D1A7000E000BF1C37BD465DF8F1
:10353800047B7047100000200C00002080B483B08A
:1035480000AF78607B68002B08DB7B68032B05DC09
:10355800054A7B681344FF221A7000E000BF0C374D
:10356800BD465DF8047B70470C00002080B500AFB5
:1035780000F0CCFB00F020F8FFF744F900F042FA25
:1035880000F03AF9FFF76EF800F088FA00F0D4FA84
:1035980000F07CF84FF47A71002000F0CBF84FF47B
:1035A8007A71012000F0C6F8FCF7DEFFFDF776F827
:1035B800FFF7FAFE00BFF7E780B594B000AF07F158
:1035C800200330220021184603F000FB07F10C030A
:1035D80000221A605A609A60DA601A610023BB60A0
:1035E800284B1B6C274A43F080531364254B1B6CF4
:1035F80003F08053BB60BB6800237B60224B1B68D1
:10360800214A43F4804313601F4B1B6803F4804333
:103618007B607B6801233B624FF480337B6202232B
:10362800BB634FF48003FB6304233B64A8237B64E0
:103638000223BB640423FB6407F12003184600F04F
:10364800DDFE0346002B01D000F059F80F23FB6084
:1036580002233B6100237B614FF4A053BB614FF40D
:10366800A053FB6107F10C030521184601F03EF950
:103678000346002B01D000F042F800BF5037BD468A
:1036880080BD00BF003802400070004080B582B0A5
:1036980000AF00F03BF8FCF75BFFFFF783FCFCF79B
:1036A800CFFF4FF6FF70FFF719FAFFF771FE0023FF
:1036B8007B600AE0094A7B68134400221A70786824
:1036C800FFF73CFF7B6801337B607B68032BF1DDF0
:1036D80000BF00BF0837BD4680BD00BF7000002096
:1036E80080B582B000AF78607B681B68B3F1804F0B
:1036F80001D100F051F800BF0837BD4680BD80B445
:1037080000AF72B600BF00BFFDE7000080B500AF94
:10371800054802F041F9054802F03EF9044802F074
:103728003BF900BF80BD00BF6C010020B401002040
:10373800FC01002080B483B000AF03460A46FB7149
:103748001346BB80FB790749BA8821F81320FB7917
:10375800054A0021D15400BF0C37BD465DF8047BF3
:10376800704700BF000100200C01002080B483B026
:1037780000AF0346FB71FB79064AD35C012B01D1EC
:10378800012300E0002318460C37BD465DF8047B92
:10379800704700BF0C01002080B483B000AF002345
:1037A800FB711BE0FB79124A32F81330002B12D060
:1037B800FB790F4A32F81320013A91B20C4A22F8E9
:1037C8001310FB790A4A32F81330002B03D1FB7926
:1037D800084A0121D154FB790133FB71FB79052B90
:1037E800E0D900BF00BF0C37BD465DF8047B7047C9
:1037F800000100200C01002080B500AF174B184ACB
:103808001A60164B4FF482725A60144B00229A6069
:10381800124B0022DA60114B00221A610F4B002272
:103828005A610E4B4FF400729A610C4B0022DA6118
:103838000A4B00221A62094B00225A62074B0022E7
:103848009A62064B0A22DA62044801F03BFA034600
:10385800002B01D0FFF753FF00BF80BD14010020EB
:103868000030014080B58AB000AF786007F11403DA
:1038780000221A605A609A60DA601A617B681B68D5
:10388800194A93422BD100233B61184B5B6C174AB2
:1038980043F480535364154B5B6C03F480533B61D2
:1038A8003B690023FB60114B1B6B104A43F002037A
:1038B80013630E4B1B6B03F00203FB60FB6838239A
:1038C8007B610223BB610023FB6103233B62052369
:1038D8007B6207F114031946054800F0BFFB00BFDF
:1038E8002837BD4680BD00BF003001400038024087
:1038F8000004024080B483B000AF00237B60104B0B
:103908005B6C0F4A43F4804353640D4B5B6C03F4C8
:1039180080437B607B6800233B60094B1B6C084A33
:1039280043F080531364064B1B6C03F080533B60D9
:103938003B6800BF0C37BD465DF8047B704700BF8D
:103948000038024080B400AF00BFFDE780B400AF8C
:1039580000BFFDE780B400AF00BFFDE780B400AF53
:1039680000BFFDE780B400AF00BFFDE780B400AF43
:1039780000BFBD465DF8047B704780B400AF00BF50
:10398800BD465DF8047B704780B400AF00BFBD46FC
:103998005DF8047B704780B500AF00F009FA00BFFE
:1039A80080BD000080B500AF024802F0F7F900BF03
:1039B80080BD00BF6C01002080B500AF024802F056
:1039C800EDF900BF80BD00BFB401002080B500AF95
:1039D800024802F0E3F900BF80BD00BFFC010020EF
:1039E80080B400AF064BD3F88830054A43F470031F
:1039F800C2F8883000BFBD465DF8047B704700BF41
:103A080000ED00E080B586B000AF07F108030022A2
:103A18001A605A609A60DA603B4600221A605A605F
:103A28001D4B4FF080421A601B4B40F247325A60E0
:103A3800194B00229A60184B6322DA60164B002259
:103A48001A61154B00229A61134801F055FF03468D
:103A5800002B01D0FFF753FE4FF48053BB6007F1F2
:103A6800080319460C4802F04BFB0346002B01D013
:103A7800FFF745FE00233B6000237B603B46194669
:103A8800054802F043FF0346002B01D0FFF737FE3D
:103A980000BF1837BD4680BD6C01002080B586B0D8
:103AA80000AF07F1080300221A605A609A60DA60D2
:103AB8003B4600221A605A601D4B1E4A1A601C4B76
:103AC80040F247325A601A4B00229A60184B632220
:103AD800DA60174B00221A61154B00229A611448CC
:103AE80001F00AFF0346002B01D0FFF708FE4FF450
:103AF8008053BB6007F1080319460D4802F000FB2C
:103B08000346002B01D0FFF7FAFD00233B6000239A
:103B18007B603B461946064802F0F8FE0346002B38
:103B280001D0FFF7ECFD00BF1837BD4680BD00BFD0
:103B3800B40100200008004080B588B000AF3B1DEC
:103B480000221A605A609A60DA601A615A619A61B2
:103B58001E4B1F4A1A601D4B40F247325A601B4BDE
:103B680000229A60194B6322DA60184B00221A610E
:103B7800164B00229A61154801F0BEFE0346002B41
:103B880001D0FFF7BCFD114801F076FF0346002B7A
:103B980001D0FFF7B4FD60237B600023BB600023E6
:103BA800FB6000237B613B1D00221946074802F099
:103BB800E5F90346002B01D0FFF7A1FD034800F00B
:103BC8006BF800BF2037BD4680BD00BFFC01002058
:103BD800001C004080B586B000AF78607B681B6829
:103BE800B3F1804F16D100237B61284B1B6C274A09
:103BF80043F001031364254B1B6C03F001037B6145
:103C08007B69002200211C2000F0F1F91C2000F043
:103C18000AFA36E07B681B681D4A934216D10023D6
:103C28003B611A4B1B6C194A43F004031364174B8E
:103C38001B6C03F004033B613B69002200211E203A
:103C480000F0D5F91E2000F0EEF91AE07B681B6839
:103C5800104A934215D10023FB600C4B1B6C0B4A96
:103C680043F080031364094B1B6C03F08003FB6073
:103C7800FB68002200212C2000F0B9F92C2000F06C
:103C8800D2F900BF1837BD4680BD00BF00380240DA
:103C980000080040001C004080B588B000AF786084
:103CA80007F10C0300221A605A609A60DA601A6100
:103CB8007B681B68124A93421ED10023BB60114BDC
:103CC8001B6B104A43F0200313630E4B1B6B03F06E
:103CD8002003BB60BB684FF48073FB6002233B6129
:103CE80000237B610023BB610923FB6107F10C03FF
:103CF8001946054800F0B2F900BF2037BD4680BD1F
:103D0800001C0040003802400014024080B500AF9B
:103D18000E4B1B680D4A43F4007313600B4B1B6872
:103D28000A4A43F480631360084B1B68074A43F44C
:103D380080731360032000F04FF90F2000F008F89B
:103D4800FFF7D8FD0023184680BD00BF003C0240A5
:103D580080B582B000AF7860124B1A68124B1B789E
:103D680019464FF47A73B3FBF1F3B2FBF3F3184639
:103D780000F067F90346002B01D001230EE07B68B1
:103D88000F2B0AD8002279684FF0FF3000F02FF986
:103D9800064A7B681360002300E0012318460837B1
:103DA800BD4680BD240000202C00002028000020F3
:103DB80080B400AF064B1B781A46064B1B681344A9
:103DC800044A136000BFBD465DF8047B704700BF1E
:103DD8002C0000204402002080B400AF034B1B6875
:103DE8001846BD465DF8047B704700BF44020020BA
:103DF80080B584B000AF7860FFF7EEFFB8607B68ED
:103E0800FB60FB68B3F1FF3F05D00A4B1B781A46ED
:103E1800FB681344FB6000BFFFF7DEFF0246BB6888
:103E2800D31AFA689A42F7D800BF00BF1037BD46C8
:103E380080BD00BF2C00002080B485B000AF786042
:103E48007B6803F00703FB600C4BDB68BB60BA6858
:103E58004FF6FF031340BB60FB681A02BB681343AD
:103E680043F0BF6343F40033BB60044ABB68D360CC
:103E780000BF1437BD465DF8047B704700ED00E0D5
:103E880080B400AF044BDB681B0A03F00703184635
:103E9800BD465DF8047B704700ED00E080B483B058
:103EA80000AF0346FB7197F90730002B0BDBFB795A
:103EB80003F01F02074997F907305B09012000FA50
:103EC80002F241F8232000BF0C37BD465DF8047BA1
:103ED800704700BF00E100E080B483B000AF034644
:103EE8003960FB7197F90730002B0ADB3B68DAB2BF
:103EF8000C4997F907301201D2B20B4483F800231A
:103F08000AE03B68DAB20849FB7903F00F03043B87
:103F18001201D2B20B441A7600BF0C37BD465DF8C9
:103F2800047B704700E100E000ED00E080B489B058
:103F380000AFF860B9607A60FB6803F00703FB61C3
:103F4800FB69C3F10703042B28BF0423BB61FB698A
:103F58000433062B02D9FB69033B00E000237B6195
:103F68004FF0FF32BB6902FA03F3DA43BB681A4029
:103F78007B699A404FF0FF317B6901FA03F3D9431B
:103F88007B680B40134318462437BD465DF8047B15
:103F98007047000080B582B000AF78607B68013B55
:103FA800B3F1807F01D301230FE00A4A7B68013B0C
:103FB80053600F214FF0FF30FFF78EFF054B0022B3
:103FC8009A60044B07221A60002318460837BD463A
:103FD80080BD00BF10E000E080B582B000AF78601F
:103FE8007868FFF729FF00BF0837BD4680BD80B558
:103FF80086B000AF0346B9607A60FB7300237B612B
:10400800FFF73EFF78617A68B9687869FFF78EFF35
:10401800024697F90F3011461846FFF75DFF00BFBB
:104028001837BD4680BD80B582B000AF0346FB712E
:1040380097F907301846FFF731FF00BF0837BD462C
:1040480080BD80B582B000AF78607868FFF7A2FFC6
:10405800034618460837BD4680BD000080B489B0C5
:1040680000AF7860396000237B6100233B61002347
:10407800BB610023FB616BE10122FB6902FA03F3D8
:104088007B613B681B687A6913403B613A697B69CD
:104098009A4240F05A813B685B6803F00303012BA6
:1040A80005D03B685B6803F00303022B30D17B68C3
:1040B8009B68BB61FB695B00032202FA03F3DB43E5
:1040C800BA691340BB613B68DA68FB695B0002FAB6
:1040D80003F3BA691343BB617B68BA699A607B686A
:1040E8005B68BB610122FB6902FA03F3DB43BA692F
:1040F8001340BB613B685B681B0903F00102FB6965
:1041080002FA03F3BA691343BB617B68BA695A6060
:104118003B685B6803F00303032B17D07B68DB68FD
:10412800BB61FB695B00032202FA03F3DB43BA6954
:104138001340BB613B689A68FB695B0002FA03F3B2
:10414800BA691343BB617B68BA69DA603B685B682C
:1041580003F00303022B23D1FB69DA087B680832DA
:1041680053F82230BB61FB6903F007039B000F2261
:1041780002FA03F3DB43BA691340BB613B681A696F
:10418800FB6903F007039B0002FA03F3BA691343C0
:10419800BB61FB69DA087B680832B96943F8221009
:1041A8007B681B68BB61FB695B00032202FA03F3AF
:1041B800DB43BA691340BB613B685B6803F00302E9
:1041C800FB695B0002FA03F3BA691343BB617B68BE
:1041D800BA691A603B685B6803F44033002B00F04F
:1041E800B4800023FB60604B5B6C5F4A43F4804300
:1041F80053645D4B5B6C03F48043FB60FB685B4A74
:10420800FB699B08023352F82330BB61FB6903F05A
:1042180003039B000F2202FA03F3DB43BA6913403E
:10422800BB617B68524A93422BD07B68514A9342C8
:1042380025D07B68504A93421FD07B684F4A9342EF
:1042480019D07B684E4A934213D07B684D4A9342FB
:104258000DD07B684C4A934207D07B684B4A934207
:1042680001D107230EE008230CE006230AE005230A
:1042780008E0042306E0032304E0022302E001230C
:1042880000E00023FA6902F0030292009340BA6941
:104298001343BB613549FB699B080233BA6941F88E
:1042A80023203B4B9B68BB613B69DB43BA691340E6
:1042B800BB613B685B6803F48013002B03D0BA69C9
:1042C8003B691343BB61324ABB699360304BDB687F
:1042D800BB613B69DB43BA691340BB613B685B6800
:1042E80003F40013002B03D0BA693B691343BB6185
:1042F800274ABB69D360264B5B68BB613B69DB43DC
:10430800BA691340BB613B685B6803F40033002B58
:1043180003D0BA693B691343BB611D4ABB6953604B
:104328001B4B1B68BB613B69DB43BA691340BB612C
:104338003B685B6803F48033002B03D0BA693B69A0
:104348001343BB61124ABB691360FB690133FB610C
:10435800FB690F2B7FF690AE00BF00BF2437BD4628
:104368005DF8047B704700BF003802400038014008
:10437800000002400004024000080240000C024015
:10438800001002400014024000180240001C0240C5
:10439800003C014080B483B000AF78600B467B805E
:1043A80013467B707B78002B03D07A887B689A61F0
:1043B80003E07B881A047B689A6100BF0C37BD460E
:1043C8005DF8047B704780B485B000AF78600B4619
:1043D8007B807B685B69FB607A88FB6813401A0402
:1043E800FB68D9437B880B401A437B689A6100BFFE
:1043F8001437BD465DF8047B7047000080B586B071
:1044080000AF78607B68002B01D1012367E27B68ED
:104418001B6803F00103002B75D0884B9B6803F0E1
:104428000C03042B0CD0854B9B6803F00C03082B62
:1044380012D1824B5B6803F48003B3F5800F0BD174
:104448007E4B1B6803F40033002B5BD07B685B68F2
:10445800002B57D1012342E27B685B68B3F5803FAC
:1044680006D1764B1B68754A43F4803313601DE010
:104478007B685B68B3F5A02F0CD1704B1B686F4A43
:1044880043F4802313606D4B1B686C4A43F48033FC
:1044980013600BE0694B1B68684A23F48033136090
:1044A800664B1B68654A23F4802313607B685B684E
:1044B800002B13D0FFF790FC386108E0FFF78CFC65
:1044C80002463B69D31A642B01D9032307E25B4BED
:1044D8001B6803F40033002BF0D014E0FFF77CFCDA
:1044E800386108E0FFF778FC02463B69D31A642B71
:1044F80001D90323F3E1514B1B6803F40033002B6C
:10450800F0D100E000BF7B681B6803F00203002BBA
:1045180063D04A4B9B6803F00C03002B0BD0474B2E
:104528009B6803F00C03082B1CD1444B5B6803F415
:104538008003002B16D1414B1B6803F00203002BAC
:1045480005D07B68DB68012B01D00123C7E13B4B19
:104558001B6823F0F8027B681B69DB0037491343AB
:104568000B603AE07B68DB68002B20D0344B0122DB
:104578001A60FFF731FC386108E0FFF72DFC0246AE
:104588003B69D31A022B01D90323A8E12B4B1B68E3
:1045980003F00203002BF0D0284B1B6823F0F8022D
:1045A8007B681B69DB00254913430B6015E0244B2E
:1045B80000221A60FFF710FC386108E0FFF70CFCD6
:1045C80002463B69D31A022B01D9032387E11B4B0F
:1045D8001B6803F00203002BF0D17B681B6803F013
:1045E8000803002B36D07B685B69002B16D0154B6F
:1045F80001221A60FFF7F0FB386108E0FFF7ECFBD7
:1046080002463B69D31A022B01D9032367E10B4BFE
:104618005B6F03F00203002BF0D01BE0094B002274
:104628001A60FFF7D9FB38610EE0FFF7D5FB0246A9
:104638003B69D31A022B07D9032350E10038024003
:1046480000004742800E4742884B5B6F03F002032D
:10465800002BEAD17B681B6803F00403002B00F0F1
:1046680097800023FB75814B1B6C03F08053002B54
:104678000FD10023BB607D4B1B6C7C4A43F08053F9
:1046880013647A4B1B6C03F08053BB60BB68012337
:10469800FB75774B1B6803F48073002B18D1744BA0
:1046A8001B68734A43F480731360FFF795FB386106
:1046B80008E0FFF791FB02463B69D31A022B01D9A8
:1046C80003230CE16A4B1B6803F48073002BF0D0C2
:1046D8007B689B68012B06D1644B1B6F634A43F0D0
:1046E800010313671CE07B689B68052B0CD15F4BAB
:1046F8001B6F5E4A43F0040313675C4B1B6F5B4AF6
:1047080043F0010313670BE0584B1B6F574A23F024
:1047180001031367554B1B6F544A23F004031367B7
:104728007B689B68002B15D0FFF756FB38610AE0C1
:10473800FFF752FB02463B69D31A41F28832934293
:1047480001D90323CBE0494B1B6F03F00203002B75
:10475800EED014E0FFF740FB38610AE0FFF73CFBBE
:1047680002463B69D31A41F28832934201D90323A6
:10477800B5E03E4B1B6F03F00203002BEED1FB7D2F
:10478800012B05D1394B1B6C384A23F08053136435
:104798007B689B69002B00F0A180344B9B6803F079
:1047A8000C03082B5CD07B689B69022B41D1314BF1
:1047B80000221A60FFF710FB386108E0FFF70CFBD6
:1047C80002463B69D31A022B01D9032387E0274B02
:1047D8001B6803F00073002BF0D17B68DA697B68F3
:1047E8001B6A1A437B685B6A9B011A437B689B6A56
:1047F8005B08013B1B041A437B68DB6A1B061B49E9
:1048080013434B601B4B01221A60FFF7E5FA38612E
:1048180008E0FFF7E1FA02463B69D31A022B01D9F7
:1048280003235CE0114B1B6803F00073002BF0D0EE
:1048380054E0104B00221A60FFF7CEFA386108E006
:10484800FFF7CAFA02463B69D31A022B01D90323A0
:1048580045E0064B1B6803F00073002BF0D13DE0E8
:104868007B689B69012B07D1012338E0003802409F
:1048780000700040600047421B4B5B68FB607B6830
:104888009B69012B28D0FB6803F480027B68DB69F5
:104898009A4221D1FB6803F03F027B681B6A9A4267
:1048A8001AD1FA6847F6C07313407A68526A9201BF
:1048B800934211D1FB6803F440327B689B6A5B0822
:1048C800013B1B049A4207D1FB6803F070627B68C6
:1048D800DB6A1B069A4201D0012300E00023184638
:1048E8001837BD4680BD00BF0038024080B584B08F
:1048F80000AF786039607B68002B01D10123CCE0E0
:10490800684B1B6803F007033A689A420CD9654B59
:104918003A68D2B21A70634B1B6803F007033A680F
:104928009A4201D00123B8E07B681B6803F00203B8
:10493800002B20D07B681B6803F00403002B05D0F4
:10494800594B9B68584A43F4E05393607B681B6853
:1049580003F00803002B05D0534B9B68524A43F4DD
:1049680060439360504B9B6823F0F0027B689B6820
:104978004D4913438B607B681B6803F00103002BD0
:1049880044D07B685B68012B07D1474B1B6803F455
:104998000033002B19D101237FE07B685B68022B71
:1049A80003D07B685B68032B07D13F4B1B6803F080
:1049B8000073002B09D101236FE03B4B1B6803F008
:1049C8000203002B01D1012367E0374B9B6823F0DA
:1049D80003027B685B68344913438B60FFF7FCF97B
:1049E800F8600AE0FFF7F8F90246FB68D31A41F2CB
:1049F8008832934201D903234FE02B4B9B6803F085
:104A08000C027B685B689B009A42EBD1254B1B68C4
:104A180003F007033A689A420CD2224B3A68D2B2A2
:104A28001A70204B1B6803F007033A689A4201D0BA
:104A3800012332E07B681B6803F00403002B08D0D5
:104A4800194B9B6823F4E0527B68DB6816491343D3
:104A58008B607B681B6803F00803002B09D0124B9E
:104A68009B6823F460427B681B69DB000E49134393
:104A78008B6000F021F802460B4B9B681B0903F082
:104A88000F030A49CB5C22FA03F3094A1360094B66
:104A98001B681846FFF75CF9002318461037BD4617
:104AA80080BD00BF003C0240003802407C6403081F
:104AB80024000020280000202DE9B04F94B000AF5A
:104AC80000237B640023FB6400233B640023BB6456
:104AD800794B9B6803F00C03082B0DD0082B00F2D0
:104AE800E180002B02D0042B03D0DBE0734BBB64C6
:104AF800DBE0734BBB64D8E06F4B5B6803F03F03AC
:104B08007B646D4B5B6803F48003002B63D06A4BB6
:104B18005B689B090022BB63FA63BB6BC3F30803A2
:104B28003B6300237B63D7E90C4522462B464FF0B5
:104B380000004FF00001590141EAD26150010246DC
:104B48000B462146511A3961294663EB01037B6103
:104B58004FF000024FF00003D7E904AB59468B0130
:104B6800514643EA916351468A015146B2EB010826
:104B7800594663EB01094FF000024FF000034FEA7A
:104B8800C90343EA58734FEAC80290469946234638
:104B980018EB0303BB602B4649EB0303FB604FF0A4
:104BA80000024FF00003D7E9024529464B0221468F
:104BB80043EAD15321464A02104619467B6C00222B
:104BC800BB62FA62D7E90A23FBF702FB02460B46EF
:104BD8001346FB6458E0384B5B689B090022184673
:104BE8001146C0F308033B6200237B62D7E90889BA
:104BF80042464B464FF000004FF00001590141EA90
:104C0800D261500102460B464146B2EB010A4946C1
:104C180063EB010B4FF000024FF000034FEA8B13D8
:104C280043EA9A634FEA8A12B2EB0A0463EB0B0574
:104C38004FF000024FF00003EB0043EA5473E20028
:104C480014461D464346E3183B604B4645EB0303B9
:104C58007B604FF000024FF00003D7E9004529467A
:104C68008B02214643EA915321468A02104619468F
:104C78007B6C0022BB61FA61D7E90623FBF7A8FA2F
:104C880002460B461346FB640B4B5B681B0C03F098
:104C9800030301335B003B64FA6C3B6CB2FBF3F338
:104CA800BB6402E0054BBB6400BFBB6C18465037C1
:104CB800BD46BDE8B08F00BF003802400024F400B4
:104CC80000127A0080B582B000AF78607B68002B54
:104CD80001D101237BE07B685B6A002B08D17B68EC
:104CE8005B68B3F5827F09D07B680022DA6105E052
:104CF8007B6800221A617B6800225A617B68002267
:104D08009A627B6893F85130DBB2002B06D17B683E
:104D1800002283F850207868FEF7A4FD7B68022201
:104D280083F851207B681B681A687B681B6822F02F
:104D380040021A607B685B6803F482727B689B6838
:104D480003F404431A437B68DB6803F400631A43E3
:104D58007B681B6903F002031A437B685B6903F0F5
:104D680001031A437B689B6903F400731A437B6849
:104D7800DB6903F038031A437B681B6A03F080037E
:104D880042EA03017B689B6A03F400527B681B6854
:104D98000A431A607B689B691B0C03F004017B685B
:104DA8005B6A03F010027B681B680A435A607B68E1
:104DB8001B68DA697B681B6822F40062DA617B6829
:104DC80000225A657B68012283F851200023184687
:104DD8000837BD4680BD80B588B000AFF860B960BF
:104DE8003B601346FB80FEF7F7FFF861FB887B8387
:104DF800FB6893F85130DBB2012B01D002232AE182
:104E0800BB68002B02D0FB88002B01D1012322E1D3
:104E1800FB6893F85030012B01D102231BE1FB689A
:104E2800012283F85020FB68032283F85120FB6895
:104E380000225A65FB68BA681A63FB68FA889A8682
:104E4800FB68FA88DA86FB6800229A63FB6800220E
:104E58009A87FB680022DA87FB6800225A64FB689D
:104E680000221A64FB689B68B3F5004F0FD1FB68FA
:104E78001B681A68FB681B6822F040021A60FB680E
:104E88001B681A68FB681B6842F480421A60FB685A
:104E98001B681B6803F04003402B07D0FB681B68A6
:104EA8001A68FB681B6842F040021A60FB68DB68FE
:104EB800B3F5006F52D1FB685B68002B02D07B8B87
:104EC800012B45D1FB681B6B1A88FB681B68DA60ED
:104ED800FB681B6B9A1CFB681A63FB68DB8E9BB232
:104EE800013B9AB2FB68DA8632E0FB681B689B6874
:104EF80003F00203022B12D1FB681B6B1A88FB68B4
:104F08001B68DA60FB681B6B9A1CFB681A63FB68FA
:104F1800DB8E9BB2013B9AB2FB68DA8618E0FEF79B
:104F28005BFF0246FB69D31A3A689A4203D83B688A
:104F3800B3F1FF3F02D13B68002B09D1FB68012286
:104F480083F85120FB68002283F85020032382E075
:104F5800FB68DB8E9BB2002BC7D153E0FB685B6814
:104F6800002B02D07B8B012B47D1FB681A6BFB68A7
:104F78001B680C3312781A70FB681B6B5A1CFB6891
:104F88001A63FB68DB8E9BB2013B9AB2FB68DA8638
:104F980033E0FB681B689B6803F00203022B13D104
:104FA800FB681A6BFB681B680C3312781A70FB6875
:104FB8001B6B5A1CFB681A63FB68DB8E9BB2013BB8
:104FC8009AB2FB68DA8618E0FEF706FF0246FB692C
:104FD800D31A3A689A4203D83B68B3F1FF3F02D12B
:104FE8003B68002B09D1FB68012283F85120FB683C
:104FF800002283F8502003232DE0FB68DB8E9BB250
:10500800002BC6D1FA693968F86800F0D9FB034665
:10501800002B02D0FB6820225A65FB689B68002B96
:105028000AD100237B61FB681B68DB687B61FB6836
:105038001B689B687B617B69FB68012283F85120B0
:10504800FB68002283F85020FB685B6D002B01D0C1
:10505800012300E0002318462037BD4680BD80B5F7
:1050680088B002AFF860B9603B601346FB80FB680C
:1050780093F85130DBB2012B01D0022304E1BB6865
:10508800002B02D0FB88002B01D10123FCE0FB6838
:105098005B68B3F5827F12D1FB689B68002B0ED149
:1050A800FB68042283F85120FA883B680093134672
:1050B800BA68B968F86800F0EBF80346E4E0FEF770
:1050C8008BFE7861FB6893F85030012B01D10223E5
:1050D800DAE0FB68012283F85020FB68042283F899
:1050E8005120FB6800225A65FB68BA689A63FB681E
:1050F800FA889A87FB68FA88DA87FB6800221A63BD
:10510800FB6800229A86FB680022DA86FB68002288
:105118001A64FB6800225A64FB689B68B3F5004F69
:105128000FD1FB681B681A68FB681B6822F04002F5
:105138001A60FB681B681A68FB681B6822F48042C7
:105148001A60FB681B681B6803F04003402B07D0FC
:10515800FB681B681A68FB681B6842F040021A600B
:10516800FB68DB68002B70D135E0FB681B689B6827
:1051780003F00103012B15D1FB681B6803F10C0236
:10518800FB689B6B1278D2B21A70FB689B6B5A1C37
:10519800FB689A63FB68DB8F9BB2013B9AB2FB68A2
:1051A800DA8718E0FEF718FE02467B69D31A3A68D8
:1051B8009A4203D83B68B3F1FF3F02D13B68002B0A
:1051C80009D1FB68012283F85120FB68002283F88B
:1051D8005020032358E0FB68DB8F9BB2002BC4D11F
:1051E80038E0FB681B689B6803F00103012B13D1AF
:1051F800FB681B68DA68FB689B6B92B21A80FB68D5
:105208009B6B9A1CFB689A63FB68DB8F9BB2013B24
:105218009AB2FB68DA8718E0FEF7DEFD02467B6982
:10522800D31A3A689A4203D83B68B3F1FF3F02D1D8
:105238003B68002B09D1FB68012283F85120FB68E9
:10524800002283F8502003231EE0FB68DB8F9BB20B
:10525800002BC6D17A693968F86800F04BFA034622
:10526800002B02D0FB6820225A65FB68012283F8D4
:105278005120FB68002283F85020FB685B6D002BEF
:1052880001D0012300E0002318461837BD4680BD31
:1052980080B58AB000AFF860B9607A607B8001237E
:1052A8007B62FEF799FD3862FB6893F85130FB7713
:1052B800FB685B68BB617B88FB82FB7F012B0CD0A2
:1052C800BB69B3F5827F06D1FB689B68002B02D1CE
:1052D800FB7F042B01D002237FE1BB68002B05D0A4
:1052E8007B68002B02D07B88002B01D1012374E15D
:1052F800FB6893F85030012B01D102236DE1FB6864
:10530800012283F85020FB6893F85130DBB2042B5C
:1053180003D0FB68052283F85120FB6800225A65F8
:10532800FB687A689A63FB687A88DA87FB687A8808
:105338009A87FB68BA681A63FB687A88DA86FB681A
:105348007A889A86FB6800221A64FB6800225A64ED
:10535800FB681B681B6803F04003402B07D0FB6801
:105368001B681A68FB681B6842F040021A60FB68F9
:10537800DB68B3F5006F7ED1FB685B68002B02D059
:10538800FB8A012B6CD1FB681B6B1A88FB681B68B6
:10539800DA60FB681B6B9A1CFB681A63FB68DB8E80
:1053A8009BB2013B9AB2FB68DA8659E0FB681B683E
:1053B8009B6803F00203022B1BD1FB68DB8E9BB2B8
:1053C800002B16D07B6A012B13D1FB681B6B1A8844
:1053D800FB681B68DA60FB681B6B9A1CFB681A6326
:1053E800FB68DB8E9BB2013B9AB2FB68DA8600232E
:1053F8007B62FB681B689B6803F00103012B19D1D2
:10540800FB68DB8F9BB2002B14D0FB681B68DA6843
:10541800FB689B6B92B21A80FB689B6B9A1CFB68BB
:105428009A63FB68DB8F9BB2013B9AB2FB68DA8711
:1054380001237B62FEF7D0FC02463B6AD31A3A6B23
:105448009A420DD83B6BB3F1FF3F09D0FB680122AC
:1054580083F85120FB68002283F850200323BCE026
:10546800FB68DB8E9BB2002BA0D1FB68DB8F9BB265
:10547800002B9BD182E0FB685B68002B02D0FB8A83
:10548800012B71D1FB681A6BFB681B680C3312780F
:105498001A70FB681B6B5A1CFB681A63FB68DB8E6F
:1054A8009BB2013B9AB2FB68DA865DE0FB681B6839
:1054B8009B6803F00203022B1CD1FB68DB8E9BB2B6
:1054C800002B17D07B6A012B14D1FB681A6BFB6881
:1054D8001B680C3312781A70FB681B6B5A1CFB682C
:1054E8001A63FB68DB8E9BB2013B9AB2FB68DA86D3
:1054F80000237B62FB681B689B6803F00103012B98
:1055080019D1FB68DB8F9BB2002B14D0FB681B689A
:10551800DA68FB689B6BD2B21A70FB689B6B5A1CEB
:10552800FB689A63FB68DB8F9BB2013B9AB2FB680E
:10553800DA8701237B62FEF74FFC02463B6AD31AE7
:105548003A6B9A4203D83B6BB3F1FF3F02D13B6BF6
:10555800002B09D1FB68012283F85120FB68002247
:1055680083F85020032338E0FB68DB8E9BB2002BC6
:105578009CD1FB68DB8F9BB2002B97D13A6A396BC1
:10558800F86800F01DF90346002B08D0FB682022BC
:105598005A65FB68002283F8502001231DE0FB6850
:1055A8009B68002B0AD100233B61FB681B68DB6802
:1055B8003B61FB681B689B683B613B69FB68012298
:1055C80083F85120FB68002283F85020FB685B6D4C
:1055D800002B01D0012300E0002318462837BD46E0
:1055E80080BD000080B588B000AFF860B9603B604E
:1055F8001346FB71FEF7F0FB0246BB6A9B1A3A683A
:105608001344FB61FEF7E8FBB861394B1B685B018B
:105618001B0DFA6902FB03F37B6155E03B68B3F1AC
:10562800FF3F51D0FEF7D8FB0246BB69D31AFA698F
:105638009A4202D9FB69002B3DD1FB681B685A6866
:10564800FB681B6822F0E0025A60FB685B68B3F5F0
:10565800827F11D1FB689B68B3F5004F04D0FB68CB
:105668009B68B3F5806F07D1FB681B681A68FB68F5
:105678001B6822F040021A60FB689B6AB3F5005F62
:105688000FD1FB681B681A68FB681B6822F400527C
:105698001A60FB681B681A68FB681B6842F40052B2
:1056A8001A60FB68012283F85120FB68002283F806
:1056B8005020032318E07B69002B02D10023FB61F3
:1056C80002E07B69013B7B61FB681B689A68BB68E9
:1056D8001340BA689A420CBF01230023DBB21A4672
:1056E800FB799A429AD1002318462037BD4680BDDF
:1056F8002400002080B586B002AFF860B9607A60F7
:10570800FB685B68B3F5827F11D1FB689B68B3F5D2
:10571800004F04D0FB689B68B3F5806F07D1FB6826
:105728001B681A68FB681B6822F040021A60FB6855
:105738005B68B3F5827F2AD1FB689B68B3F5806FFD
:1057480012D07B680093BB6800228021F868FFF7BD
:1057580049FF0346002B2DD0FB685B6D43F0200208
:10576800FB685A65032326E07B680093BB68002228
:105778000121F868FFF736FF0346002B1AD0FB68B3
:105788005B6D43F02002FB685A65032313E07B68D6
:105798000093BB6800220121F868FFF723FF034646
:1057A800002B07D0FB685B6D43F02002FB685A654D
:1057B800032300E0002318461037BD4680BD0000D3
:1057C80080B588B002AFF860B9607A607B680093F2
:1057D800BB6801220221F868FFF704FF0346002B8B
:1057E80007D0FB685B6D43F02002FB685A65032312
:1057F80032E01B4B1B681B4AA2FB03235B0D4FF4D3
:105808007A7202FB03F37B61FB685B68B3F5827F06
:1058180012D17B680093BB6800228021F868FFF7EB
:10582800E1FE0346002B16D0FB685B6D43F02002B7
:10583800FB685A6503230FE07B69002B0AD07B695C
:10584800013B7B61FB681B689B6803F08003802B2E
:10585800F2D000E000BF002318461837BD4680BDCF
:1058680024000020819F5E1680B584B000AFF860E8
:10587800B9607A60FB68002B01D1012338E0FB682E
:1058880093F84930DBB2002B06D1FB68002283F87D
:105898004820F868FCF7ACFFFB681A68FB68083317
:1058A8001946104601F0C2F8FB681868FB689B6847
:1058B8001A46B96801F024F9FB685868FB689A68C9
:1058C800FB681B6B796801F049F9FB681B68FA688B
:1058D800926853F82210FB681B68FA68926841F0D6
:1058E800010143F82210FB68012283F849200023B4
:1058F80018461037BD4680BD80B582B000AF7860CD
:105908007B68002B01D1012341E07B6893F83D308F
:10591800DBB2002B06D17B68002283F83C20786834
:10592800FEF758F97B68022283F83D207B681A68E5
:105938007B6804331946104600F0D2FC7B680122CC
:1059480083F846207B68012283F83E207B68012289
:1059580083F83F207B68012283F840207B6801227E
:1059680083F841207B68012283F842207B6801226A
:1059780083F843207B68012283F844207B68012256
:1059880083F845207B68012283F83D2000231846D0
:105998000837BD4680BD000080B485B000AF786090
:1059A8007B6893F83D30DBB2012B01D001234EE038
:1059B8007B68022283F83D207B681B68DA687B6875
:1059C8001B6842F00102DA607B681B68234A934235
:1059D80022D07B681B68B3F1804F1DD07B681B68A1
:1059E8001F4A934218D07B681B681E4A934213D003
:1059F8007B681B681C4A93420ED07B681B681B4A55
:105A0800934209D07B681B68194A934204D07B688B
:105A18001B68184A934211D17B681B689B6803F086
:105A28000703FB60FB68062B10D07B681B681A68AD
:105A38007B681B6842F001021A6007E07B681B68FC
:105A48001A687B681B6842F001021A600023184636
:105A58001437BD465DF8047B704700BF0000014065
:105A68000004004000080040000C00400004014011
:105A7800004001400018004080B582B000AF786057
:105A88007B68002B01D1012341E07B6893F83D300E
:105A9800DBB2002B06D17B68002283F83C207868B3
:105AA80000F039F87B68022283F83D207B681A6889
:105AB8007B6804331946104600F012FC7B6801220B
:105AC80083F846207B68012283F83E207B68012208
